:020000040800F2
:10000000080500209D010008331E0008BB170008EA
:10001000311E0008D5020008DD22000800000000A3
:10002000000000000000000000000000371E000873
:100030004103000800000000351E0008391E0008BA
:10004000B7010008B7010008B7010008B7010008B0
:10005000B7010008B7010008B7010008B7010008A0
:10006000B7010008B7010008B7010008B701000890
:10007000B7010008B7010008B7010008B701000880
:10008000B7010008B7010008B7010008B701000870
:10009000B7010008B7010008B70100084B030008CA
:1000A000B7010008B7010008B7010008B701000850
:1000B000B7010008E11E0008B7010008B7010008F9
:1000C000B7010008B7010008B7010008B701000830
:1000D000B7010008D1220008B7010008B7010008E5
:1000E00043030008B7010008B7010008B701000882
:1000F000B7010008B7010008B7010008B701000800
:10010000B7010008B7010008B7010008B7010008EF
:10011000B7010008B7010008B7010008B7010008DF
:10012000B7010008B7010008B7010008B7010008CF
:10013000B7010008B7010008B7010008B7010008BF
:10014000B7010008B7010008B7010008B7010008AF
:10015000B7010008B7010008B7010008B70100089F
:10016000B7010008B7010008B7010008B70100088F
:10017000B7010008B7010008B7010008000000003F
:10018000B7010008B7010008DFF80CD000F090F8C4
:1001900000480047B52400080805002006488047AD
:1001A00006480047FEE7FEE7FEE7FEE7FEE7FEE75C
:1001B000FEE7FEE7FEE7FEE7C51E0008890100082E
:1001C0002DE9F05F0546002092469B46884606468C
:1001D000814640241BE0284641464746224600F01F
:1001E00057F853465A46C01A914110D31146184643
:1001F000224600F03EF82D1A67EB01084F462246D2
:100200000120002100F035F817EB00094E41201EB7
:10021000A4F10104DFDC484631462A464346BDE8E6
:10022000F09FD2B201E000F8012B491EFBD27047CB
:100230000022F6E710B513460A4604461946FFF7B2
:10024000F0FF204610BD30B50B46014600202022AD
:10025000012409E021FA02F59D4205D303FA02F5D3
:10026000491B04FA02F52844151EA2F10102F1DC33
:1002700030BD202A04DB203A00FA02F1002070474A
:100280009140C2F1200320FA03F3194390407047D4
:10029000202A04DB203A21FA02F00021704721FADB
:1002A00002F3D040C2F12002914008431946704742
:1002B000064C074D06E0E06840F0010394E80700B3
:1002C00098471034AC42F6D3FFF762FF302600089F
:1002D00050260008FEE700003EB516A1012409687B
:1002E00001910021144B0291F7280DD0FB280DD06D
:1002F000FD280A464FF00401184610D000F04DF9D1
:1003000002AB002200940FE0012200E00022042151
:10031000184600F042F901AB0522009404E000F019
:100320003CF902AB032200949A21044801F046FAFA
:100330003EBD0000FF000000001002403000002021
:1003400070474FF4005000F039B8202000F036B864
:10035000704790F83510022903D0802141650120B3
:100360007047052180F835100068016821F001010F
:10037000016000207047000070B5044600F012F9DB
:100380000546601C02D004480078044400F00AF9D5
:10039000401BA042FAD370BD1C0000200649202853
:1003A00005D0B0F5005F01D10120087070474868A2
:1003B000401C48607047000008000020044910B548
:1003C0000A68024202D00860FFF7E8FF10BD000093
:1003D000143C01402DE9F84F00224FF0010803259D
:1003E0004FF00F0E0B6808FA02F42340A3426ED1BF
:1003F0004E68012E05D0022E03D0112E01D0122EF0
:1004000012D186684FEA420C05FA0CF7BE43CF685A
:1004100007FA0CF7374387604668A6430C79C4F3A4
:100420000014944034434460C668570005FA07FC42
:100430008C6826EA0C06BC403443C4604C68022C2D
:1004400001D0122C13D1D40800EB8404A346D4F8B5
:10045000209054074FEAD46A0EFA0AF629EA0609F0
:100460000E6906FA0AF646EA0906CBF82060066825
:100470000C7926EA0C0604F00304BC403443046003
:100480004C68E40065D5364C266846F48046266004
:10049000246822F0030604F480440094314C344470
:1004A000A446D4F808489607370F0EFA07F6B44367
:1004B0002D4EB04201D1002624E02C4EB04201D195
:1004C00001261FE02A4EB04202D102261AE040E087
:1004D000284EB04201D1032614E0274EB04201D18C
:1004E00004260FE0254EB04201D105260AE0244E35
:1004F000B04201D1062605E0224EB04201D10726C6
:1005000000E00826BE402643CCF808681E4E34683A
:100510004F689C43FF0300D51C4334601A4C241DD4
:1005200026684F689E43BF0300D51E432660164EC3
:10053000083634684F689C43FF0200D51C43346082
:10054000114E0C3634684F689C43BF0200D51C43E3
:100550003460521C102AFFF445AFBDE8F88F00004C
:1005600044380240003001400000024000040240D4
:1005700000080240000C024000100240001402403B
:1005800000180240001C0240003C0140426931EA70
:10059000020200D10904816170470AB1816170478C
:1005A0000904FBE701488068704700001C00002038
:1005B00070B5040025D094F83D00002520B984F8DA
:1005C0003C50204600F04CFA242084F83D0020687E
:1005D000016821F0010101602068016841F40041D7
:1005E00001602068016821F40041016000F0A0FB77
:1005F0004D4A6168914201D84C4900E04C4988421B
:1006000001D2012070BD4B492368B0FBF1F15E6857
:1006100026F03F060E435E606368934206D94FF4AE
:10062000967359434FF47A73B1FBF3F12368491C75
:100630001E6A26F03F06314319626168914210D864
:100640004900401EB0FBF1F2521CC2F30B02042A17
:1006500001D2042022E0B0FBF1F0401CC0F30B00FB
:100660001CE0A268F2B301EBC10303EB0116431EC9
:10067000B3FBF6F35B1C43F480431B0549D092B3F4
:1006800001EBC10202EB0111401EB0FBF1F0401C76
:10069000C0F30B0040F4804040F400402168CA6978
:1006A0004CF6FF739A431043C861D4E90710014325
:1006B0002068026822F0C00211430160D4E90301FE
:1006C00001432068826848F2FF339A4311438160F6
:1006D000D4E9050108432168CA6822F0FF021043EB
:1006E000C86001E00EE016E02068016841F00101F9
:1006F00001602564202084F83D00256384F83E5085
:10070000002070BD01EB4106431EB3FBF6F35B1CFA
:10071000B3E70120C2E701EB4101401EB0FBF1F05D
:10072000401CC0F30B00B7E7A086010080841E00C8
:1007300000093D0040420F002DE9FF4F83B09A466B
:10074000DDE9119793460446DDF84080FFF72AFF64
:10075000054694F83D00202870D1192301227149E3
:100760002046009501F06EF90028F5D194F83C0080
:10077000012863D0012084F83C0020680168C90783
:1007800003D1016841F0010101602068016821F492
:1007900000610160222084F83D00402084F83E0082
:1007A00000262664C4F82480A4F82A90608D208551
:1007B0005D48E062CDE9007553465A4620460499EB
:1007C00001F048F800287CD1208DD0B1012821D03B
:1007D0000228206824D0416980690090208D032878
:1007E00069D801282BD0514902283B464FF000021E
:1007F000009559D08846204601F024F9002860D1A0
:100800003CE02068416981690091016841F4007110
:10081000016077E02068016821F480610160F0E701
:10082000016821F4806101602068016841F4006181
:100830000160206841698069009063E06FE02A46AA
:100840003946204601F07DF998BB20680069616A4D
:1008500008704EE02068016841F400710160206872
:100860000069616A0870606A401C6062218D491EDF
:100870002185618D491E6185216838E02068016805
:1008800021F48061016020680069616A0870606A13
:10089000401C6062208D401E2085608D401E60855A
:1008A0003B46002241460095204601F0CBF800B9B6
:1008B000D0E706E0FFE72A463946204601F041F935
:1008C00018B1012007B0BDE8F08F20680069616AA7
:1008D0000870606A401C6062218D491E2185618D0F
:1008E000491E618521684A69D24352070AD40969C1
:1008F0000170606A401C6062208D401E2085608D02
:10090000401E6085208D00287FF468AF202084F889
:100910003D0084F83E6084F83C600020D2E702206D
:10092000D0E70000020010000000FFFF04000100FB
:100930002DE9FF4F83B09A46DDE9119793460446AF
:10094000DDF84080FFF72EFE054694F83D00202894
:100950007FD11923012240492046009501F072F809
:10096000002876D194F83C00012872D0012084F848
:100970003C0020680168C90703D1016841F001010A
:1009800001602068016821F400610160212084F881
:100990003D00402084F83E0000262664C4F82480F0
:1009A000A4F82A90608D20852C48E062CDE900757E
:1009B00053465A462046049900F0CAFF70B930E009
:1009C0002A463946204601F0EFF858B1206C042839
:1009D00004D12068016841F400710160012007B072
:1009E000BDE8F08F606A216800780861606A401C89
:1009F0006062218D491E89B22185628D521E6285F9
:100A000022685369DB435B070BD469B1007810613E
:100A1000606A401C6062208D401E2085608D401EF3
:100A20006085208D0028CBD12A463946204600F02B
:100A3000E3FF0028CAD154F83D0B016841F400716E
:100A40000160202004F81E09E67766770020C6E7DB
:100A5000FFE70220C3E70000020010000000FFFFD4
:100A600010B586B0044614216846FFF7E1FB134930
:100A70002068884220D11248016841F002010160DB
:100A80000068694600F002000590C0200090122026
:100A90000190012002900320039004200490094853
:100AA000FFF798FC06481030016841F4001101601E
:100AB000006800F40010059006B010BD005400401E
:100AC0003038024000040240024881680278114434
:100AD000816070471C0000200B4810B5016841F48C
:100AE00000710160016841F480610160016841F4B6
:100AF00080710160032000F06FF8002000F006F81C
:100B000000F024F8002010BD003C024070B50D4DEF
:100B100004464FF47A712878B1FBF0F00A4909686D
:100B2000B1FBF0F000F004FB48B9102C07D2002212
:100B30002146501E00F030F800206C6070BD01208E
:100B400070BD00001C000020280000200A4808B5E5
:100B5000016841F480410160006800F48040009029
:100B60000548001F016841F080510160006800F0F5
:100B70008050009008BD000044380240002809DB86
:100B800000F01F02012191404009800000F1E020A7
:100B9000C0F8001170470000F0B40E4B1B680C4603
:100BA000C3F30223C3F10705042D00D90425191D41
:100BB000072901D2002300E0DB1E012606FA05F119
:100BC000491E214099409E40761E16403143F0BC9C
:100BD00001F096BB0CED00E0064900F00702086842
:100BE0004FF6FF03184040EA0220034A1043086012
:100BF000704700000CED00E00000FA052DE9F04719
:100C00000E46050065D0DFF81481D8F80000F7B271
:100C100000F00F00B04207D288F80070D8F800004A
:100C200000F00F00B04254D128683D4C810712D526
:100C3000400703D5206840F4E05020602878000782
:100C400003D5206840F4604020602068A96820F047
:100C5000F000084320602878C0072DD0304968682C
:100C60000839012812D0022813D0032811D00968AE
:100C7000890700292DDA216821F003010143216051
:100C8000FFF790FC814641F2883A0EE0096889033B
:100C9000EFE709688901ECE7FFF784FCA0EB0901A5
:100CA000514502D90320BDE8F0872068696800F04B
:100CB0000C00B0EB810FEFD1D8F80010404601F0E6
:100CC0000F01B14207D90770006800F00F00B04271
:100CD00001D00120E7E72878400705D52068E968BA
:100CE00020F4E050084320602878000706D52068EB
:100CF000296920F4604040EAC100206000F038F823
:100D00002168084AC1F30311515CC84006490860D4
:100D100006480068FFF7FAFE0020C4E7003C0240E6
:100D20000838024018260008280000202000002073
:100D30000448054900680968044AC1F38221515CEE
:100D4000C8407047280000200838024028260008C4
:100D50000448054900680968044AC1F34231515CFE
:100D6000C8407047280000200838024028260008A4
:100D7000154810B5006810F00C02144813D014493F
:100D8000042A0FD0082A0ED10F4C241F2268236892
:100D900002F03F025B0207D52068C0F38810A0FB79
:100DA000010106E0084610BD2168C1F38811A1FBCE
:100DB00000010023FFF704FA2168C1F30141491C37
:100DC0004900B0FBF1F010BD083802400024F400E7
:100DD00040787D012DE9F84F04006ED02078DFF8CF
:100DE0003C93C007A9F104054AD009F10400016849
:100DF000C1F38101012908D00068C0F381000228F5
:100E00000AD1D9F80000400206D52868800337D5FA
:100E100060680028E1D033E06068B0F5803F10D012
:100E2000B0F5A02F286810D020F480302860286802
:100E300020F4802028606068A8B1FFF7B3FB064665
:100E40000DE0286840F48030F4E740F4802028600A
:100E5000F7E700BFFFF7A6FB801B642873D828685C
:100E60008003F7D50CE0FFF79DFB064605E000BFC9
:100E7000FFF798FB801B6428F0D828688003F7D41C
:100E80002078DFF89C8280074FF0000A3ED5A34807
:100E9000001D016811F00C0F08D00068C0F381003C
:100EA00002280BD1D9F80000400207D42868800737
:100EB00016D5E068012800D112E02BE1E068B8B156
:100EC0000120C8F80000FFF76DFB064605E000BFF3
:100ED000FFF768FB801B0228C0D828688007F7D579
:100EE0002868216920F0F80040EAC10028600DE080
:100EF000C8F800A0FFF756FB064604E0FFF752FBD8
:100F0000801B02281FD828688007F7D420780007A4
:100F100022D5824E83486169703671B1012101602A
:100F2000FFF740FB074604E0FFF73CFBC01B02282D
:100F300009D830688007F7D50EE0C0F800A0FFF7A9
:100F400031FB074605E082E0FFF72CFBC01B0228BF
:100F50007DD830688007F7D42078400768D5DFF85F
:100F6000BCB100270BF13C0BDBF80000C0000BD438
:100F7000DBF8001041F08051CBF80010DBF80000E6
:100F8000012700F080500090674E3068C00510D4F3
:100F9000306840F480703060FFF704FB009005E09B
:100FA000FFF700FB0099401A022850D83068C005AE
:100FB000F6D55A4EA0686C3601280FD00528306847
:100FC00010D020F001003060306820F00400306064
:100FD000A068B8B1FFF7E6FA00900FE0306840F083
:100FE0000100F4E740F004003060F7E7FFF7DAFAB9
:100FF0000099411A41F28830814266D830688007F2
:10100000F4D50EE0FFF7CEFA009007E0FFF7CAFA3A
:101010000099411A41F28830814256D830688007E1
:10102000F4D42FB1DBF8001021F08051CBF8001080
:10103000A069C8B33949091D0968C1F381010229B2
:101040004AD00228504607D0C8F8600000E03CE0D3
:10105000FFF7A8FA04463BE04746C8F86000FFF7F0
:10106000A1FA064605E000BFFFF79CFA801B0228A4
:101070002BD828688001F7D4D4E907010843A16A76
:101080002A4A490802EB0141626A41EA8211084397
:1010900094F82C1040EA0161C9F80010012038666C
:1010A000FFF780FA044606E036E000BFFFF77AFA61
:1010B000001B022809D828688001F7D52CE000BF62
:1010C000FFF770FA001B022802D90320BDE8F88F51
:1010D00028688001F4D41FE00128F7D0D9F8000077
:1010E000E26900F48001914214D1226A00F03F01CC
:1010F00091420FD147F6C071626A0140914209D115
:10110000A26A00F44031914204D1E16A00F07060BB
:10111000884201D00120D9E70020D7E704380240F7
:1011200000004742800E4742007000400000FFFF71
:1011300010B5401EB0F1807F01D3012010BD4FF0EB
:10114000E02460610F21601701F0DAF80020A0614F
:1011500007202061002010BD7047704770B590F8DF
:101160003C20012A32D0012480F83C40022280F841
:101170003D2003685A689D6822F070060A68324371
:101180005A60134B02689A4214D0B2F1804F11D0CA
:10119000104B9A420ED0104B9A420BD00F4B9A42F2
:1011A00008D00F4B9A4205D00E4B9A4202D00E4BFC
:1011B0009A4204D1496825F080031943916080F870
:1011C0003D40002180F83C10084670BD022070BDF3
:1011D000000001400004004000080040000C0040F6
:1011E00000040140004001400018004010B5040018
:1011F00003D094F83D0010B107E0012010BD00209D
:1012000084F83C00204600F00DF8022084F83D00F0
:10121000211D206800F06AFE012084F83D000020B6
:1012200010BD000008B500680B49884212D10B4878
:10123000016841F0020101600068002200F0020034
:10124000009002211D20FFF7A7FCBDE808401D20EB
:10125000FFF794BC08BD0000000400404038024085
:101260000168CA6842F00102CA600068816801F042
:101270000701062903D0016841F001010160002047
:10128000704770B5044690F83C00012817D001253E
:1012900084F83C50022084F83D002068826822F0E7
:1012A000770222F47F4282600868502830D00DDC3B
:1012B00020284DD005DC98B310283BD148E002200F
:1012C00070BD302844D0402834D139E0602828D07F
:1012D000702806D0B0F5805F2CD0B0F5005F29D122
:1012E0000AE0CB68D1E90121206800F063FE2068A4
:1012F000816841F0770109E0CB68D1E901212068DC
:1013000000F058FE2068816841F48041816011E05E
:10131000CA684968206800F05FFE5021206807E035
:1013200016E0CA684968206800F067FE60212068FE
:1013300000F04AFE84F83D50002084F83C0070BD67
:10134000CA684968206800F047FE40212068EFE73E
:10135000226801461046EBE7704770B50446006806
:1013600001694FF00005C943890715D4C168C94315
:10137000890711D4E91E0161012020772068806966
:101380008007204602D0FFF7E7FF04E000F098F85E
:10139000204600F096F8257720680169C94349077F
:1013A00017D4C168C943490713D46FF00401016120
:1013B000022020772068806910F4407F204602D008
:1013C000FFF7CAFF04E000F07BF8204600F079F850
:1013D000257720680169C943090716D4C168C94344
:1013E000090712D46FF008010161042020772068FA
:1013F000C0698007204602D0FFF7AEFF04E000F08E
:101400005FF8204600F05DF8257720680169C94340
:10141000C90617D4C168C943C90613D46FF01001B7
:101420000161082020772068C06910F4407F2046C1
:1014300002D0FFF791FF04E000F042F8204600F0F0
:1014400040F8257720680169C943C90708D1C168F8
:10145000C943C90704D1891E0161204600F032F852
:1014600020680169C943090609D4C168C94309064E
:1014700005D46FF0800101612046FFF76DFE206802
:101480000169C943490609D4C168C943490605D45D
:101490006FF040010161204600F034F820680169D6
:1014A000C94389060BD4C168C943890607D46FF0C4
:1014B000200101612046BDE87040FFF74EBE70BDBF
:1014C0007047704770B500680A49884210D10A4CCD
:1014D0006068401C606032280ADB0025C913074899
:1014E0006560FFF753F806480168890821600560C8
:1014F00070BD00000004004010000020001C0240ED
:101500000C0000207047704770B5026804461068F0
:10151000D168536910F00F0F52D003F0010501F4A8
:1015200090762E435FD0C20705D0CA0503D5E26B83
:1015300042F00102E263420705D5DA0703D0E26B0D
:1015400042F00202E263820705D5DA0703D0E26BBC
:1015500042F00402E263020707D501F020022A43A9
:1015600003D0E26B42F00802E263E26B002A33D060
:10157000800604D5880602D5204600F066FD206866
:101580004069E16BC0F38010090700D428B32046FE
:1015900000F04DFD2068416949061AD5416921F0E6
:1015A00040014161606BA0B11B490165606BFEF7B2
:1015B000D0FE002810D0606B016DBDE87040084778
:1015C000830610D58B060ED52046BDE8704000F08E
:1015D0003CBD2046FFF797FF70BD2046FFF793FF05
:1015E0000020E06370BD030606D50B0604D5204637
:1015F000BDE8704000F008BE4006F3D54806F1D5BE
:10160000D168204621F04001D160202184F83910B2
:1016100000F0D2F870BD00001F20000870B5040073
:1016200004D094F83900002510B106E0012070BD07
:1016300084F83850204600F023F8242084F839003C
:101640002068C16821F40051C160204600F048FDC7
:101650002068016921F4904101612068416921F00D
:101660002A0141612068C16841F40051C160E5630D
:10167000202084F8390084F83A00002070BD000072
:1016800010B586B0044614216846FEF7D1FD18490E
:101690002068884229D117480021026842F01002D0
:1016A0000260006800F010000590124814380268CB
:1016B00042F001020260006800F0010005904FF462
:1016C000C06000900220CDE90101032003900720B3
:1016D000049069460848FEF77DFE0022032125207C
:1016E000FFF75AFA2520FFF749FA06B010BD0000AF
:1016F00000100140443802400000024070472DE9CC
:10170000F843044690F839001F4616460D46202837
:1017100050D1B5B1AEB194F8380001284AD00120BB
:1017200084F838004FF00008C4F83C80212084F889
:101730003900FEF737FFA6848146E68484F83880B6
:1017400026E00120BDE8F883E08C401EE084A0681C
:101750004B46B0F5805F4FF000024FF0800120460D
:10176000009703D000F081FDE8B90DE000F07DFDA9
:10177000C8B928882168C0F308004860206908B10A
:101780006D1C05E0AD1C03E0216815F8010B4860F5
:10179000E08C0028D8D14B460022402120460097FB
:1017A00000F063FD08B10320CCE7202084F8390065
:1017B0000020C7E70220C5E77047FEE72DE9F041AA
:1017C0001D4617460E468046069C0BE03A46781C9E
:1017D000C7B215F8013B3146404600F009F8052034
:1017E000FEF7CAFD641EE4B2F0D2BDE8F08100004D
:1017F0002DE9FF4383B00A4C1746884681460125F0
:1018000006AE20680096CDE9015001233A464146D4
:101810004846FFF78DF80028F3D107B0BDE8F08304
:101820000000002001684A69D24352050FD46FF4CA
:1018300080624A61002140F8301F20224273817388
:10184000026942F004020261017301207047002026
:10185000704700002DE9F84F0446006889460B9D4B
:1018600001689846174641F480610160206801686C
:1018700041F48071016000954FF0011B0022594630
:1018800020460A9B00F0DEF84FF4007A40B1206851
:101890000068C00501D5C4F840A00320BDE8F88F5A
:1018A000216809F0FE0008612B46284920460A9A63
:1018B00000F0FCF8F0BB20684169806900902A467E
:1018C00020460A9900F070F940B1206C04283AD102
:1018D0002068016841F40071016034E0FEB2B8F1A3
:1018E000010F09D02168380A08612A4620460A9962
:1018F00000F05AF90028E8D1206806612A462046FF
:101900000A9900F051F90028DFD12068016841F4FC
:101910008071016000950022594620460A9B00F024
:1019200091F80028B3D1216809F0FF0040F00100D0
:10193000086100E007E02B46044920460A9A00F0BF
:10194000B5F80028AAD00120A8E700000200010095
:101950002DE9F843044600680D46DDE90897016863
:101960009846164641F4807101604B4600224FF0C4
:1019700001112046009700F065F848B12068006822
:10198000C00502D54FF4007020640320BDE8F88341
:10199000216805F0FE0008613B464A46154920468D
:1019A00000F084F888B920684169806900903A465F
:1019B0004946204600F0F8F848B1206C042804D1CC
:1019C0002068016841F4007101600120DEE7F5B292
:1019D000B8F1010F09D02168300A08613A4649463A
:1019E000204600F0E1F80028E7D1206805610020DA
:1019F000CCE700000200010070B516460D46044613
:101A00000DE02046FFF70EFF08B1012070BD681CF5
:101A100005D0FEF7C7FD801BA84207D835B1206866
:101A20004069C0434007ECD4002070BD002044F85A
:101A3000300F20216173A073216941F020012161E1
:101A40002073E2E72DE9F0471E4690460D46044616
:101A5000C1F30747DDF8209008E0701C06D0FEF7C0
:101A6000A1FDA0EB0900B0420FD876B12068012F8C
:101A700018D0806925EA00000004000C14D0002171
:101A80004145EAD00020BDE8F087002044F8300F3F
:101A900020216173A073216941F02001216120732D
:101AA0000120F0E74069E5E70121E9E72DE9F0478A
:101AB0009A4691460E46044600254FF02008C1F391
:101AC000074725E020684069C043400514D42068DA
:101AD000016841F40071016021686FF48060486121
:101AE000256384F83D8084F83E50206C40F004006B
:101AF000206484F83C501FE0B9F1FF3F08D0FEF7A6
:101B000051FDA0EB0A0149450CD8B9F1000F09D0ED
:101B10002068012F13D0806926EA00000004000C21
:101B20000BD0CFE744F8305F84F80D80A5732069AF
:101B300040F02000206125730120BDE8F087406956
:101B4000EAE72DE9F041002590460E46044620279D
:101B500017E04069C043C0060CD454F8301B6FF046
:101B60001000486144F810596777A577206A206211
:101B7000257717E0FEF716FDA0EB0800B04208D865
:101B80003EB120684169C9434906E2D40020BDE85E
:101B9000F08144F8305F6773A573206940F020003E
:101BA000206125730120F2E770B516460D46044604
:101BB0000DE02046FFF736FE08B1012070BD681C1D
:101BC00005D0FEF7EFFC801BA84207D835B120688E
:101BD0004069C0430006ECD4002070BD002044F8EA
:101BE000300F20216173A073216941F02001216130
:101BF0002073E2E72DE9FE43094E0A9D1C46174675
:101C00008846814630680094CDE9015001233A4668
:101C100041464846FEF790FD0028F3D1BDE8FE831B
:101C2000180000202DE9F04786B014216846FEF721
:101C3000FFFA41480024016841F010010160016889
:101C400001F010010591016841F002010160016895
:101C500001F002010591016841F080010160016815
:101C600001F080010591016841F001010160016806
:101C700001F001010591016841F00801016000686F
:101C8000DFF8B88000F008000590002204214046EB
:101C9000FEF783FCDFF8A8904FF40046002231469F
:101CA0004846FEF77AFCDFF89CA0F711002239467F
:101CB0005046FEF772FC01250420CDE90005CDE970
:101CC000025469464046FEF785FB202000901E48DE
:101CD000CDE9010569464046FEF77CFB11200096E0
:101CE000CDE90104694648460394FEF773FB680397
:101CF00000901648CDE9010469465046FEF76AFB9C
:101D0000CDE90075CDE9025469465046FEF762FB05
:101D1000002205211720FEF73FFF1720FEF72EFFB8
:101D2000002204212820FEF737FF2820FEF726FF97
:101D300006B0BDE8F08700003038024000100240D5
:101D4000001C0240000C0240000011100000211095
:101D50000D4810B50B4901600C49416000214FF45A
:101D600080428160C0E9031241618161C161016209
:101D7000FEF71EFC002803D0BDE81040FEF7E8BACD
:101D800010BD00000054004030000020A08601007B
:101D900010B586B00024174800940194029403946F
:101DA00004941349059401605321C0E9011444F6D9
:101DB0002061C0E903148461FFF718FA08B1FEF747
:101DC000C7FA4FF48050009069460A48FFF759FA65
:101DD00008B1FEF7BDFA049404A906480594FFF77C
:101DE000BDF9002801D0FEF7B3FA06B010BD00001F
:101DF00000040040840000200C4810B50A4901602E
:101E00004FF4E1314160002181600C22C160C0E9E2
:101E100004128161C161FFF701FC002803D0BDE815
:101E20001040FEF795BA10BD00100140C40000201C
:101E3000FEE7704770477047FEF746BE30B593B077
:101E400030216846FEF7F4F914210CA8FEF7F0F9EA
:101E50001A480025016841F080510160006800F0D7
:101E6000805011901648016841F48041016000687B
:101E7000022400F4804011900120009000040190A1
:101E80008001CDE90640192008904FF4A870CDE9F3
:101E9000090404200B906846FEF79CFF0CA90F2054
:101EA00081E831004FF4A0500F90E002109005211E
:101EB0000CA8FEF7A3FE13B030BD0000403802406E
:101EC000007000400548016841F470010160034959
:101ED0004FF00060803908607047000088ED00E036
:101EE0000148FFF73ABA000084000020F0B502680C
:101EF000254C264D264E274F274B4FF0804CA042B5
:101F000009D0604507D0A84205D0B04203D0B842FE
:101F100001D0984204D122F0700E4A6842EA0E02C3
:101F2000A0421BD0604519D0A84217D0B04215D0AE
:101F3000B84213D0984211D0184DA8420ED0184D77
:101F4000A8420BD0174DA84208D0174DA84205D083
:101F5000164DA84202D0164DA84203D122F4407576
:101F6000CA682A434D6922F080022A4302608A68C7
:101F7000C2620A688262A04201D0984201D1096916
:101F8000016301214161F0BD0000014000040040F7
:101F900000080040000C00400004014000400140E7
:101FA000004401400048014000180040001C00406F
:101FB0000020004010B5846842EA032224F47F44E4
:101FC0000A432243826010BD826822F070020A43F5
:101FD00042F007018160704710B5036A046A24F07B
:101FE00001040462846924F0F00444EA021423F03A
:101FF0000A020A438461026210BD10B5036A23F02D
:10200000100303628369046A23F4704343EA0232D3
:1020100024F0A00343EA01118261016210BD10B5F2
:10202000806B0021C185C184FFF76DFA10BD016886
:10203000CA6822F49072CA6001684A6922F00102FB
:102040004A61202180F83A10704710B590F83A1094
:10205000222901D0022010BD8168B1F5805F11D026
:102060000169002901681FD0496801F07F03816A76
:102070004A1C82620B70C18D491E0904090CC1857E
:1020800018D02BE00269816A002A0268526805D0E4
:10209000D2B20A80816A491C8162ECE7C2F308026D
:1020A0000A80816A891CF7E74A68816A4B1C83624F
:1020B0000A70E0E70168CA6822F02002CA6001687D
:1020C000CA6822F48072CA6001684A6922F001027B
:1020D0004A61202180F83A10FFF710FB002010BD64
:1020E0002DE9F041044600680169E26821F440519D
:1020F000114301612169A068E269084361691143E4
:1021000008432168CA6849F20C639A430243CA60D3
:1021100020684169A26921F4407111434161E0697D
:10212000192764253226B0F5004F354A3549206815
:102130004FF0000806D0884201D0904236D1FEF719
:1021400007FE35E0884201D0904202D1FEF700FE42
:1021500001E0FEF7EDFD61684A18A0FB070148EBBE
:102160000803FEF72DF80146B0FBF5F00201B1FBC4
:10217000F5F06FF01803584301EB800006EBC00048
:10218000B0FBF5F000F0F80002EB4002B1FBF5F017
:10219000584301EB800006EBC000B0FBF5F000F007
:1021A0000700216810448860BDE8F081FEF7C0FD9B
:1021B00061688B0F8A00A0FB0701FEF701F801465A
:1021C000B0FBF5F06FF01802504301EB800006EB16
:1021D0000010B0FBF5F000F0F002B1FBF5F002EBFF
:1021E0000012B1FBF5F06FF01803584301EB8000CB
:1021F00006EB0010B0FBF5F000F00F00D1E7000097
:10220000001401400010014090F83910212901D03C
:10221000022070478168B1F5805F016A0BD04A1CCB
:102220000262026809785160C18C491E0904090CD8
:10223000C1840ED017E009880268C1F3080151601B
:1022400001690029016A02D0491C0162ECE7891C7E
:10225000FBE70168CA6822F08002CA600068C168B2
:1022600041F04001C160002070472DE9F0419846DF
:1022700017460E460446069D1DE0681C1BD02DB176
:10228000FEF790F9A0EB0800A84214D92068C168B5
:1022900021F4D071C1602068416921F001014161E0
:1022A000202084F8390084F83A00002084F83800AF
:1022B0000320BDE8F0812068006836EA000004D001
:1022C0000020B842D9D00020F3E70120F9E7000050
:1022D0000148FFF719B90000C4000020FEE7000024
:1022E0000FB4054B10B503A9044A029800F028F872
:1022F00010BC5DF814FB0000952400082C000020A1
:102300000907090E002804DB00F1E02080F8001422
:10231000704700F00F0000F1E02080F8141D7047B6
:1023200002E008C8121F08C1002AFAD1704770479E
:10233000002001E001C1121F002AFBD170470000FC
:102340002DE9FF4F89B09B460446002506E025286D
:102350000BD05A460B999047641C6D1C20780028BE
:10236000F5D10DB02846BDE8F08F0027B846012210
:10237000474900E0074314F8013F203B02FA03F00D
:102380000842F7D120782E2819D114F8010F47F010
:1023900004072A280ED06FF02F022078A0F1300118
:1023A00009290CD808EB880102EB410100EB010878
:1023B000641CF2E70A98641C50F8048B0A90207899
:1023C0000028CED0642808D0692806D075281ED0F1
:1023D0005A460B9990476D1C58E00A994FF00A092C
:1023E00001C90A91002802DA40422D2102E0390594
:1023F00004D52B218DF82010012103E0F90704D02A
:102400002021F7E78A4608AE0DE00021FAE70A9995
:102410004FF00A0901C90A91F7E74946FDF713FF92
:10242000303106F8011D0028F7D1ADEB060000F1B0
:102430002009780701D44FF00108C84502DDA8EB58
:10244000090000E000208046002706E008A85A4660
:10245000C05D0B9990476D1C7F1C5745F6DB04E06F
:1024600030205A460B9990476D1CB8F10001A8F135
:102470000108F5DC05E016F8010B5A460B99904768
:102480006D1CB9F10001A9F10109F4DC641C65E7D8
:102490000928010038B50446002000908DF800405E
:1024A0000A23012269460248FFF729F9204638BD70
:1024B000C400002008B5FEF70FFBFFF7BFFCFFF7D5
:1024C000B1FBFFF745FCFFF763FCFFF795FC20A08D
:1024D000FFF706FF002204212648FEF75EF8264893
:1024E000FEF7BEFE264E254C751CB046207801280E
:1024F0002AD1002020700127214B3A466121214832
:102500000097FFF777FB1E4B03225B1C61211D48E0
:102510000097FFF76FFB307848B100F03BF898F870
:10252000021019A0FFF7DCFE3078FDF7D5FE287801
:10253000FF2809D000F05AF898F8021012A0FFF70F
:10254000CFFE2878FDF7C8FE6420FDF715FFCDE724
:102550000A0D2046532D53544D3332BFAAB7A2B0B3
:10256000E5D6B1C1F7B5E7BBFAB2E2CAD4CAB5D174
:10257000E90D0A000010024084000020080000203D
:102580000400002030000020666C6167203D20259B
:10259000640A000014480178152924D2DFE801F00C
:1025A000230B0D0F11232323231315171923232383
:1025B000231B1D1F21000D2114E00F2112E000211B
:1025C00010E00E210EE00C210CE009210AE00821A8
:1025D00008E0072106E00B2104E0062102E00521C6
:1025E00000E0042181707047040000200948017850
:1025F000401EF7290BD0FB2907D0FD2903D0FE2967
:1026000007D10A2104E0032102E0022100E00121B8
:1026100081707047050000200000000000000000ED
:102620000102030406070809000000000102030478
:102630005026000800000020300000002023000881
:102640008026000830000020D80400003023000855
:10265000FFFF00000000000000000000000000007C
:102660000000000000000000FFFF0000010000006B
:1026700010000000000000000024F4000000000032
:040000050800018965
:00000001FF
