:020000040800F2
:10000000680400209D010008EB0C0008490C000862
:10001000E90C0008A9020008E11200080000000035
:10002000000000000000000000000000F5100008C3
:10003000AB02000800000000ED0C0008F7100008FB
:10004000B7010008B7010008B7010008B7010008B0
:10005000B7010008B7010008B7010008B7010008A0
:10006000B7010008B7010008B7010008B701000890
:10007000B7010008B7010008B7010008B701000880
:10008000B7010008B7010008B7010008B701000870
:10009000B7010008B7010008B7010008B701000860
:1000A000B7010008B7010008B7010008B701000850
:1000B000B7010008B7010008B7010008B701000840
:1000C000B7010008B7010008B7010008B701000830
:1000D000B7010008B7010008B7010008B701000820
:1000E000AD020008B7010008B7010008B701000819
:1000F000B7010008B7010008B7010008B701000800
:10010000B7010008B7010008B7010008B7010008EF
:10011000B7010008B7010008B7010008B7010008DF
:10012000B7010008B7010008B7010008B7010008CF
:10013000B7010008B7010008B7010008B7010008BF
:10014000B7010008B7010008B7010008B7010008AF
:10015000B7010008B7010008B7010008B70100089F
:10016000B7010008B7010008B7010008B70100088F
:10017000B7010008B7010008B7010008000000003F
:10018000B7010008B7010008DFF80CD000F07AF8DA
:1001900000480047BD170008680400200648804753
:1001A00006480047FEE7FEE7FEE7FEE7FEE7FEE75C
:1001B000FEE7FEE7FEE7FEE79D1100088901000863
:1001C0002DE9F05F0546002092469B46884606468C
:1001D000814640241BE0284641464746224600F01F
:1001E00041F853465A46C01A914110D31146184659
:1001F000224600F028F82D1A67EB01084F462246E8
:100200000120002100F01FF817EB00094E41201ECD
:10021000A4F10104DFDC484631462A464346BDE8E6
:10022000F09FD2B201E000F8012B491EFBD27047CB
:100230000022F6E710B513460A4604461946FFF7B2
:10024000F0FF204610BD202A04DB203A00FA02F11C
:10025000002070479140C2F1200320FA03F31943B4
:1002600090407047202A04DB203A21FA02F0002156
:10027000704721FA02F3D040C2F1200291400843B6
:1002800019467047064C074D06E0E06840F0010350
:1002900094E8070098471034AC42F6D3FFF778FF94
:1002A0002018000840180008FEE770474FF400408F
:1002B00000F004B8704700F01BBD0000044910B501
:1002C0000A68024202D00860FFF7F5FF10BD000087
:1002D000143C01402DE9F84F00224FF0010803259E
:1002E0004FF00F0E0B6808FA02F42340A3426ED1C0
:1002F0004E68012E05D0022E03D0112E01D0122EF1
:1003000012D186684FEA420C05FA0CF7BE43CF685B
:1003100007FA0CF7374387604668A6430C79C4F3A5
:100320000014944034434460C668570005FA07FC43
:100330008C6826EA0C06BC403443C4604C68022C2E
:1003400001D0122C13D1D40800EB8404A346D4F8B6
:10035000209054074FEAD46A0EFA0AF629EA0609F1
:100360000E6906FA0AF646EA0906CBF82060066826
:100370000C7926EA0C0604F00304BC403443046004
:100380004C68E40065D5364C266846F48046266005
:10039000246822F0030604F480440094314C344471
:1003A000A446D4F808489607370F0EFA07F6B44368
:1003B0002D4EB04201D1002624E02C4EB04201D196
:1003C00001261FE02A4EB04202D102261AE040E088
:1003D000284EB04201D1032614E0274EB04201D18D
:1003E00004260FE0254EB04201D105260AE0244E36
:1003F000B04201D1062605E0224EB04201D10726C7
:1004000000E00826BE402643CCF808681E4E34683B
:100410004F689C43FF0300D51C4334601A4C241DD5
:1004200026684F689E43BF0300D51E432660164EC4
:10043000083634684F689C43FF0200D51C43346083
:10044000114E0C3634684F689C43BF0200D51C43E4
:100450003460521C102AFFF445AFBDE8F88F00004D
:1004600044380240003001400000024000040240D5
:1004700000080240000C024000100240001402403C
:1004800000180240001C0240003C01400069084086
:1004900000D00120704700000148806870470000CC
:1004A000140000200248816802781144816070477E
:1004B000140000200B4810B5016841F40071016080
:1004C000016841F480610160016841F4807101605C
:1004D000032000F071F8002000F006F800F024F886
:1004E000002010BD003C024070B50D4D04464FF495
:1004F0007A712878B1FBF0F00A490968B1FBF0F095
:1005000000F022FB48B9102C07D200222146501ED1
:1005100000F032F800206C6070BD012070BD00005A
:1005200014000020200000200B4882B0016841F434
:1005300080410160006800F4804000900648001F80
:10054000016841F080510160006800F08050009027
:10055000052002B000F030B844380240002809DB22
:1005600000F01F02012191404009800000F1E020CD
:10057000C0F8001170470000F0B40E4B1B680C4629
:10058000C3F30223C3F10705042D00D90425191D67
:10059000072901D2002300E0DB1E012606FA05F13F
:1005A000491E214099409E40761E16403143F0BCC2
:1005B00000F0A8BE0CED00E0064900F00702086854
:1005C0004FF6FF03184040EA0220034A1043086038
:1005D000704700000CED00E00000FA052DE9F0473F
:1005E0000E46050065D0DFF81481D8F80000F7B298
:1005F00000F00F00B04207D288F80070D8F8000071
:1006000000F00F00B04254D128683D4C810712D54C
:10061000400703D5206840F4E050206028780007A8
:1006200003D5206840F4604020602068A96820F06D
:10063000F000084320602878C0072DD03049686852
:100640000839012812D0022813D0032811D00968D4
:10065000890700292DDA216821F003010143216077
:10066000FFF71AFF814641F2883A0EE009688903D4
:10067000EFE709688901ECE7FFF70EFFA0EB09013E
:10068000514502D90320BDE8F0872068696800F071
:100690000C00B0EB810FEFD1D8F80010404601F00C
:1006A0000F01B14207D90770006800F00F00B04297
:1006B00001D00120E7E72878400705D52068E968E0
:1006C00020F4E050084320602878000706D5206811
:1006D000296920F4604040EAC100206000F03EF843
:1006E0002168084AC1F30311515CC84006490860FB
:1006F00006480068FFF7F8FE0020C4E7003C02400F
:1007000008380240081800082000002018000020C7
:100710000148006870470000200000200448054997
:1007200000680968044AC1F38221515CC8407047DF
:100730002000002008380240181800080448054925
:1007400000680968044AC1F34231515CC8407047EF
:10075000200000200838024018180008154810B57D
:10076000006810F00C02144813D01449042A0FD06A
:10077000082A0ED10F4C241F2268236802F03F0282
:100780005B0207D52068C0F38810A0FB010106E0DA
:10079000084610BD2168C1F38811A1FB00010023A8
:1007A000FFF70EFD2168C1F30141491C4900B0FB70
:1007B000F1F010BD083802400024F40040787D01BB
:1007C0002DE9F84F04006ED02078DFF83C93C00785
:1007D000A9F104054AD009F104000168C1F38101BF
:1007E000012908D00068C0F3810002280AD1D9F895
:1007F0000000400206D52868800337D560680028CD
:10080000E1D033E06068B0F5803F10D0B0F5A02FA4
:10081000286810D020F480302860286820F48020D8
:1008200028606068A8B1FFF737FE06460DE028682B
:1008300040F48030F4E740F480202860F7E700BF00
:10084000FFF72AFE801B642873D828688003F7D539
:100850000CE0FFF721FE064605E000BFFFF71CFE97
:10086000801B6428F0D828688003F7D42078DFF84C
:100870009C8280074FF0000A3ED5A348001D016806
:1008800011F00C0F08D00068C0F3810002280BD1D2
:10089000D9F80000400207D42868800716D5E06820
:1008A000012800D112E02BE1E068B8B10120C8F8BE
:1008B0000000FFF7F1FD064605E000BFFFF7ECFD85
:1008C000801B0228C0D828688007F7D528682169CE
:1008D00020F0F80040EAC10028600DE0C8F800A050
:1008E000FFF7DAFD064604E0FFF7D6FD801B02287D
:1008F0001FD828688007F7D42078000722D5824EB9
:1009000083486169703671B101210160FFF7C4FD50
:10091000074604E0FFF7C0FDC01B022809D8306875
:100920008007F7D50EE0C0F800A0FFF7B5FD074639
:1009300005E082E0FFF7B0FDC01B02287DD83068DB
:100940008007F7D42078400768D5DFF8BCB10027CE
:100950000BF13C0BDBF80000C0000BD4DBF80010FF
:1009600041F08051CBF80010DBF80000012700F0C7
:1009700080500090674E3068C00510D4306840F455
:1009800080703060FFF788FD009005E0FFF784FD80
:100990000099401A022850D83068C005F6D55A4E42
:1009A000A0686C3601280FD00528306810D020F0E0
:1009B00001003060306820F004003060A068B8B1F9
:1009C000FFF76AFD00900FE0306840F00100F4E7A7
:1009D00040F004003060F7E7FFF75EFD0099411A30
:1009E00041F28830814266D830688007F4D50EE045
:1009F000FFF752FD009007E0FFF74EFD0099411A06
:100A000041F28830814256D830688007F4D42FB143
:100A1000DBF8001021F08051CBF80010A069C8B3BA
:100A20003949091D0968C1F3810102294AD0022808
:100A3000504607D0C8F8600000E03CE0FFF72CFD0E
:100A400004463BE04746C8F86000FFF725FD064630
:100A500005E000BFFFF720FD801B02282BD8286887
:100A60008001F7D4D4E907010843A16A2A4A49085A
:100A700002EB0141626A41EA8211084394F82C10AA
:100A800040EA0161C9F8001001203866FFF704FD53
:100A9000044606E036E000BFFFF7FEFC001B02281C
:100AA00009D828688001F7D52CE000BFFFF7F4FCD7
:100AB000001B022802D90320BDE8F88F28688001B6
:100AC000F4D41FE00128F7D0D9F80000E26900F45F
:100AD0008001914214D1226A00F03F0191420FD16E
:100AE00047F6C071626A0140914209D1A26A00F4DE
:100AF0004031914204D1E16A00F07060884201D037
:100B00000120D9E70020D7E704380240000047421F
:100B1000800E4742007000400000FFFF4FF0E021D0
:100B20000428086903D020F004000861704740F0F1
:100B30000400FAE703480168002902D00168491E51
:100B4000016070471000002010B5401EB0F1807F9A
:100B500001D3012010BD4FF0E02460610F21601728
:100B600000F0D0FB0020A06107202061002010BD14
:100B700010B5FFF7DFFF10BD70B5040004D094F886
:100B80003900002510B106E0012070BD84F838500E
:100B9000204600F023F8242084F839002068C1683A
:100BA00021F40051C160204600F006FB2068016975
:100BB00021F4904101612068416921F02A014161DD
:100BC0002068C16841F40051C160E563202084F8C9
:100BD000390084F83A00002070BD000010B586B0DE
:100BE000044614216846FFF723FB14492068884215
:100BF00021D113480021026842F01002026000680F
:100C000000F0100005900E481438026842F001020E
:100C10000260006800F0010005904FF4C060009091
:100C20000220CDE9010103200390072004906946CA
:100C30000448FFF74FFB06B010BD00000010014054
:100C40004438024000000240FEE7000000B587B0D3
:100C500014216846FFF7ECFA12480021026842F0BE
:100C600001020260026802F001020592026842F08D
:100C700020020260006800F0200005904FF4004060
:100C800000900948CDE9010169460848FFF722FBB9
:100C9000022211462820FFF76FFC2820FFF75EFC98
:100CA00007B000BD3038024000003110001402408F
:100CB0000C4810B50A4901604FF4E1314160002150
:100CC00081600C22C160C0E904128161C161FFF73B
:100CD00053FF002803D0BDE81040FFF7EBBA10BD6A
:100CE0000010014028000020FEE770477047000018
:100CF0002DE9F0473A4C2078401C20702278394882
:100D0000394D00264FF40041012A0ED022783C27AD
:100D1000022A13D0227804F10C084FF00109032AAB
:100D200018D02278032A27D802E0FFF7AFFB10B1D2
:100D30002670BDE8F08764202860FAE7FFF7A6FB7D
:100D40000028F5D028680228F2D928681228EFD2A6
:100D50002F60EEE7FFF79AFB0028E9D12868052805
:100D600002D928681428F3D328682028E0D92868F5
:100D70002E28DDD226702BE02278442AD8D2FFF725
:100D800085FB0028286806D032281DD928683A2813
:100D90001AD22F6019E0322808D928683A2805D2DB
:100DA0002F60A0684000A060A0680BE02868282899
:100DB0000AD92868302807D22F60A0684000A060B8
:100DC000A068401CA06000E0267020784328B0D1C5
:100DD000A168C8F800102670C4F80490A9E70000C4
:100DE00000000020001402401000002010B55A48F6
:100DF000416800F10C04012967D100214160E078CD
:100E0000A178C943C9B2884270D160782178C943BA
:100E1000C9B28842F8D1617850A000F063FA6078D6
:100E200070286CD025DC402871D011DC1A285BD0EA
:100E300007DC90B3082870D00A284FD018283DD17D
:100E40007AE0282872D032284CD0382836D177E082
:100E5000582850D006DC482863D04A283CD0502877
:100E60002CD150E05A2835D0602846D0682825D1AA
:100E70002EE0C22845D011DC98285FD006DC72280D
:100E800047D0782860D0882818D148E0A8284FD0CB
:100E9000B22840D0B82811D154E011E0E82849D058
:100EA00006DCC82840D0D82821D0DA2806D10DE0A9
:100EB000EA2807D0F02813D0F2281AD030A002E098
:100EC00033A000E034A000F00DFA43E035A0FAE7CB
:100ED00037A0F8E739A0F6E73AA0F4E73CA0F2E73C
:100EE0003EA0F0E740A0EEE742A0ECE72EE044A0F1
:100EF000E9E746A0E7E748A0E5E74AA0E3E74CA01A
:100F0000E1E74EA0DFE74FA0DDE700E005E050A0FD
:100F1000D9E751A0D7E753A0D5E755A0D3E756A00E
:100F2000D1E757A0CFE701E057A0CCE758A0CAE728
:100F300059A0C8E75AA0C6E75BA0C4E75CA0C2E717
:100F40005DA0C0E760A0BEE761A0BCE7216862A029
:100F500000F0C8F9607810BD000000200A0D20499B
:100F6000522052656365697665204B6579436F64ED
:100F700065203D203078253032582C2000000000BC
:100F8000556E6B6E6F776E206B65792100000000E7
:100F90004552524F52202000BFAAB9D8202020200D
:100FA00000000000BEB2D2F420202020000000008B
:100FB000BFD5B0D7202020200000000069202020CD
:100FC00020000000BFECBDF8202020200000000021
:100FD000CAF3B1EA2020202000000000D6B1B2A55B
:100FE0002020202000000000B5E3B2A52020202012
:100FF00000000000D2F4C1BF2D20202020000000FE
:10100000D2F4C1BF2B20202020000000C9E8D6C3A5
:101010002020202000000000B2CBB5A520202020F9
:10102000000000004C454654202020200000000015
:1010300052494748542020202000000055502020CD
:1010400020200000444F574E2020202000000000A8
:101050004F4B202020200000D6F7D2B320202020A4
:1010600000000000B7B5BBD8202020200000000001
:10107000312020202020200032202020202020008D
:101080003320202020202000342020202020200079
:101090003520202020202000362020202020200065
:1010A0003720202020202000382020202020200051
:1010B000392020202020200048544D4C352F466CEC
:1010C0006173682020202000302020202020200074
:1010D000C9BEB3FD202020000A0D204552524F52B8
:1010E0002020202020202020202030782530385833
:1010F00000000000704710B5FFF7D4F9BDE81040BC
:10110000FFF736BD10B592B030216846FFF790F872
:1011100014210CA8FFF78CF81E480024016841F048
:1011200080510160006800F0805011901A480168F9
:1011300041F4804101600068069400F48040119001
:101140000220009001200390102004906846FFF7D1
:1011500037FB0F20CDE90C044FF4A050CDE90E4031
:101160004FF48050109000210CA8FFF737FAFFF7DA
:10117000CFFA42F21071B0FBF1F0FFF7E5FC04206A
:10118000FFF7CCFC00221146501EFFF7F5F912B014
:1011900010BD000040380240007000400548016862
:1011A00041F47001016003494FF00060803908602C
:1011B0007047000088ED00E02DE9F041044600682A
:1011C0000169E26821F44051114301612169A0687D
:1011D000E26908436169114308432168CA6849F21A
:1011E0000C639A430243CA6020684169A26921F4F2
:1011F000407111434161E069192764253226B0F539
:10120000004F354A354920684FF0000806D0884223
:1012100001D0904236D1FFF791FA35E0884201D0F3
:10122000904202D1FFF78AFA01E0FFF777FA61688E
:101230004A18A0FB070148EB0803FEF7C1FF01466F
:10124000B0FBF5F00201B1FBF5F06FF01803584365
:1012500001EB800006EBC000B0FBF5F000F0F800F9
:1012600002EB4002B1FBF5F0584301EB800006EBC6
:10127000C000B0FBF5F000F0070021681044886062
:10128000BDE8F081FFF74AFA61688B0F8A00A0FB86
:101290000701FEF795FF0146B0FBF5F06FF018026D
:1012A000504301EB800006EB0010B0FBF5F000F0BE
:1012B000F002B1FBF5F002EB0012B1FBF5F06FF0BC
:1012C0001803584301EB800006EB0010B0FBF5F06B
:1012D00000F00F00D1E700000014014000100140B1
:1012E000FEE700000FB4054B10B503A9044A0298AD
:1012F00000F028F810BC5DF814FB0000A9170008E6
:10130000240000200907090E002804DB00F1E0207A
:1013100080F80014704700F00F0000F1E02080F822
:10132000141D704702E008C8121F08C1002AFAD134
:1013300070477047002001E001C1121F002AFBD155
:10134000704700002DE9FF4F8DB00F46054600267F
:1013500006E025280BD0DDE90F1290476D1C761CA6
:1013600028780028F5D111B03046BDE8F08F002470
:10137000A246A1460122EC4900E0044315F8013FD2
:10138000203B02FA03F00842F7D128782A2810D02F
:101390006FF02F022878A0F13001092914D80AEB48
:1013A0008A0102EB410144F0020400EB010A6D1CCA
:1013B000F0E701CF5FEA000A03D544F40054CAF114
:1013C000000A44F002046D1C28782E2817D115F865
:1013D000010F44F004042A280ED06FF02F02287861
:1013E000A0F1300109290AD809EB890102EB41017A
:1013F00000EB01096D1CF2E757F8049B6D1C28787F
:101400006C280FD006DC4C2817D068280DD06A282D
:1014100014D104E0742810D07A280FD10DE044F4E0
:1014200000140AE044F4801401E044F440146978A4
:10143000814202D104F580146D1C6D1C2A786E2A3D
:101440001FD00CDC632A31D004DC002A8BD0582A50
:1014500011D1A3E0642A68D0692A0CD165E0732A0F
:101460002ED004DC6F2A73D0702A04D19BE0752A39
:101470006FD0782A6ED01046DDE90F129047761CA7
:1014800050E1C4F30250022806D0032809D00428F2
:1014900001CF09D0066045E101CFF117C0E9006135
:1014A00040E101CF06803DE106703BE117F8040BF7
:1014B0008DF8000000208DF80100EB46012003E0CC
:1014C00057F804BB4FF0FF3061074FF0000102D422
:1014D0000DE008F10101884649450FDA8045F8DB47
:1014E0001BF808100029F4D108E008F10101884632
:1014F0008142FADB1BF808100029F6D1DDE90F2341
:10150000AAEB08008146214600F036F9304400EB92
:10151000080604E0DDE90F121BF8010B9047B8F153
:101520000108F7D221464846F7E00A21C4F30253E6
:101530004FF0000B0891022B04D001CFC117032BF1
:1015400009D00AE0FF1D27F00707F7E8020108E0CD
:1015500032E01FE020E000B2C117042B01D140B2FD
:10156000C117031E71F1000307DA4FF0000CD0EB36
:101570000C006CEB01012D2302E0230504D52B2385
:101580008DF82430012303E0E30701D02023F7E79F
:10159000984658E00A2110E010210EE010204FF08C
:1015A000000B08900CE010214FF0000B44F00404F5
:1015B0004FF00809089103E008214FF0000B089153
:1015C000C4F30253022B04D001CF0021032B06D019
:1015D00006E0FF1D27F00707F7E8020103E080B2ED
:1015E000042B00D1C0B24FF0000823072BD5702A7E
:1015F00007D0DDF820C08CF0100C5CEA0B0C05D095
:101600000EE040238DF82430012308E050EA010366
:1016100006D030238DF824308DF8252002239846FB
:10162000DDF820C08CF0080C5CEA0B0C0BD150EA02
:10163000010301D1630706D530238DF824304FF024
:101640000108A9F10109582A04D038A20B9208AA6E
:101650000A920BE03AA2F9E75B46089AFEF7B0FD62
:101660000B9B9B5C0A9A521E0A92137050EA01026D
:10167000F2D10A98ADEB000000F1200B600702D513
:1016800024F4803401E04FF00109D94502DDA9EBD3
:101690000B0000E0002000EB0B0141440890AAEB96
:1016A000010AE00306D4DDE90F232146504600F08D
:1016B00063F806444FF0000908E009A911F8090091
:1016C000DDE90F12904709F10109761CC145F4DBF1
:1016D000E0030CD5DDE90F232146504600F04CF81D
:1016E000064404E0DDE90F1230209047761C08998B
:1016F000481E08900029F5DC08E00A980A9900784D
:10170000491C0A91DDE90F129047761CBBF10001DC
:10171000ABF1010BF1DC21465046DDE90F2300F06F
:1017200019F806446D1C1BE60928010030313233DC
:10173000343536373839616263646566000000000D
:1017400030313233343536373839414243444546F7
:10175000000000002DE9F041044600251E46174612
:10176000880404D405E039462020B0476D1C641E6F
:10177000F9D52846BDE8F0812DE9F0410446002561
:101780001E469046C80301D5302700E02027880474
:1017900004D505E041463846B0476D1C641EF9D5B6
:1017A0002846BDE8F081000003490A685206FCD5CE
:1017B000C2B24A607047000000100140FEF77AFE96
:1017C000FFF7A0FCFFF742FAFFF772FA03A0FFF75A
:1017D00089FD00BFFFF70AFBFCE700000A0D204669
:1017E000532D53544D3332BFAAB7A2B0E52049520E
:1017F000BAECCDE2CFDFBDD3CAD5CAB5D1E9B3CCFF
:10180000D0F20A0D000000000000000000000000FF
:101810000102030406070809000000000102030496
:1018200040180008000000202800000024130008D1
:101830006818000828000020400400003413000845
:101840000000000000000000000000000000000098
:101850000000000001000000100000000000000077
:081860000024F4000000000068
:040000050800018965
:00000001FF
