:020000040800F2
:10000000C80400209D010008B32400088B0E0008DE
:10001000B1240008A9020008ED2600080000000035
:10002000000000000000000000000000B7240008ED
:10003000AB02000800000000B5240008B924000845
:10004000B7010008B7010008B7010008B7010008B0
:10005000B7010008B7010008B7010008B7010008A0
:10006000B7010008B7010008B7010008B701000890
:10007000B7010008B7010008B7010008B701000880
:10008000B7010008B7010008B7010008B701000870
:10009000B7010008B7010008B7010008B701000860
:1000A000B7010008B7010008B7010008B701000850
:1000B000B7010008B7010008B7010008B701000840
:1000C000B7010008B7010008B7010008B701000830
:1000D000B7010008B7010008B7010008B701000820
:1000E000B7010008B7010008B7010008B701000810
:1000F000B7010008B7010008B7010008B701000800
:10010000B7010008B7010008B7010008B7010008EF
:10011000B7010008B7010008B7010008B7010008DF
:10012000B7010008B7010008B7010008B7010008CF
:10013000B7010008B7010008B7010008B7010008BF
:10014000B7010008B7010008B7010008B7010008AF
:10015000B7010008B7010008B7010008B70100089F
:10016000B7010008B7010008B7010008B70100088F
:10017000B7010008B7010008B7010008000000003F
:10018000B7010008B7010008DFF80CD000F07AF8DA
:1001900000480047692C0008C80400200648804732
:1001A00006480047FEE7FEE7FEE7FEE7FEE7FEE75C
:1001B000FEE7FEE7FEE7FEE74525000889010008A7
:1001C0002DE9F05F0546002092469B46884606468C
:1001D000814640241BE0284641464746224600F01F
:1001E00041F853465A46C01A914110D31146184659
:1001F000224600F028F82D1A67EB01084F462246E8
:100200000120002100F01FF817EB00094E41201ECD
:10021000A4F10104DFDC484631462A464346BDE8E6
:10022000F09FD2B201E000F8012B491EFBD27047CB
:100230000022F6E710B513460A4604461946FFF7B2
:10024000F0FF204610BD202A04DB203A00FA02F11C
:10025000002070479140C2F1200320FA03F31943B4
:1002600090407047202A04DB203A21FA02F0002156
:10027000704721FA02F3D040C2F1200291400843B6
:1002800019467047064C074D06E0E06840F0010350
:1002900094E8070098471034AC42F6D3FFF778FF94
:1002A0002833030848330308FEE77047704700000F
:1002B00070B5B3F5804F05D06FF0704140F8221053
:1002C000002070BD50F82240084B8E891C40D1E9B7
:1002D000003543EA05138D6889692D0245EA064514
:1002E0002B430B43234340F82230E9E70000F0CFD3
:1002F000F0B50C6850F82430114A1340D1E90125BB
:10030000D1E903672A433E4332434E6932438E6943
:100310003243CE6932430E6A32434E6A32438E6AAA
:100320003243CE6A3243CE6B096B32430A431A43DF
:10033000082D01D142F0400240F824200020F0BDF9
:100340008000F0FF30B500EB820250688D8900F02C
:100350004043D1E9000440EA04108C68240244EAD6
:10036000054420430C8A074D05EB045420430C7DC3
:100370006D0105EB0464896920430843184350600C
:10038000002030BD0000F0FF70B5044600F040F9D9
:100390000546601C02D004480078044400F038F997
:1003A000401BA042FAD370BD140000202DE9F0419B
:1003B00086B014216846FFF73BFF214801680029F9
:1003C0003AD14FF00108C0F800801E4800240168AF
:1003D00041F0010101600068022500F00100059074
:1003E0004FF48050CDE9000502AA03260C2782E8CD
:1003F000D0006946144800F02FF84CF23370CDE974
:10040000000502AA694682E8D000104800F024F8EE
:1004100002AA694682E8D000CDE900850C4800F0C8
:100420001BF84FF68070CDE9000502AA694682E804
:10043000D000084800F010F806B0BDE8F0810000D8
:10044000000000203838024000180240000C024032
:1004500000140240001002402DE9F84F00224FF036
:10046000010803254FF00F0E0B6808FA02F4234031
:10047000A3426ED14E68012E05D0022E03D0112E5C
:1004800001D0122E12D186684FEA420C05FA0CF701
:10049000BE43CF6807FA0CF7374387604668A64328
:1004A0000C79C4F30014944034434460C668570088
:1004B00005FA07FC8C6826EA0C06BC403443C4608D
:1004C0004C68022C01D0122C13D1D40800EB840408
:1004D000A346D4F8209054074FEAD46A0EFA0AF6DD
:1004E00029EA06090E6906FA0AF646EA0906CBF871
:1004F000206006680C7926EA0C0604F00304BC4070
:10050000344304604C68E40065D5364C266846F4F4
:1005100080462660246822F0030604F48044009498
:10052000314C3444A446D4F808489607370F0EFAE5
:1005300007F6B4432D4EB04201D1002624E02C4EE4
:10054000B04201D101261FE02A4EB04202D102265C
:100550001AE040E0284EB04201D1032614E0274EB5
:10056000B04201D104260FE0254EB04201D105264C
:100570000AE0244EB04201D1062605E0224EB042E8
:1005800001D1072600E00826BE402643CCF80868C3
:100590001E4E34684F689C43FF0300D51C433460F3
:1005A0001A4C241D26684F689E43BF0300D51E4386
:1005B0002660164E083634684F689C43FF0200D50B
:1005C0001C433460114E0C3634684F689C43BF02A4
:1005D00000D51C433460521C102AFFF445AFBDE81F
:1005E000F88F000044380240003001400000024013
:1005F0000004024000080240000C024000100240CB
:100600000014024000180240001C0240003C01405F
:10061000014880687047000014000020024881688B
:100620000278114481607047140000200B4810B517
:10063000016841F400710160016841F4806101606A
:10064000016841F480710160032000F061F800202E
:1006500000F006F800F024F8002010BD003C024035
:1006600070B50D4D04464FF47A712878B1FBF0F067
:100670000A490968B1FBF0F000F02FFB48B9102CD3
:1006800007D200222146501E00F022F800206C60A4
:1006900070BD012070BD000014000020200000206B
:1006A0000A4808B5016841F480410160006800F41F
:1006B000804000900548001F016841F080510160B2
:1006C000006800F08050009008BD000044380240EF
:1006D000F0B40E4B1B680C46C3F30223C3F10705AD
:1006E000042D00D90425191D072901D2002300E09B
:1006F000DB1E012606FA05F1491E214099409E4065
:10070000761E16403143F0BC02F016B80CED00E046
:10071000064900F0070208684FF6FF03184040EA58
:100720000220034A10430860704700000CED00E00F
:100730000000FA052DE9F0470E46050065D0DFF808
:100740001481D8F80000F7B200F00F00B04207D2D1
:1007500088F80070D8F8000000F00F00B04254D1C3
:1007600028683D4C810712D5400703D5206840F426
:10077000E05020602878000703D5206840F46040EE
:1007800020602068A96820F0F000084320602878E5
:10079000C0072DD0304968680839012812D00228D6
:1007A00013D0032811D00968890700292DDA2168A0
:1007B00021F0030101432160FFF72AFF814641F246
:1007C000883A0EE009688903EFE709688901ECE7D8
:1007D000FFF71EFFA0EB0901514502D90320BDE838
:1007E000F0872068696800F00C00B0EB810FEFD152
:1007F000D8F80010404601F00F01B14207D9077048
:10080000006800F00F00B04201D00120E7E728782F
:10081000400705D52068E96820F4E05008432060CF
:100820002878000706D52068296920F4604040EA4E
:10083000C100206000F038F82168084AC1F30311B4
:10084000515CC8400649086006480068FFF708FF89
:100850000020C4E7003C024008380240103303087F
:10086000200000201800002004480549006809689D
:10087000044AC1F38221515CC84070472000002027
:100880000838024020330308044805490068096815
:10089000044AC1F34231515CC84070472000002037
:1008A0000838024020330308154810B5006810F0DE
:1008B0000C02144813D01449042A0FD0082A0ED170
:1008C0000F4C241F2268236802F03F025B0207D509
:1008D0002068C0F38810A0FB010106E0084610BDA7
:1008E0002168C1F38811A1FB00010023FFF768FC18
:1008F0002168C1F30141491C4900B0FBF1F010BD72
:10090000083802400024F40040787D012DE9F84FBA
:1009100004006ED02078DFF83C93C007A9F10405ED
:100920004AD009F104000168C1F38101012908D00E
:100930000068C0F3810002280AD1D9F80000400203
:1009400006D52868800337D560680028E1D033E0F9
:100950006068B0F5803F10D0B0F5A02F286810D0A7
:1009600020F480302860286820F4802028606068A7
:10097000A8B1FFF74DFE06460DE0286840F4803030
:10098000F4E740F480202860F7E700BFFFF740FE5F
:10099000801B642873D828688003F7D50CE0FFF724
:1009A00037FE064605E000BFFFF732FE801B6428D5
:1009B000F0D828688003F7D42078DFF89C8280077D
:1009C0004FF0000A3ED5A348001D016811F00C0F3E
:1009D00008D00068C0F3810002280BD1D9F80000CC
:1009E000400207D42868800716D5E068012800D1A6
:1009F00012E02BE1E068B8B10120C8F80000FFF771
:100A000007FE064605E000BFFFF702FE801B022836
:100A1000C0D828688007F7D52868216920F0F80039
:100A200040EAC10028600DE0C8F800A0FFF7F0FD23
:100A3000064604E0FFF7ECFD801B02281FD828685B
:100A40008007F7D42078000722D5824E8348616959
:100A5000703671B101210160FFF7DAFD074604E04D
:100A6000FFF7D6FDC01B022809D830688007F7D5EC
:100A70000EE0C0F800A0FFF7CBFD074605E082E0DE
:100A8000FFF7C6FDC01B02287DD830688007F7D469
:100A90002078400768D5DFF8BCB100270BF13C0B8C
:100AA000DBF80000C0000BD4DBF8001041F08051EF
:100AB000CBF80010DBF80000012700F08050009018
:100AC000674E3068C00510D4306840F480703060E4
:100AD000FFF79EFD009005E0FFF79AFD0099401A90
:100AE000022850D83068C005F6D55A4EA0686C363A
:100AF00001280FD00528306810D020F001003060A8
:100B0000306820F004003060A068B8B1FFF780FDC5
:100B100000900FE0306840F00100F4E740F004007E
:100B20003060F7E7FFF774FD0099411A41F2883011
:100B3000814266D830688007F4D50EE0FFF768FD83
:100B4000009007E0FFF764FD0099411A41F28830F8
:100B5000814256D830688007F4D42FB1DBF80010FA
:100B600021F08051CBF80010A069C8B33949091DA4
:100B70000968C1F3810102294AD00228504607D0F2
:100B8000C8F8600000E03CE0FFF742FD04463BE0AF
:100B90004746C8F86000FFF73BFD064605E000BF8A
:100BA000FFF736FD801B02282BD828688001F7D478
:100BB000D4E907010843A16A2A4A490802EB014126
:100BC000626A41EA8211084394F82C1040EA0161FC
:100BD000C9F8001001203866FFF71AFD044606E048
:100BE00036E000BFFFF714FD001B022809D8286873
:100BF0008001F7D52CE000BFFFF70AFD001B02289B
:100C000002D90320BDE8F88F28688001F4D41FE0E2
:100C10000128F7D0D9F80000E26900F48001914280
:100C200014D1226A00F03F0191420FD147F6C07102
:100C3000626A0140914209D1A26A00F440319142B6
:100C400004D1E16A00F07060884201D00120D9E748
:100C50000020D7E70438024000004742800E474298
:100C6000007000400000FFFF70B515460E460400FE
:100C700003D094F8490010B107E0012070BD0020B6
:100C800084F84800204600F01AF804F108012068B2
:100C9000FFF72EFB3146A2682068FFF753FBD4E92B
:100CA00001022946236BFFF703FBA168206850F877
:100CB000212042F0010240F82120002070BDFFF702
:100CC00075BB4FF0E0210428086903D020F0040030
:100CD0000861704740F00400FAE710B5401EB0F11B
:100CE000807F01D3012010BD4FF0E02460610F210F
:100CF000601701F021FD0020A06107202061002085
:100D000010BD70B5040004D094F83900002510B16E
:100D100006E0012070BD84F83850204600F022F82B
:100D2000242084F839002068C16821F40051C16092
:100D3000204601F015FC2068016921F49041016111
:100D40002068416921F02A0141612068C16841F4AD
:100D50000051C160E563202084F8390084F83A002E
:100D6000002070BD10B586B0044614216846FFF718
:100D70005FFA14492068884221D113480021026893
:100D800042F010020260006800F0100005900E486A
:100D90001438026842F001020260006800F00100AD
:100DA00005904FF4C06000900220CDE901010320BE
:100DB00003900720049069460448FFF74DFB06B0F6
:100DC00010BD000000100140443802400000024005
:100DD0002DE9F843044690F839001F4616460D46A3
:100DE000202850D1B5B1AEB194F8380001284AD0CE
:100DF000012084F838004FF00008C4F83C8021201E
:100E000084F83900FFF704FCA6848146E68484F860
:100E1000388026E00120BDE8F883E08C401EE084A5
:100E2000A0684B46B0F5805F4FF000024FF08001A4
:100E30002046009703D001F027FCE8B90DE001F04F
:100E400023FCC8B928882168C0F3080048602069DD
:100E500008B16D1C05E0AD1C03E0216815F8010B1D
:100E60004860E08C0028D8D14B4600224021204623
:100E7000009701F009FC08B10320CCE7202084F89A
:100E800039000020C7E70220C5E7FEE770B50A4930
:100E90000646002408884D8821464543204601F037
:100EA000A9F901F06DFA4FF0D84001E04680641CCA
:100EB000AC42FBD370BD0000B800002070B40C49F8
:100EC0004FF430564FF428520E814FF42C534A8180
:100ED0004FF4F0744FF448758B8128B10D804C802D
:100EE00070BC002001F0C4B80C804D80F8E7000011
:100EF000B80000202DE9FF4F144C8A464FF0000B3C
:100F00000D9D8046A4F806B0A3EB0A0719E000BFC8
:100F1000A4F804B002990AEB0009A1EB08060AE064
:100F2000404435F8022B1FFA89F180B200F010F826
:100F3000A088401CA080A0888642F1DCE088401C8C
:100F4000E080E0888742E3DCBDE8FF8F0C000020F2
:100F500010B5144601F04EF901F012FA4FF0D840E6
:100F6000448010BD2DE9F043434C91460246A088D1
:100F700023460D464FEA1128160A5B89A0F5134156
:100F8000413917D0A0F5A641103913D0A0F5AA41D8
:100F9000103914D02646A0F5C857B1793688B61A4C
:100FA000761E633F25D0A0F5D047043F3DD00129F0
:100FB00051D051E0184601F0DCF930463CE01846CB
:100FC00001F0D7F9304601F0CDF96089401C80B2BC
:100FD00001F0CFF9D0B201F0C5F9A08901F0C9F94B
:100FE000404601F0BFF9A089401C80B201F0C1F970
:100FF0002DE001B9B2B2184601F0BBF9160A30462D
:1010000001F0B0F9D0B201F0ADF9304601F0AAF923
:10101000D0B201F0A7F9A08901F0ABF9404601F088
:10102000A1F9E8B201F09EF90EE0012900D1B2B2B7
:10103000184601F09EF9100A01F094F9D0B201F0BF
:1010400091F9A08901F095F9404601F08BF9E8B2D9
:1010500001F088F908E0B2B21146184601F098F99B
:10106000A089294601F094F94FF0D84021890180E8
:10107000A0F80290BDE8F083B80000202DE9F05FF1
:10108000322001F0B9FD0121002001F081F9322068
:1010900001F0B2FD002000F0E1FFFE4C0146A0800F
:1010A000FDA001F025FBA0884FF6FF75FF2801D3B6
:1010B000A8421DD14FF45A4001F05BF94FF0D842DD
:1010C0005088A0804FF45B4001F053F9907805EA16
:1010D0000020A0804FF45C4001F04BF95088A188BB
:1010E0000843A080B0F5004F02D145F21050A08017
:1010F0004FF02040D0F81C1121F00F01C0F81C1156
:10110000D0F81C1121F47061C0F81C11D0F81C112A
:1011100041F00301C0F81C11D0F81C1141F400711A
:10112000C0F81C11A188E0A001F0E2FA55214FF4AB
:10113000704001F02DF94FF20103AA21184601F089
:1011400027F94FF202045221204601F021F9651CD3
:101150000821284601F01CF9A61C0121304601F0A7
:1011600017F90D214FF4304001F012F90D214BF227
:10117000010001F00DF90D214BF2020001F008F918
:101180004FF436473421384601F002F93421781CF7
:1011900001F0FEF83421B81C01F0FAF84FF43148A0
:1011A0000D21404601F0F4F84BF201190D2148469B
:1011B00001F0EEF80D214BF2021001F0E9F84FF4C6
:1011C000374A3421504601F0E3F84BF2017B3421D9
:1011D000584601F0DDF834214BF2027001F0D8F8E6
:1011E00000214FF4324001F0D3F800214BF20120EE
:1011F00001F0CEF800214BF2022001F0C9F82421C1
:101200004FF4384001F0C4F824214BF6010001F0FE
:10121000BFF824214BF6020001F0BAF801214FF487
:101220003F4001F0B5F80F214FF4334001F0B0F822
:101230000F214BF2013001F0ABF80F214BF20230DD
:1012400001F0A6F834214FF4394001F0A1F834211F
:101250004BF6011001F09CF834214BF6021001F01E
:1012600097F808214FF4354001F092F808214BF22D
:10127000015001F08DF808214BF2025001F088F87E
:1012800003214FF4424001F083F824214FF43A4007
:1012900001F07EF824214BF6012001F079F8242199
:1012A0004BF6022001F074F800214FF43C4001F0AD
:1012B0006FF878214BF6014001F06AF800214BF6F7
:1012C000024001F065F800214FF43D4001F060F864
:1012D00078214BF6015001F05BF800214BF60250EB
:1012E00001F056F800214FF43E4001F051F864211E
:1012F0004BF6016001F04CF800214FF4514001F031
:1013000047F833214DF2011001F042F800214DF26F
:10131000021001F03DF834214DF2031001F038F8CD
:1013200000214DF2041001F033F83A214DF205107E
:1013300001F02EF800214DF2061001F029F84A21A3
:101340004DF2071001F024F800214DF2081001F0D1
:101350001FF85C214DF2091001F01AF800214DF23E
:101360000A1001F015F881214DF20B1001F010F870
:1013700000214DF20C1001F00BF8A6214DF20D10DA
:1013800001F006F800214DF20E1001F001F8E52100
:101390004DF20F1000F0FCFF01214DF2101000F093
:1013A000F7FF13214DF2111000F0F2FF01214DF271
:1013B000121000F0EDFF54214DF2131000F0E8FF81
:1013C00001214DF2141000F0E3FF82214DF21510BF
:1013D00000F0DEFF01214DF2161000F0D9FFCA2106
:1013E0004DF2171000F0D4FF02214DF2181000F05A
:1013F000CFFF00214DF2191000F0CAFF02214DF27B
:101400001A1000F0C5FF01214DF21B1000F0C0FFC3
:1014100002214DF21C1000F0BBFF34214DF21D10D3
:1014200000F0B6FF02214DF21E1000F0B1FF67215F
:101430004DF21F1000F0ACFF02214DF2201000F021
:10144000A7FF84214DF2211000F0A2FF02214DF2EE
:10145000221000F09DFFA4214DF2231000F098FF10
:1014600002214DF2241000F093FFB7214DF2251018
:1014700000F08EFF02214DF2261000F089FFCF21EF
:101480004DF2271000F084FF02214DF2281000F0E9
:101490007FFF11E0B8000020204441542049443A25
:1014A00025780D0A00000000204C43442049443AAE
:1014B00025780D0A00000000DE214DF2291000F011
:1014C00067FF02214DF22A1000F062FFF2214DF277
:1014D0002B1000F05DFF02214DF22C1000F058FFA0
:1014E000FE214DF22D1000F053FF03214DF22E107E
:1014F00000F04EFF10214DF22F1000F049FF0321A4
:101500004DF2301000F044FF33214DF2311000F065
:101510003FFF03214DF2321000F03AFF6D214DF2F2
:10152000331000F035FF00214FF4524000F030FF3F
:1015300033214DF2012000F02BFF00214DF202205B
:1015400000F026FF34214DF2032000F021FF00219E
:101550004DF2042000F01CFF3A214DF2052000F06E
:1015600017FF00214DF2062000F012FF4A214DF234
:10157000072000F00DFF00214DF2082000F008FFC9
:101580005C214DF2092000F003FF00214DF20A20FA
:1015900000F0FEFE81214DF20B2000F0F9FE00214B
:1015A0004DF20C2000F0F4FEA6214DF20D2000F0CB
:1015B000EFFE00214DF20E2000F0EAFEE5214DF293
:1015C0000F2000F0E5FE01214DF2102000F0E0FEBA
:1015D00013214DF2112000F0DBFE01214DF212200B
:1015E00000F0D6FE54214DF2132000F0D1FE01216F
:1015F0004DF2142000F0CCFE82214DF2152000F0B7
:10160000C7FE01214DF2162000F0C2FECA214DF2A4
:10161000172000F0BDFE02214DF2182000F0B8FEA8
:1016200000214DF2192000F0B3FE02214DF21A20E4
:1016300000F0AEFE01214DF21B2000F0A9FE0221B8
:101640004DF21C2000F0A4FE34214DF21D2000F0CC
:101650009FFE02214DF21E2000F09AFE67214DF2FE
:101660001F2000F095FE02214DF2202000F090FE98
:1016700084214DF2212000F08BFE02214DF2222028
:1016800000F086FEA4214DF2232000F081FE02210D
:101690004DF2242000F07CFEB7214DF2252000F011
:1016A00077FE02214DF2262000F072FECF214DF28E
:1016B000272000F06DFE02214DF2282000F068FE88
:1016C000DE214DF2292000F063FE02214DF22A2096
:1016D00000F05EFEF2214DF22B2000F059FE0221B7
:1016E0004DF22C2000F054FEFE214DF22D2000F092
:1016F0004FFE03214DF22E2000F04AFE10214DF244
:101700002F2000F045FE03214DF2302000F040FE76
:1017100033214DF2312000F03BFE03214DF2322007
:1017200000F036FE6D214DF2332000F031FE002135
:101730004FF4534000F02CFE33214DF2013000F005
:1017400027FE00214DF2023000F022FE34214DF23E
:10175000033000F01DFE00214DF2043000F018FEB1
:101760003A214DF2053000F013FE00214DF2063013
:1017700000F00EFE4A214DF2073000F009FE002174
:101780004DF2083000F004FE5C214DF2093000F00B
:10179000FFFD00214DF20A3000F0FAFD81214DF2EB
:1017A0000B3000F0F5FD00214DF20C3000F0F0FDA3
:1017B000A6214DF20D3000F0EBFD00214DF20E3070
:1017C00000F0E6FDE5214DF20F3000F0E1FD0121D2
:1017D0004DF2103000F0DCFD13214DF2113000F01D
:1017E000D7FD01214DF2123000F0D2FD54214DF20F
:1017F000133000F0CDFD01214DF2143000F0C8FD92
:1018000082214DF2153000F0C3FD01214DF216305A
:1018100000F0BEFDCA214DF2173000F0B9FD0221E3
:101820004DF2183000F0B4FD00214DF2193000F0F7
:10183000AFFD02214DF21A3000F0AAFD01214DF258
:101840001B3000F0A5FD02214DF21C3000F0A0FD80
:1018500034214DF21D3000F09BFD02214DF21E306F
:1018600000F096FD67214DF21F3000F091FD02213E
:101870004DF2203000F08CFD84214DF2213000F03B
:1018800087FD02214DF2223000F082FDA4214DF2AD
:10189000233000F07DFD02214DF2243000F078FD70
:1018A000B7214DF2253000F073FD02214DF22630B4
:1018B00000F06EFDCF214DF2273000F069FD0221CE
:1018C0004DF2283000F064FDDE214DF2293000F0A9
:1018D0005FFD02214DF22A3000F05AFDF2214DF257
:1018E0002B3000F055FD02214DF22C3000F050FD60
:1018F000FE214DF22D3000F04BFD03214DF22E3034
:1019000000F046FD10214DF22F3000F041FD032183
:101910004DF2303000F03CFD33214DF2313000F01B
:1019200037FD03214DF2323000F032FD6D214DF2D2
:10193000333000F02DFD00214FF4544000F028FD1D
:1019400033214DF2014000F023FD00214DF2024011
:1019500000F01EFD34214DF2034000F019FD00217E
:101960004DF2044000F014FD3A214DF2054000F024
:101970000FFD00214DF2064000F00AFD4A214DF214
:10198000074000F005FD00214DF2084000F000FD89
:101990005C214DF2094000F0FBFC00214DF20A40B1
:1019A00000F0F6FC81214DF20B4000F0F1FC00212B
:1019B0004DF20C4000F0ECFCA6214DF20D4000F081
:1019C000E7FC00214DF20E4000F0E2FCE5214DF273
:1019D0000F4000F0DDFC01214DF2104000F0D8FC7A
:1019E00013214DF2114000F0D3FC01214DF21240C1
:1019F00000F0CEFC54214DF2134000F0C9FC01214F
:101A00004DF2144000F0C4FC82214DF2154000F06C
:101A1000BFFC01214DF2164000F0BAFCCA214DF284
:101A2000174000F0B5FC02214DF2184000F0B0FC68
:101A300000214DF2194000F0ABFC02214DF21A409A
:101A400000F0A6FC01214DF21B4000F0A1FC022198
:101A50004DF21C4000F09CFC34214DF21D4000F082
:101A600097FC02214DF21E4000F092FC67214DF2DE
:101A70001F4000F08DFC02214DF2204000F088FC58
:101A800084214DF2214000F083FC02214DF22240DE
:101A900000F07EFCA4214DF2234000F079FC0221ED
:101AA0004DF2244000F074FCB7214DF2254000F0C7
:101AB0006FFC02214DF2264000F06AFCCF214DF26E
:101AC000274000F065FC02214DF2284000F060FC48
:101AD000DE214DF2294000F05BFC02214DF22A404C
:101AE00000F056FCF2214DF22B4000F051FC022197
:101AF0004DF22C4000F04CFCFE214DF22D4000F048
:101B000047FC03214DF22E4000F042FC10214DF223
:101B10002F4000F03DFC03214DF2304000F038FC36
:101B200033214DF2314000F033FC03214DF23240BD
:101B300000F02EFC6D214DF2334000F029FC002115
:101B40004FF4554000F024FC33214DF2015000F0D9
:101B50001FFC00214DF2025000F01AFC34214DF21E
:101B6000035000F015FC00214DF2045000F010FC71
:101B70003A214DF2055000F00BFC00214DF20650C9
:101B800000F006FC4A214DF2075000F001FC002154
:101B90004DF2085000F0FCFB5C214DF2095000F0C2
:101BA000F7FB00214DF20A5000F0F2FB81214DF2CB
:101BB0000B5000F0EDFB00214DF20C5000F0E8FB63
:101BC000A6214DF20D5000F0E3FB00214DF20E5026
:101BD00000F0DEFBE5214DF20F5000F0D9FB0121B2
:101BE0004DF2105000F0D4FB13214DF2115000F0D3
:101BF000CFFB01214DF2125000F0CAFB54214DF2EF
:101C0000135000F0C5FB01214DF2145000F0C0FB51
:101C100082214DF2155000F0BBFB01214DF2165010
:101C200000F0B6FBCA214DF2175000F0B1FB0221C3
:101C30004DF2185000F0ACFB00214DF2195000F0AD
:101C4000A7FB02214DF21A5000F0A2FB01214DF238
:101C50001B5000F09DFB02214DF21C5000F098FB40
:101C600034214DF21D5000F093FB02214DF21E5025
:101C700000F08EFB67214DF21F5000F089FB02211E
:101C80004DF2205000F084FB84214DF2215000F0F1
:101C90007FFB02214DF2225000F07AFBA4214DF28D
:101CA000235000F075FB02214DF2245000F070FB30
:101CB000B7214DF2255000F06BFB02214DF226506A
:101CC00000F066FBCF214DF2275000F061FB0221AE
:101CD0004DF2285000F05CFBDE214DF2295000F05F
:101CE00057FB02214DF22A5000F052FBF2214DF237
:101CF0002B5000F04DFB02214DF22C5000F048FB20
:101D0000FE214DF22D5000F043FB03214DF22E50E9
:101D100000F03EFB10214DF22F5000F039FB032163
:101D20004DF2305000F034FB33214DF2315000F0D1
:101D30002FFB03214DF2325000F02AFB6D214DF2B2
:101D4000335000F025FB00214FF4564000F020FBFB
:101D500033214DF2016000F01BFB00214DF20260C7
:101D600000F016FB34214DF2036000F011FB00215E
:101D70004DF2046000F00CFB3A214DF2056000F0DA
:101D800007FB00214DF2066000F002FB4A214DF2F4
:101D9000076000F0FDFA00214DF2086000F0F8FA4B
:101DA0005C214DF2096000F0F3FA00214DF20A6067
:101DB00000F0EEFA81214DF20B6000F0E9FA00210B
:101DC0004DF20C6000F0E4FAA6214DF20D6000F037
:101DD000DFFA00214DF20E6000F0DAFAE5214DF253
:101DE0000F6000F0D5FA01214DF2106000F0D0FA3A
:101DF00013214DF2116000F0CBFA01214DF2126077
:101E000000F0C6FA54214DF2136000F0C1FA01212E
:101E10004DF2146000F0BCFA82214DF2156000F022
:101E2000B7FA01214DF2166000F0B2FACA214DF264
:101E3000176000F0ADFA02214DF2186000F0A8FA28
:101E400000214DF2196000F0A3FA02214DF21A6050
:101E500000F09EFA01214DF21B6000F099FA022178
:101E60004DF21C6000F094FA34214DF21D6000F038
:101E70008FFA02214DF21E6000F08AFA67214DF2BE
:101E80001F6000F085FA02214DF2206000F080FA18
:101E900084214DF2216000F07BFA02214DF2226094
:101EA00000F076FAA4214DF2236000F071FA0221CD
:101EB0004DF2246000F06CFAB7214DF2256000F07D
:101EC00067FA02214DF2266000F062FACF214DF24E
:101ED000276000F05DFA02214DF2286000F058FA08
:101EE000DE214DF2296000F053FA02214DF22A6002
:101EF00000F04EFAF2214DF22B6000F049FA022177
:101F00004DF22C6000F044FAFE214DF22D6000F0FD
:101F10003FFA03214DF22E6000F03AFA10214DF203
:101F20002F6000F035FA03214DF2306000F030FAF6
:101F300033214DF2316000F02BFA03214DF2326073
:101F400000F026FA6D214DF2336000F021FA5521A0
:101F5000A01E00F01DFAAA21184600F019FA52211D
:101F6000204600F015FA0821284600F011FA002159
:101F7000304600F00DFACC21404600F009FA00216D
:101F8000484600F005FA0521384600F001FA7021B4
:101F9000504600F0FDF97021584600F0F9F9012192
:101FA0004FF4384000F0F4F903214BF6010000F043
:101FB000EFF903214BF6020000F0EAF903214BF69A
:101FC000030000F0E5F902214FF43C4000F0E0F995
:101FD00000214BF6014000F0DBF900214BF60240F6
:101FE00000F0D6F9D0214FF4494000F0D1F9022198
:101FF0004CF6011000F0CCF950214CF6021000F024
:10200000C7F950214CF6031000F0C2F950214CF6EC
:10201000041000F0BDF94FF454530021184600F0AD
:10202000B7F90021184600F0B3F955214FF4685074
:1020300000F0AEF94FF4885000F09BF9A02000F0BA
:10204000E9FD4FF4245000F094F90120FEF736FF2B
:10205000BDE8F05F47F67C50FEF718BF10B500F002
:1020600088F9052000F0D6FD4FF0D840408810BD1B
:10207000F0B55F4C002346F60402A18845F2103704
:10208000A1F5134C45F2105541F66316BCF1410C15
:1020900007D0914205D0B94203D0A94201D0B14244
:1020A0007BD1082812D2DFE800F0110406080A0CE0
:1020B0000E1080230AE0402308E0C02306E020231E
:1020C00004E0602302E0A02300E0E023A94202D163
:1020D0004FF4585000E03620B94205D0A94203D051
:1020E000B14201D043F00803914201D143F0020311
:1020F000194600F04DF9A088B0420AD0990621880F
:10210000628802D5914202D303E0914201D9228034
:102110006180A842608941D100F02BF9002000F0D5
:1021200021F96089401C80B200F023F9002000F002
:1021300019F96089801C80B200F01BF92088401ECC
:10214000C0F30F2000F00EF96089C01C80B200F0CF
:1021500010F92078401EC0B200F004F9A08900F008
:1021600008F9002000F0FEF8A089401C80B200F0C1
:1021700000F9002000F0F6F8A089801C80B200F081
:10218000F8F86088401EC0F30F2000F0EBF8A0893B
:10219000C01C80B200F0EDF822E028E000F0E9F881
:1021A000002000F0DFF8002000F0DCF82088401E5E
:1021B000C0F30F2000F0D6F82078401EC0B200F027
:1021C000D1F8A08900F0D5F8002000F0CBF800206D
:1021D00000F0C8F86088401EC0F30F2000F0C2F87D
:1021E000A078BDE8F040401EC0B200F0BBB8F0BD22
:1021F000B800002030B5104A05460C46508900F062
:10220000B8F8280A00F0AEF85089401C80B200F0FF
:10221000B0F8E8B200F0A6F8908900F0AAF8200A19
:1022200000F0A0F89089401C80B200F0A2F8E0B263
:10223000BDE8304000F096B8B80000202DE9FF4F0F
:102240001D460C468A46580700D0012000EBD500F9
:10225000690810FB01F0203A00F0FF09D0B2002617
:10226000DFF898B0029044E00C2D11D0102D14D05E
:10227000182D40D10298224900EBC00001EB8000EC
:102280004FF00008875D38060CD51E4802880DE027
:1022900002981D4900EB4000F0E71C49029801EB51
:1022A0000010EDE70D9828B916484288214600989D
:1022B000FEF758FE7806070E641CBBF80200A4B2B5
:1022C000A04218D9A4EB0A00A84209D100985446AC
:1022D000401C80B20090BBF8001081420BD906E090
:1022E00008F1010000F0FF08B8F1080FCBD3761C0D
:1022F000F6B24E45B8D3BDE8FF8F0000B80000200D
:10230000B42503080C000020501B0308C41F030859
:102310002DE9F84F044600F0FF0910190D46DDE9DC
:102320000AB61FFA80F8581987B24FF0000A12E077
:10233000444503D305EB0B004C4685B2BD420FD29A
:102340005B4629462046CDF800A0FFF777FF04EB57
:102350005B0084B2761C3278A2F120005E28E7D9B7
:10236000BDE8F88F08B5002100914FF0D8414880B2
:1023700008BD08B5002100914FF0D841088008BD84
:1023800002484FF0D841008908807047B80000200B
:102390004FF0D842108051807047000000B587B0E0
:1023A0001C216846FDF744FF16484FF020411022DB
:1023B000016015494160062181600021C160C0E9CA
:1023C00004128161C16113020162C0E90913C16293
:1023D0000163416381634164092000900F200190F3
:1023E00002AB082083E807001120CDE90501002297
:1023F00069460448FEF738FC002801D0FDF756FF77
:1024000007B000BD28000020040100A0194808B54D
:10241000016841F040010160016801F04001009154
:10242000016841F008010160016801F008010091B4
:10243000016841F001010160016801F001010091B2
:10244000016841F020010160016801F02001009164
:10245000016841F080010160016801F08001009194
:10246000016841F010010160006800F01000009068
:1024700008BD0000303802400C4810B50A49016020
:102480004FF4E1314160002181600C22C160C0E95C
:1024900004128161C161FEF734FC002803D0BDE85D
:1024A0001040FDF703BF10BD001001407800002070
:1024B000FEE7704770477047FEF7B0B830B593B08D
:1024C00030216846FDF7B4FE14210CA8FDF7B0FEDC
:1024D0001A480025016841F080510160006800F051
:1024E000805011901648016841F4804101600068F5
:1024F000022400F48040119001200090000401901B
:102500008001CDE90640192008904FF4A870CDE96C
:10251000090404200B906846FEF7F8F90CA90F2077
:1025200081E831004FF4A0500F90E0021090052197
:102530000CA8FEF7FFF813B030BD00004038024091
:10254000007000400548016841F4700101600349D2
:102550004FF00060803908607047000088ED00E0AF
:102560002DE9F041044600680169E26821F4405118
:10257000114301612169A068E2690843616911435F
:1025800008432168CA6849F20C639A430243CA604F
:1025900020684169A26921F4407111434161E069F9
:1025A000192764253226B0F5004F354A3549206891
:1025B0004FF0000806D0884201D0904236D1FEF795
:1025C00063F935E0884201D0904202D1FEF75CF910
:1025D00001E0FEF749F961684A18A0FB070148EBE2
:1025E0000803FDF7EDFD0146B0FBF5F00201B1FB7C
:1025F000F5F06FF01803584301EB800006EBC000C4
:10260000B0FBF5F000F0F80002EB4002B1FBF5F092
:10261000584301EB800006EBC000B0FBF5F000F082
:102620000700216810448860BDE8F081FEF71CF9BE
:1026300061688B0F8A00A0FB0701FDF7C1FD014611
:10264000B0FBF5F06FF01802504301EB800006EB91
:102650000010B0FBF5F000F0F002B1FBF5F002EB7A
:102660000012B1FBF5F06FF01803584301EB800046
:1026700006EB0010B0FBF5F000F00F00D1E7000012
:1026800000140140001001402DE9F0419846174622
:102690000E460446069D1DE0681C1BD02DB1FDF7BB
:1026A000B7FFA0EB0800A84214D92068C16821F444
:1026B000D071C1602068416921F001014161202091
:1026C00084F8390084F83A00002084F838000320A8
:1026D000BDE8F0812068006836EA000004D00020E0
:1026E000B842D9D00020F3E70120F9E7FEE7000067
:1026F0000FB4054B10B503A9044A029800F03CF84A
:1027000010BC5DF814FB0000492C000824000020D8
:102710000FB4084B10B504A902AA039800F02CF8D6
:10272000044602A9002000F058FA204610BC5DF8CB
:1027300014FB0000DB2B00080907090E002804DB4E
:1027400000F1E02080F80014704700F00F0000F165
:10275000E02080F8141D704702E008C8121F08C16D
:10276000002AFAD170477047002001E001C1121F12
:10277000002AFBD1704700002DE9FF4F8DB00F46B6
:102780000546002606E025280BD0DDE90F1290470C
:102790006D1C761C28780028F5D111B03046BDE8B4
:1027A000F08F0024A246A1460122EC4900E0044338
:1027B00015F8013F203B02FA03F00842F7D12878D0
:1027C0002A2810D06FF02F022878A0F130010929B3
:1027D00014D80AEB8A0102EB410144F0020400EB39
:1027E000010A6D1CF0E701CF5FEA000A03D544F44B
:1027F0000054CAF1000A44F002046D1C28782E2807
:1028000017D115F8010F44F004042A280ED06FF0F8
:102810002F022878A0F1300109290AD809EB890193
:1028200002EB410100EB01096D1CF2E757F8049B34
:102830006D1C28786C280FD006DC4C2817D068282F
:102840000DD06A2814D104E0742810D07A280FD152
:102850000DE044F400140AE044F4801401E044F470
:1028600040146978814202D104F580146D1C6D1CFE
:102870002A786E2A1FD00CDC632A31D004DC002AAF
:102880008BD0582A11D1A3E0642A68D0692A0CD1D0
:1028900065E0732A2ED004DC6F2A73D0702A04D12D
:1028A0009BE0752A6FD0782A6ED01046DDE90F12B2
:1028B0009047761C50E1C4F30250022806D003284A
:1028C00009D0042801CF09D0066045E101CFF117F6
:1028D000C0E9006140E101CF06803DE106703BE1C7
:1028E00017F8040B8DF8000000208DF80100EB466E
:1028F000012003E057F804BB4FF0FF3061074FF0B1
:10290000000102D40DE008F10101884649450FDAC3
:102910008045F8DB1BF808100029F4D108E008F125
:10292000010188468142FADB1BF808100029F6D124
:10293000DDE90F23AAEB08008146214600F036F9B5
:10294000304400EB080604E0DDE90F121BF8010B30
:102950009047B8F10108F7D221464846F7E00A212E
:10296000C4F302534FF0000B0891022B04D001CFA7
:10297000C117032B09D00AE0FF1D27F00707F7E86E
:10298000020108E032E01FE020E000B2C117042B92
:1029900001D140B2C117031E71F1000307DA4FF0F5
:1029A000000CD0EB0C006CEB01012D2302E02305A1
:1029B00004D52B238DF82430012303E0E30701D055
:1029C0002023F7E7984658E00A2110E010210EE096
:1029D00010204FF0000B08900CE010214FF0000B7E
:1029E00044F004044FF00809089103E008214FF077
:1029F000000B0891C4F30253022B04D001CF002135
:102A0000032B06D006E0FF1D27F00707F7E80201B9
:102A100003E080B2042B00D1C0B24FF000082307BE
:102A20002BD5702A07D0DDF820C08CF0100C5CEAA2
:102A30000B0C05D00EE040238DF82430012308E074
:102A400050EA010306D030238DF824308DF825207C
:102A500002239846DDF820C08CF0080C5CEA0B0CD1
:102A60000BD150EA010301D1630706D530238DF85D
:102A700024304FF00108A9F10109582A04D038A2E6
:102A80000B9208AA0A920BE03AA2F9E75B46089A71
:102A9000FDF796FB0B9B9B5C0A9A521E0A921370E1
:102AA00050EA0102F2D10A98ADEB000000F1200BD0
:102AB000600702D524F4803401E04FF00109D945C4
:102AC00002DDA9EB0B0000E0002000EB0B0141440C
:102AD0000890AAEB010AE00306D4DDE90F232146A2
:102AE000504600F063F806444FF0000908E009A9D9
:102AF00011F80900DDE90F12904709F10109761C70
:102B0000C145F4DBE0030CD5DDE90F232146504637
:102B100000F04CF8064404E0DDE90F123020904745
:102B2000761C0899481E08900029F5DC08E00A98F0
:102B30000A990078491C0A91DDE90F129047761C2A
:102B4000BBF10001ABF1010BF1DC21465046DDE9A0
:102B50000F2300F019F806446D1C1BE6092801003C
:102B60003031323334353637383961626364656603
:102B700000000000303132333435363738394142C5
:102B800043444546000000002DE9F041044600257D
:102B90001E461746880404D405E039462020B04775
:102BA0006D1C641EF9D52846BDE8F0812DE9F04181
:102BB000044600251E469046C80301D5302700E094
:102BC0002027880404D505E041463846B0476D1CEF
:102BD000641EF9D52846BDE8F0810A68531C0B60D5
:102BE0001070704710B504460420FEF76AF80148DB
:102BF000047010BD0800002070B5054600244FF495
:102C00007A7603E0304600F005F8641CAC42F9D354
:102C100070BD000070B54FF0E024002265690949DD
:102C2000A36909784843A1699942FCD002D2A3EB79
:102C3000010302E0A5EB010633441A440B4682422D
:102C4000F1D370BD0800002038B504460020009084
:102C50008DF800400A23012269460248FEF7B8F8C1
:102C6000204638BD7800002086B0FDF7DFFCFFF776
:102C700025FCFFF7CBFBFFF791FBFFF7FDFBA8203F
:102C8000FFF7B0FFFEF7FAF921491F20088021481D
:102C900021A1828802A8FFF73BFD182420A0CDE9DE
:102CA00000402346D22228211E20FFF731FB1025A9
:102CB0001FA0CDE900502B46C82246211E20FFF759
:102CC00027FB1EA0CDE900401823C8224FF4D27183
:102CD000AA20FFF71DFB02A8CDE900501023C8224F
:102CE0006E211E20FFF714FB4FF4FA60FDF74CFB3A
:102CF0004FF6FF70FEF7CAF8144800904FF4FA73CD
:102D00004FF4F0724FF496710020FEF7F3F8FEE7EF
:102D10000C000020B800002049443A253034580007
:102D200053544D333246343037494754360000004F
:102D30005446544C434420544553540046535F5426
:102D400046544C43445F56312E300000502D00084D
:102D5000FFFFFFFFFFFFFFFFFFFFFFFFFFFFFFFF83
:102D6000FFFFFFFFFFFFFFFFFFFFFFFFFFFFFFFF73
:102D7000FFFFFFFFFFFFFFFFFFFFFFFFFFFFFFFF63
:102D8000FFFFFFFFFFFFFFFFFFFFFFFFFFFFFFFF53
:10A97000FFFFFFFFFFFF5CFF98F698F698F698F64A
:10A9800098F698F698F698F698F698F698F698F657
:10A9900098F698F698F698F698F61BF7FFFFFFFFE3
:10A9A000FFFFFFFFFFFFDFFF98F698F698F698F697
:10A9B00098F698F698F698F698F698F698F698F627
:10A9C00098F698F698F6BEFFFFFFFFFFFFFFFFFF28
:10A9D000FFFFFFFFFFFFD9F698F698F698F698F676
:10A9E00098F698F698F698F698F698F698F698F6F7
:10A9F00098F698F698F698F6B9F6DFFFFFFFFFFF96
:10AA0000FFFFFFFFFFFFFFFFFFFFFFFFFFFFFFFF56
:10AA1000FFFFFFFFFFFFFFFFFFFFFFFF98F678F646
:10AA200078F678F678F678F678F678F678F678F6B6
:10AA300078F678F678F678F678F678F69DFFFFFFE8
:10AA4000FFFFFFFFFFFFFFFFFFFFFFFFFFFFFFFF16
:10AA5000FFFFFFFFFFFFFFFFFFFFFFFFFFFFFFFF06
:10AA6000FFFFFFFFFFFFFFFFFFFFFFFFFFFFFFFFF6
:10AA7000FFFFFFFFFFFFFFFFFFFFFFFFFFFFFFFFE6
:10AA80009DFF98F698F698F698F698F698F698F648
:10AA900098F698F698F698F698F698F698F698F646
:10AAA00098F61AF7FFFFFFFFFFFFFFFFFFFFFFFF13
:10AAB000FFFFFFFFFFFFFFFFFFFFFFFFFFFFFFFFA6
:10AAC000FFFFFFFFFFFFFFFFFFFFFFFFFFFFFFFF96
:10AAD000FFFFFFFFFFFFFFFFFFFFFFFFFFFFFFFF86
:10AAE000FFFFFFFFFFFFFFFFFFFFFFFFFFFFFFFF76
:10AAF000FFFFFFFFFFFFFFFFFAF698F698F698F6C4
:10AB000098F698F698F698F698F698F698F698F6D5
:10AB100098F698F698F698F61BF7FFFFFFFFFFFFF1
:10AB2000FFFFFFFFFFFFFFFFFFFFFFFF98F698F615
:10AB300098F698F698F698F698F698F698F698F6A5
:10AB400098F698F698F698F698F698F698F698F695
:10AB500098F698F698F698F698F698F698F698F685
:10AB600098F698F698F698F698F698F698F698F675
:10AB700098F698F698F698F698F698F698F698F665
:10AB800098F698F698F698F698F698F698F698F655
:10AB900098F698F698F698F698F698F698F698F645
:10ABA00098F698F698F698F698F698F6FAF6FFFF63
:10ABB000FFFFFFFFFFFFFFFFFFFFFFFFFFFFFFFFA5
:10ABC000FFFFFFFFFFFFFFFFFFFFFFFFFFFFFFFF95
:10ABD000FFFFFFFFFFFFFFFFB9F698F698F698F624
:10ABE00098F698F698F698F698F698F698F698F6F5
:10ABF00098F698F698F698F698F698F698F698F6E5
:10AC000098F698F698F698F698F698F698F698F6D4
:10AC100098F698F698F698F698F698F698F698F6C4
:10AC200098F678F678F678F678F678F678F678F694
:10AC300078F678F678F678F678F678F678F678F6A4
:10AC400078F678F678F678F678F678F678F678F694
:10AC500078F678F678F678F678F678F678F678F684
:10AC600078F678F678F678F678F678F678F678F674
:10AC700078F6FAF6FFFFFFFFFFFFFFFFFFFFFFFF82
:10AC8000FFFFFFFFFFFFFFFFFFFFFFFFFFFFFFFFD4
:10AC9000FFFFFFFFFFFFFFFFFFFFFFFFFFFFFFFFC4
:10ACA000FFFFFFFFFFFFFFFFFFFFFFFFFFFFFFFFB4
:10ACB000FFFFFFFFFFFFFFFFFFFFFFFFFFFFFFFFA4
:10ACC000FFFFFFFFFFFFFFFFFFFFFFFFFFFFFFFF94
:10ACD000FFFFFFFFFFFFFFFFFFFFFFFFFFFFFFFF84
:10ACE000FFFFFFFFFFFFFFFFFFFFFFFFFFFFFFFF74
:10ACF000FFFFFFFFFFFFFFFFFFFFFFFFFFFFFFFF64
:10AD0000FFFFFFFFFFFFFFFFFFFFFFFFFFFFFFFF53
:10AD1000FFFFFFFFFFFFFFFFFFFFFFFFFFFFFFFF43
:10AD2000FFFFFFFFFFFFFFFFFFFFFFFFFFFFFFFF33
:10AD3000FFFFFFFF3BF726D243C943C943C943C9BD
:10AD400043C943C943C943C943C943C943C943C9A3
:10AD500043C943C943C943C946D27DFFFFFFFFFF33
:10AD6000FFFFFFFFFFFFBEFF43C943C943C943C9FC
:10AD700043C943C943C943C943C943C943C943C973
:10AD800043C943C943C9DAF6FFFFFFFFFFFFFFFFD7
:10AD9000FFFFDFFFAFE444C943C943C943C943C907
:10ADA00043C943C943C943C943C943C943C943C943
:10ADB00043C943C943C964C98FE4FFFFFFFFFFFFD5
:10ADC000FFFFFFFFFFFFFFFFFFFFFFFFFFFFFFFF93
:10ADD000FFFFFFFFFFFFFFFFFFFFFFFFA5C923C925
:10ADE00023C923C923C923C923C923C923C923C903
:10ADF00023C923C923C923C923C923C9B8F6FFFF1F
:10AE0000FFFFFFFFFFFFFFFFFFFFFFFFFFFFFFFF52
:10AE1000FFFFFFFFFFFFFFFFFFFFFFFFFFFFFFFF42
:10AE2000FFFFFFFFFFFFFFFFFFFFFFFFFFFFFFFF32
:10AE3000FFFFFFFFFFFFFFFFFFFFFFFFFFFFFFFF22
:10AE40004DDC43C943C943C943C943C943C943C985
:10AE500043C943C943C943C943C943C943C943C992
:10AE600043C990E4FFFFFFFFFFFFFFFFFFFFFFFF6E
:10AE7000FFFFFFFFFFFFFFFFFFFFFFFFFFFFFFFFE2
:10AE8000FFFFFFFFFFFFFFFFFFFFFFFFFFFFFFFFD2
:10AE9000FFFFFFFFFFFFFFFFFFFFFFFFFFFFFFFFC2
:10AEA000FFFFFFFFFFFFFFFFFFFFFFFFFFFFFFFFB2
:10AEB000FFFFFFFFFFFFFFFFC9D243C943C943C9DB
:10AEC00043C943C943C943C943C943C943C943C922
:10AED00043C943C943C943C9EEDBFFFFFFFFFFFF7F
:10AEE000FFFFFFFFFFFFFFFFFFFFBEFF43C943C997
:10AEF00043C943C943C943C943C943C943C943C9F2
:10AF000043C943C943C943C943C943C943C943C9E1
:10AF100043C943C943C943C943C943C943C943C9D1
:10AF200043C943C943C943C943C943C943C943C9C1
:10AF300043C943C943C943C943C943C943C943C9B1
:10AF400043C943C943C943C943C943C943C943C9A1
:10AF500043C943C943C943C943C943C943C943C991
:10AF600043C943C943C943C943C943C9EBDBFFFFD5
:10AF7000FFFFFFFFFFFFFFFFFFFFFFFFFFFFFFFFE1
:10AF8000FFFFFFFFFFFFFFFFFFFFFFFFFFFFFFFFD1
:10AF9000FFFFFFFFFFFFDFFF43C943C943C943C9A9
:10AFA00043C943C943C943C943C943C943C943C941
:10AFB00043C943C943C943C943C943C943C943C931
:10AFC00043C943C943C943C943C943C943C943C921
:10AFD00043C943C943C943C943C943C943C943C911
:10AFE00043C943C923C923C923C923C923C923C9C1
:10AFF00023C923C923C923C923C923C923C923C9F1
:10B0000023C923C923C923C923C923C923C923C9E0
:10B0100023C923C923C923C923C923C923C923C9D0
:10B0200023C923C923C923C923C923C923C923C9C0
:10B0300023C90BDCFFFFFFFFFFFFFFFFFFFFFFFF49
:10B04000FFFFFFFFFFFFFFFFFFFFFFFFFFFFFFFF10
:10B05000FFFFFFFFFFFFFFFFFFFFFFFFFFFFFFFF00
:10B06000FFFFFFFFFFFFFFFFFFFFFFFFFFFFFFFFF0
:10B07000FFFFFFFFFFFFFFFFFFFFFFFFFFFFFFFFE0
:10B08000FFFFFFFFFFFFFFFFFFFFFFFFFFFFFFFFD0
:10B09000FFFFFFFFFFFFFFFFFFFFFFFFFFFFFFFFC0
:10B0A000FFFFFFFFFFFFFFFFFFFFFFFFFFFFFFFFB0
:10B0B000FFFFFFFFFFFFFFFFFFFFFFFFFFFFFFFFA0
:10B0C000FFFFFFFFFFFFFFFFFFFFFFFFFFFFFFFF90
:10B0D000FFFFFFFFFFFFFFFFFFFFFFFFFFFFFFFF80
:10B0E000FFFFFFFFFFFFFFFFFFFFFFFFFFFFFFFF70
:10B0F000FFFF1BF706D223C923C923C923C923C9CC
:10B1000023C923C923C923C923C923C923C923C9DF
:10B1100023C923C923C967D29DFFFFFFFFFFFFFF9C
:10B12000FFFFFFFFFFFF9EFF23C923C923C923C9D8
:10B1300023C923C923C923C923C923C923C923C9AF
:10B1400023C923C923C91BF7FFFFFFFFFFFFFFFF31
:10B15000BEFFACDB23C923C923C923C923C923C923
:10B1600023C923C923C923C923C923C923C923C97F
:10B1700023C923C944C932E5FFFFFFFFFFFFFFFFDB
:10B18000FFFFFFFFFFFFFFFFFFFFFFFFFFFFFFFFCF
:10B19000FFFFFFFFFFFFFFFFFFFFFFFF84C923C982
:10B1A00023C923C923C923C923C923C923C923C93F
:10B1B00023C923C923C923C923C923C91AF7FFFFF8
:10B1C000FFFFFFFFFFFFFFFFFFFFFFFFFFFFFFFF8F
:10B1D000FFFFFFFFFFFFFFFFFFFFFFFFFFFFFFFF7F
:10B1E000FFFFFFFFFFFFFFFFFFFFFFFFFFFFFFFF6F
:10B1F000FFFFFFFFFFFFFFFFFFFFFFFFFFFFFFFF5F
:10B20000C5C923C923C923C923C923C923C923C93C
:10B2100023C923C923C923C923C923C923C923C9CE
:10B2200023C916EEFFFFFFFFFFFFFFFFFFFFFFFF3A
:10B23000FFFFFFFFFFFFFFFFFFFFFFFFFFFFFFFF1E
:10B24000FFFFFFFFFFFFFFFFFFFFFFFFFFFFFFFF0E
:10B25000FFFFFFFFFFFFFFFFFFFFFFFFFFFFFFFFFE
:10B26000FFFFFFFFFFFFFFFFFFFFFFFFFFFFFFFFEE
:10B27000FFFFFFFFFFFFFFFF68D223C923C923C9D8
:10B2800023C923C923C923C923C923C923C923C95E
:10B2900023C923C923C923C970E4FFFFFFFFFFFFB0
:10B2A000FFFFFFFFFFFFFFFFFFFF7CFF23C923C955
:10B2B00023C923C923C923C923C923C923C923C92E
:10B2C00023C923C923C923C923C923C923C923C91E
:10B2D00023C923C923C923C923C923C923C923C90E
:10B2E00023C923C923C923C923C923C923C923C9FE
:10B2F00023C923C923C923C923C923C923C923C9EE
:10B3000023C923C923C923C923C923C923C923C9DD
:10B3100023C923C923C923C923C923C923C923C9CD
:10B3200023C923C923C923C923C923C9CFE4FFFFE4
:10B33000FFFFFFFFFFFFFFFFFFFFFFFFFFFFFFFF1D
:10B34000FFFFFFFFFFFFFFFFFFFFFFFFFFFFFFFF0D
:10B35000FFFFFFFFFFFF5CFF23C923C923C923C9E8
:10B3600023C923C923C923C923C923C923C923C97D
:10B3700023C923C923C923C923C923C923C923C96D
:10B3800023C923C923C923C923C923C923C923C95D
:10B3900023C923C923C923C923C923C923C923C94D
:10B3A00023C923C923C923C923C923C923C923C93D
:10B3B00023C923C923C923C923C923C923C923C92D
:10B3C00023C923C923C923C923C923C923C923C91D
:10B3D00023C923C923C923C923C923C923C923C90D
:10B3E00023C923C923C923C923C923C923C923C9FD
:10B3F00023C910E5FFFFFFFFFFFFFFFFFFFFFFFF78
:10B40000FFFFFFFFFFFFFFFFFFFFFFFFFFFFFFFF4C
:10B41000FFFFFFFFFFFFFFFFFFFFFFFFFFFFFFFF3C
:10B42000FFFFFFFFFFFFFFFFFFFFFFFFFFFFFFFF2C
:10B43000FFFFFFFFFFFFFFFFFFFFFFFFFFFFFFFF1C
:10B44000FFFFFFFFFFFFFFFFFFFFFFFFFFFFFFFF0C
:10B45000FFFFFFFFFFFFFFFFFFFFFFFFFFFFFFFFFC
:10B46000FFFFFFFFFFFFFFFFFFFFFFFFFFFFFFFFEC
:10B47000FFFFFFFFFFFFFFFFFFFFFFFFFFFFFFFFDC
:10B48000FFFFFFFFFFFFFFFFFFFFFFFFFFFFFFFFCC
:10B49000FFFFFFFFFFFFFFFFFFFFFFFFFFFFFFFFBC
:10B4A000FFFFFFFFFFFFFFFFFFFFFFFFFFFFFFFFAC
:10B4B000FAF6E5C923C923C923C923C923C923C966
:10B4C00023C923C923C923C923C923C923C923C91C
:10B4D00023C923C9A8D29EFFFFFFFFFFFFFFFFFF85
:10B4E000FFFFFFFFFFFF9DFF23C923C923C923C916
:10B4F00023C923C923C923C923C923C923C923C9EC
:10B5000023C923C923C93BF7FFFFFFFFFFFF5CFFF0
:10B51000C9D223C923C923C923C923C923C923C91C
:10B5200023C923C923C923C923C923C923C923C9BB
:10B5300023C964C9D5EDFFFFFFFFFFFFFFFFFFFF3A
:10B54000FFFFFFFFFFFFFFFFFFFFFFFFFFFFFFFF0B
:10B55000FFFFFFFFFFFFFFFFFFFFFFFF64C923C9DE
:10B5600023C923C923C923C923C923C923C923C97B
:10B5700023C923C923C923C923C923C97DFFFFFFC9
:10B58000FFFFFFFFFFFFFFFFFFFFFFFFFFFFFFFFCB
:10B59000FFFFFFFFFFFFFFFFFFFFFFFFFFFFFFFFBB
:10B5A000FFFFFFFFFFFFFFFFFFFFFFFFFFFFFFFFAB
:10B5B000FFFFFFFFFFFFFFFFFFFFFFFFFFFFFFFF9B
:10B5C00044C923C923C923C923C923C923C923C9FA
:10B5D00023C923C923C923C923C923C923C923C90B
:10B5E00023C97CFFFFFFFFFFFFFFFFFFFFFFFFFF00
:10B5F000FFFFFFFFFFFFFFFFFFFFFFFFFFFFFFFF5B
:10B60000FFFFFFFFFFFFFFFFFFFFFFFFFFFFFFFF4A
:10B61000FFFFFFFFFFFFFFFFFFFFFFFFFFFFFFFF3A
:10B62000FFFFFFFFFFFFFFFFFFFFFFFFFFFFFFFF2A
:10B63000FFFFFFFFFFFFFFFF26D223C923C923C956
:10B6400023C923C923C923C923C923C923C923C99A
:10B6500023C923C923C923C911E5FFFFFFFFFFFF4A
:10B66000FFFFFFFFFFFFFFFFFFFF3BF723C923C9DA
:10B6700023C923C923C923C923C923C923C923C96A
:10B6800023C923C923C923C923C923C923C923C95A
:10B6900023C923C923C923C923C923C923C923C94A
:10B6A00023C923C923C923C923C923C923C923C93A
:10B6B00023C923C923C923C923C923C923C923C92A
:10B6C00023C923C923C923C923C923C923C923C91A
:10B6D00023C923C923C923C923C923C923C923C90A
:10B6E00023C923C923C923C923C923C9D4EDFFFF13
:10B6F000FFFFFFFFFFFFFFFFFFFFFFFFFFFFFFFF5A
:10B70000FFFFFFFFFFFFFFFFFFFFFFFFFFFFFFFF49
:10B71000FFFFFFFFFFFFD9F623C923C923C923C9B0
:10B7200023C923C923C923C923C923C923C923C9B9
:10B7300023C923C923C923C923C923C923C923C9A9
:10B7400023C923C923C923C923C923C923C923C999
:10B7500023C923C923C923C923C923C923C923C989
:10B7600023C923C923C923C923C923C923C923C979
:10B7700023C923C923C923C923C923C923C923C969
:10B7800023C923C923C923C923C923C923C923C959
:10B7900023C923C923C923C923C923C923C923C949
:10B7A00023C923C923C923C923C923C923C923C939
:10B7B00023C935EEFFFFFFFFFFFFFFFFFFFFFFFF86
:10B7C000FFFFFFFFFFFFFFFFFFFFFFFFFFFFFFFF89
:10B7D000FFFFFFFFFFFFFFFFFFFFFFFFFFFFFFFF79
:10B7E000FFFFFFFFFFFFFFFFFFFFFFFFFFFFFFFF69
:10B7F000FFFFFFFFFFFFFFFFFFFFFFFFFFFFFFFF59
:10B80000FFFFFFFFFFFFFFFFFFFFFFFFFFFFFFFF48
:10B81000FFFFFFFFFFFFFFFFFFFFFFFFFFFFFFFF38
:10B82000FFFFFFFFFFFFFFFFFFFFFFFFFFFFFFFF28
:10B83000FFFFFFFFFFFFFFFFFFFFFFFFFFFFFFFF18
:10B84000FFFFFFFFFFFFFFFFFFFFFFFFFFFFFFFF08
:10B85000FFFFFFFFFFFFFFFFFFFFFFFFFFFFFFFFF8
:10B86000FFFFFFFFFFFFFFFFFFFFFFFFFFFFB9F637
:10B87000C5C923C923C923C923C923C923C923C9C6
:10B8800023C923C923C923C923C923C923C923C958
:10B8900023C90AD3BEFFFFFFFFFFFFFFFFFFFFFF2C
:10B8A000FFFFFFFFFFFF9DFF23C923C923C923C952
:10B8B00023C923C923C923C923C923C923C923C928
:10B8C00023C923C923C97CFFFFFFFFFFFAF626D255
:10B8D00023C923C923C923C923C923C923C923C908
:10B8E00023C923C923C923C923C923C923C923C9F8
:10B8F000C5C978F6FFFFFFFFFFFFFFFFFFFFFFFF58
:10B90000FFFFFFFFFFFFFFFFFFFFFFFFFFFFFFFF47
:10B91000FFFFFFFFFFFFFFFFFFFFFFFF44C923C93A
:10B9200023C923C923C923C923C923C923C923C9B7
:10B9300023C923C923C923C923C923C9DFFFFFFFA3
:10B94000FFFFFFFFFFFFFFFFFFFF52E5ABDBABDBBE
:10B95000ABDBABDBABDBABDBABDBABDBABDBABDBB7
:10B96000ABDBABDBABDBABDBABDBABDBABDBABDBA7
:10B97000ABDBABDBABDBABDBABDBABDBABDBABDB97
:10B9800023C923C923C923C923C923C923C923C957
:10B9900023C923C923C923C923C923C923C923C947
:10B9A00063C9ABDBABDBABDBABDBABDBABDBABDBC1
:10B9B000ABDBABDBABDBABDBABDBABDBABDBABDB57
:10B9C000ABDBABDBABDBABDBABDBABDBABDBABDB47
:10B9D000ABDBABDBECDBFFFFFFFFFFFFFFFFFFFF9E
:10B9E000FFFFFFFFFFFFFFFFFFFFFFFFFFFFFFFF67
:10B9F000FFFFFFFFFFFFFFFFE5C923C923C923C9DD
:10BA000023C923C923C923C923C923C923C923C9D6
:10BA100023C923C923C923C9B4EDFFFFFFFFFFFFDB
:10BA2000FFFFFFFFFFFFFFFFFFFFFAF623C923C958
:10BA300023C923C923C923C923C923C923C923C9A6
:10BA400023C923C923C923C923C923C923C923C996
:10BA500023C923C923C923C923C923C923C923C986
:10BA600023C923C923C923C923C923C923C923C976
:10BA700023C923C923C923C923C923C923C923C966
:10BA800023C923C923C923C923C923C923C923C956
:10BA900023C923C923C923C923C923C923C923C946
:10BAA00023C923C923C923C923C923C9D9F6FFFF41
:10BAB000FFFFFFFFFFFFFFFFFFFFFFFFFFFFFFFF96
:10BAC000FFFFFFFFFFFFFFFFFFFFFFFFFFFFFFFF86
:10BAD000FFFFFFFFFFFF36EE23C923C923C923C998
:10BAE00023C923C923C923C923C923C923C923C9F6
:10BAF00023C923C923C923C923C923C923C923C9E6
:10BB000023C923C923C923C923C923C923C923C9D5
:10BB100023C923C923C923C923C923C923C923C9C5
:10BB200023C923C923C923C923C923C923C923C9B5
:10BB300023C923C923C923C923C923C923C923C9A5
:10BB400023C923C923C923C923C923C923C923C995
:10BB500023C923C923C923C923C923C923C923C985
:10BB600023C923C923C923C923C923C923C923C975
:10BB700023C93BF7FFFFFFFFFFFFFFFFFFFFFFFFB3
:10BB8000FFFFFFFFFFFFFFFFFFFFFFFFFFFFFFFFC5
:10BB9000FFFFFFFFFFFFFFFFFFFFFFFFFFFFFFFFB5
:10BBA000FFFFFFFFFFFFFFFFFFFFFFFFFFFFFFFFA5
:10BBB000FFFFFFFFFFFFFFFFFFFFFFFFFFFFFFFF95
:10BBC000FFFFFFFFFFFFFFFFFFFFFFFFFFFFFFFF85
:10BBD000FFFFFFFFFFFFFFFFFFFFFFFFFFFFFFFF75
:10BBE000FFFFFFFFFFFFFFFFFFFFFFFFFFFFFFFF65
:10BBF000FFFFFFFFFFFFFFFFFFFFFFFFFFFFFFFF55
:10BC0000FFFFFFFFFFFFFFFFFFFFFFFFFFFFFFFF44
:10BC1000FFFFFFFFFFFFFFFFFFFFFFFFFFFFFFFF34
:10BC2000FFFFFFFFFFFFFFFFFFFFFFFF99F6C5C903
:10BC300023C923C923C923C923C923C923C923C9A4
:10BC400023C923C923C923C923C923C923C923C994
:10BC50006BDBBEFFFFFFFFFFFFFFFFFFFFFFFFFFED
:10BC6000FFFFFFFFFFFF7DFF23C923C923C923C9AE
:10BC700023C923C923C923C923C923C923C923C964
:10BC800023C923C923C99DFFFFFF57F6C5C923C98F
:10BC900023C923C923C923C923C923C923C923C944
:10BCA00023C923C923C923C923C923C923C926D228
:10BCB000FAF6FFFFFFFFFFFFFFFFFFFFFFFFFFFFA2
:10BCC000FFFFFFFFFFFFFFFFFFFFFFFFFFFFFFFF84
:10BCD000FFFFFFFFFFFFFFFFFFFFFFFF43C923C978
:10BCE00023C923C923C923C923C923C923C923C9F4
:10BCF00023C923C923C923C923C9C4C9FFFFFFFF1F
:10BD0000FFFFFFFFFFFFFFFFFFFF4ADB23C923C940
:10BD100023C923C923C923C923C923C923C923C9C3
:10BD200023C923C923C923C923C923C923C923C9B3
:10BD300023C923C923C923C923C923C923C923C9A3
:10BD400023C923C923C923C923C923C923C923C993
:10BD500023C923C923C923C923C923C923C923C983
:10BD600023C923C923C923C923C923C923C923C973
:10BD700023C923C923C923C923C923C923C923C963
:10BD800023C923C923C923C923C923C923C923C953
:10BD900023C923C9A5C9FFFFFFFFFFFFFFFFFFFF67
:10BDA000FFFFFFFFFFFFFFFFFFFFFFFFFFFFFFFFA3
:10BDB000FFFFFFFFFFFFFFFF84C923C923C923C97A
:10BDC00023C923C923C923C923C923C923C923C913
:10BDD00023C923C923C923C957EEFFFFFFFFFFFF74
:10BDE000FFFFFFFFFFFFFFFFFFFFB9F623C923C9D6
:10BDF00023C923C923C923C923C923C923C923C9E3
:10BE000023C923C923C923C923C923C923C923C9D2
:10BE100023C923C923C923C923C923C923C923C9C2
:10BE200023C923C923C923C923C923C923C923C9B2
:10BE300023C923C923C923C923C923C923C923C9A2
:10BE400023C923C923C923C923C923C923C923C992
:10BE500023C923C923C923C923C923C923C923C982
:10BE600023C923C923C923C923C923C99DFFFFFFB0
:10BE7000FFFFFFFFFFFFFFFFFFFFFFFFFFFFFFFFD2
:10BE8000FFFFFFFFFFFFFFFFFFFFFFFFFFFFFFFFC2
:10BE9000FFFFFFFFFFFFB3ED23C923C923C923C958
:10BEA00023C923C923C923C923C923C923C923C932
:10BEB00023C923C923C923C923C923C923C923C922
:10BEC00023C923C923C923C923C923C923C923C912
:10BED00023C923C923C923C923C923C923C923C902
:10BEE00023C923C923C923C923C923C923C923C9F2
:10BEF00023C923C923C923C923C923C923C923C9E2
:10BF000023C923C923C923C923C923C923C923C9D1
:10BF100023C923C923C923C923C923C923C923C9C1
:10BF200023C923C923C923C923C923C923C923C9B1
:10BF300023C9FFFFFFFFFFFFFFFFFFFFFFFFFFFF23
:10BF4000FFFFFFFFFFFFFFFFFFFFFFFFFFFFFFFF01
:10BF5000FFFFFFFFFFFFFFFFFFFFFFFFFFFFFFFFF1
:10BF6000FFFFFFFFFFFFFFFFFFFFFFFFFFFFFFFFE1
:10BF7000FFFFFFFFFFFFFFFFFFFFFFFFFFFFFFFFD1
:10BF8000FFFFFFFFFFFFFFFFFFFFFFFFFFFFFFFFC1
:10BF9000FFFFFFFFFFFFFFFFFFFFFFFFFFFFFFFFB1
:10BFA000FFFFFFFFFFFFFFFFFFFFFFFFFFFFFFFFA1
:10BFB000FFFFFFFFFFFFFFFFFFFFFFFFFFFFFFFF91
:10BFC000FFFFFFFFFFFFFFFFFFFFFFFFFFFFFFFF81
:10BFD000FFFFFFFFFFFFFFFFFFFFFFFFFFFFFFFF71
:10BFE000FFFFFFFFFFFFFFFFFFFF78F6A5C923C993
:10BFF00023C923C923C923C923C923C923C923C9E1
:10C0000023C923C923C923C923C923C923C9CDDB14
:10C01000BEFFFFFFFFFFFFFFFFFFFFFFFFFFFFFF71
:10C02000FFFFFFFFFFFF7DFF23C923C923C923C9EA
:10C0300023C923C923C923C923C923C923C923C9A0
:10C0400023C923C923C9BEFF74ED64C923C923C909
:10C0500023C923C923C923C923C923C923C923C980
:10C0600023C923C923C923C923C923C9A8D25CFF73
:10C07000FFFFFFFFFFFFFFFFFFFFFFFFFFFFFFFFD0
:10C08000FFFFFFFFFFFFFFFFFFFFFFFFFFFFFFFFC0
:10C09000FFFFFFFFFFFFFFFFFFFFDFFF23C923C9F4
:10C0A00023C923C923C923C923C923C923C923C930
:10C0B00023C923C923C923C923C966D2FFFFFFFFB0
:10C0C000FFFFFFFFFFFFFFFFFFFFA7D223C923C929
:10C0D00023C923C923C923C923C923C923C923C900
:10C0E00023C923C923C923C923C923C923C923C9F0
:10C0F00023C923C923C923C923C923C923C923C9E0
:10C1000023C923C923C923C923C923C923C923C9CF
:10C1100023C923C923C923C923C923C923C923C9BF
:10C1200023C923C923C923C923C923C923C923C9AF
:10C1300023C923C923C923C923C923C923C923C99F
:10C1400023C923C923C923C923C923C923C923C98F
:10C1500023C923C906CAFFFFFFFFFFFFFFFFFFFF41
:10C16000FFFFFFFFFFFFFFFFFFFFFFFFFFFFFFFFDF
:10C17000FFFFFFFFFFFFFFFF43C923C923C923C9F7
:10C1800023C923C923C923C923C923C923C923C94F
:10C1900023C923C923C923C9FAF6FFFFFFFFFFFF05
:10C1A000FFFFFFFFFFFFFFFFFFFF79F623C923C952
:10C1B00023C923C923C923C923C923C923C923C91F
:10C1C00023C923C923C923C923C923C923C923C90F
:10C1D00023C923C923C923C923C923C923C923C9FF
:10C1E00023C923C923C923C923C923C923C923C9EF
:10C1F00023C923C923C923C923C923C923C923C9DF
:10C2000023C923C923C923C923C923C923C923C9CE
:10C2100023C923C923C923C923C923C923C923C9BE
:10C2200023C923C923C923C923C923C9BEFFFFFFCB
:10C23000FFFFFFFFFFFFFFFFFFFFFFFFFFFFFFFF0E
:10C24000FFFFFFFFFFFFFFFFFFFFFFFFFFFFFFFFFE
:10C25000FFFFFFFFFFFF11E523C923C923C923C93E
:10C2600023C923C923C923C923C923C923C923C96E
:10C2700023C923C923C923C923C923C923C923C95E
:10C2800023C923C923C923C923C923C923C923C94E
:10C2900023C923C923C923C923C923C923C923C93E
:10C2A00023C923C923C923C923C923C923C923C92E
:10C2B00023C923C923C923C923C923C923C923C91E
:10C2C00023C923C923C923C923C923C923C923C90E
:10C2D00023C923C923C923C923C923C923C923C9FE
:10C2E00023C923C923C923C923C923C923C923C9EE
:10C2F00023C9FFFFFFFFFFFFFFFFFFFFFFFFFFFF60
:10C30000FFFFFFFFFFFFFFFFFFFFFFFFFFFFFFFF3D
:10C31000FFFFFFFFFFFFFFFFFFFFFFFFFFFFFFFF2D
:10C32000FFFFFFFFFFFFFFFFFFFFFFFFFFFFFFFF1D
:10C33000FFFFFFFFFFFFFFFFFFFFFFFFFFFFFFFF0D
:10C34000FFFFFFFFFFFFFFFFFFFFFFFFFFFFFFFFFD
:10C35000FFFFFFFFFFFFFFFFFFFFFFFFFFFFFFFFED
:10C36000FFFFFFFFFFFFFFFFFFFFFFFFFFFFFFFFDD
:10C37000FFFFFFFFFFFFFFFFFFFFFFFFFFFFFFFFCD
:10C38000FFFFFFFFFFFFFFFFFFFFFFFFFFFFFFFFBD
:10C39000FFFFFFFFFFFFFFFFFFFFFFFFFFFFFFFFAD
:10C3A000FFFFFFFFFFFFFFFF37EEA4C923C923C92B
:10C3B00023C923C923C923C923C923C923C923C91D
:10C3C00023C923C923C923C923C923C92EE4DEFFF6
:10C3D000FFFFFFFFFFFFFFFFFFFFFFFFFFFFFFFF6D
:10C3E000FFFFFFFFFFFF5DFF23C923C923C923C947
:10C3F00023C923C923C923C923C923C923C923C9DD
:10C4000023C923C923C96FE443C923C923C923C945
:10C4100023C923C923C923C923C923C923C923C9BC
:10C4200023C923C923C923C923C92ADB9DFFFFFFD1
:10C43000FFFFFFFFFFFFFFFFFFFFFFFFFFFFFFFF0C
:10C44000FFFFFFFFFFFFFFFFFFFFFFFFFFFFFFFFFC
:10C45000FFFFFFFFFFFFFFFFFFFF3BF723C923C9DC
:10C4600023C923C923C923C923C923C923C923C96C
:10C4700023C923C923C923C923C929D3FFFFFFFF28
:10C48000FFFFFFFFFFFFFFFFFFFF05CA23C923C90F
:10C4900023C923C923C923C923C923C923C923C93C
:10C4A00023C923C923C923C923C923C923C923C92C
:10C4B00023C923C923C923C923C923C923C923C91C
:10C4C00023C923C923C923C923C923C923C923C90C
:10C4D00023C923C923C923C923C923C923C923C9FC
:10C4E00023C923C923C923C923C923C923C923C9EC
:10C4F00023C923C923C923C923C923C923C923C9DC
:10C5000023C923C923C923C923C923C923C923C9CB
:10C5100023C923C908D3FFFFFFFFFFFFFFFFFFFF72
:10C52000FFFFFFFFFFFFFFFFFFFFFFFFFFFFFFFF1B
:10C53000FFFFFFFFFFFF7DFF23C923C923C923C9D5
:10C5400023C923C923C923C923C923C923C923C98B
:10C5500023C923C923C923C99DFFFFFFFFFFFFFF95
:10C56000FFFFFFFFFFFFFFFFFFFF17EE23C923C9F8
:10C5700023C923C923C923C923C923C923C923C95B
:10C5800023C923C923C923C923C923C923C923C94B
:10C5900023C923C923C923C923C923C923C923C93B
:10C5A00023C923C923C923C923C923C923C923C92B
:10C5B00023C923C923C923C923C923C923C923C91B
:10C5C00023C923C923C923C923C923C923C923C90B
:10C5D00023C923C923C923C923C923C923C923C9FB
:10C5E00023C923C923C923C923C923C9BEFFFFFF08
:10C5F000FFFFFFFFFFFFFFFFFFFFFFFFFFFFFFFF4B
:10C60000FFFFFFFFFFFFFFFFFFFFFFFFFFFFFFFF3A
:10C61000FFFFFFFFFFFF50E423C923C923C923C93C
:10C6200023C923C923C923C923C923C923C923C9AA
:10C6300023C923C923C923C923C923C923C923C99A
:10C6400023C923C923C923C923C923C923C923C98A
:10C6500023C923C923C923C923C923C923C923C97A
:10C6600023C923C923C923C923C923C923C923C96A
:10C6700023C923C923C923C923C923C923C923C95A
:10C6800023C923C923C923C923C923C923C923C94A
:10C6900023C923C923C923C923C923C923C923C93A
:10C6A00023C923C923C923C923C923C923C923C92A
:10C6B00023C9FFFFFFFFFFFFFFFFFFFFFFFFFFFF9C
:10C6C000FFFFFFFFFFFFFFFFFFFFFFFFFFFFFFFF7A
:10C6D000FFFFFFFFFFFFFFFFFFFFFFFFFFFFFFFF6A
:10C6E000FFFFFFFFFFFFFFFFFFFFFFFFFFFFFFFF5A
:10C6F000FFFFFFFFFFFFFFFFFFFFFFFFFFFFFFFF4A
:10C70000FFFFFFFFFFFFFFFFFFFFFFFFFFFFFFFF39
:10C71000FFFFFFFFFFFFFFFFFFFFFFFFFFFFFFFF29
:10C72000FFFFFFFFFFFFFFFFFFFFFFFFFFFFFFFF19
:10C73000FFFFFFFFFFFFFFFFFFFFFFFFFFFFFFFF09
:10C74000FFFFFFFFFFFFFFFFFFFFFFFFFFFFFFFFF9
:10C75000FFFFFFFFFFFFFFFFFFFFFFFFFFFFFFFFE9
:10C76000FFFFFFFFFFFF16EE84C923C923C923C9BA
:10C7700023C923C923C923C923C923C923C923C959
:10C7800023C923C923C923C943C990E4DFFFFFFF9D
:10C79000FFFFFFFFFFFFFFFFFFFFFFFFFFFFFFFFA9
:10C7A000FFFFFFFFFFFF1BF723C923C923C923C9CD
:10C7B00023C923C923C923C923C923C923C923C919
:10C7C00023C923C923C923C923C923C923C923C909
:10C7D00023C923C923C923C923C923C923C923C9F9
:10C7E00023C923C923C923C9CDDBBEFFFFFFFFFF38
:10C7F000FFFFFFFFFFFFFFFFFFFFFFFFFFFFFFFF49
:10C80000FFFFFFFFFFFFFFFFFFFFFFFFFFFFFFFF38
:10C81000FFFFFFFFFFFFFFFFFFFF35EE23C923C927
:10C8200023C923C923C923C923C923C923C923C9A8
:10C8300023C923C923C923C923C9CCDBFFFFFFFFB9
:10C84000FFFFFFFFFFFFFFFFFFFF63C923C923C9EE
:10C8500023C923C923C923C923C923C923C923C978
:10C8600023C923C923C923C923C923C923C923C968
:10C8700023C923C923C923C923C923C923C923C958
:10C8800023C923C923C923C923C923C923C923C948
:10C8900023C923C923C923C923C923C923C923C938
:10C8A00023C923C923C923C923C923C923C923C928
:10C8B00023C923C923C923C923C923C923C923C918
:10C8C00023C923C923C923C923C923C923C923C908
:10C8D00023C923C90BDCFFFFFFFFFFFFFFFFFFFFA3
:10C8E000FFFFFFFFFFFFFFFFFFFFFFFFFFFFFFFF58
:10C8F000FFFFFFFFFFFFB9F623C923C923C923C9DF
:10C9000023C923C923C923C923C923C923C923C9C7
:10C9100023C923C923C943C9FFFFFFFFFFFFFFFF4F
:10C92000FFFFFFFFFFFFFFFFFFFF73ED23C923C9D9
:10C9300023C923C923C923C923C923C923C923C997
:10C9400023C923C923C923C923C923C923C923C987
:10C9500023C923C923C923C923C923C923C923C977
:10C9600023C923C923C923C923C923C923C923C967
:10C9700023C923C923C923C923C923C923C923C957
:10C9800023C923C923C923C923C923C923C923C947
:10C9900023C923C923C923C923C923C923C923C937
:10C9A00023C923C923C923C923C923C9DEFFFFFF24
:10C9B000FFFFFFFFFFFFFFFFFFFFFFFFFFFFFFFF87
:10C9C000FFFFFFFFFFFFFFFFFFFFFFFFFFFFFFFF77
:10C9D000FFFFFFFFFFFFCEDB23C923C923C923C904
:10C9E00023C923C923C923C923C923C923C923C9E7
:10C9F00023C923C923C923C923C923C923C923C9D7
:10CA000023C923C923C923C923C923C923C923C9C6
:10CA100023C923C923C923C923C923C923C923C9B6
:10CA200023C923C923C923C923C923C923C923C9A6
:10CA300023C923C923C923C923C923C923C923C996
:10CA400023C923C923C923C923C923C923C923C986
:10CA500023C923C923C923C923C923C923C923C976
:10CA600023C923C923C923C923C923C923C923C966
:10CA700023C9FFFFFFFFFFFFFFFFFFFFFFFFFFFFD8
:10CA8000FFFFFFFFFFFFFFFFFFFFFFFFFFFFFFFFB6
:10CA9000FFFFFFFFFFFFFFFFFFFFFFFFFFFFFFFFA6
:10CAA000FFFFFFFFFFFFFFFFFFFFFFFFFFFFFFFF96
:10CAB000FFFFFFFFFFFFFFFFFFFFFFFFFFFFFFFF86
:10CAC000FFFFFFFFFFFFFFFFFFFFFFFFFFFFFFFF76
:10CAD000FFFFFFFFFFFFFFFFFFFFFFFFFFFFFFFF66
:10CAE000FFFFFFFFFFFFFFFFFFFFFFFFFFFFFFFF56
:10CAF000FFFFFFFFFFFFFFFFFFFFFFFFFFFFFFFF46
:10CB0000FFFFFFFFFFFFFFFFFFFFFFFFFFFFFFFF35
:10CB1000FFFFFFFFFFFFFFFFFFFFFFFFFFFFFFFF25
:10CB2000FFFFFFFFD5ED64C923C923C923C923C96A
:10CB300023C923C923C923C923C923C923C923C995
:10CB400023C923C923C943C9F1E4DFFFFFFFFFFF66
:10CB5000FFFFFFFFFFFFFFFFFFFFFFFFFFFFFFFFE5
:10CB6000FFFFFFFFFFFF98F623C923C923C923C98D
:10CB700023C923C923C923C923C923C923C923C955
:10CB800023C923C923C923C923C923C923C923C945
:10CB900023C923C923C923C923C923C923C923C935
:10CBA00023C923C943C96FE4DEFFFFFFFFFFFFFF77
:10CBB000FFFFFFFFFFFFFFFFFFFFFFFFFFFFFFFF85
:10CBC000FFFFFFFFFFFFFFFFFFFFFFFFFFFFFFFF75
:10CBD000FFFFFFFFFFFFFFFFFFFF31E523C923C971
:10CBE00023C923C923C923C923C923C923C923C9E5
:10CBF00023C923C923C923C923C96FE4FFFFFFFF4A
:10CC0000FFFFFFFFFFFFFFFFBEFF23C923C923C9AB
:10CC100023C923C923C923C923C923C923C923C9B4
:10CC200023C923C923C923C923C923C923C923C9A4
:10CC300023C923C923C923C923C923C923C923C994
:10CC400023C923C923C923C923C923C923C923C984
:10CC500023C923C923C923C923C923C923C923C974
:10CC600023C923C923C923C923C923C923C923C964
:10CC700023C923C923C923C923C923C923C923C954
:10CC800023C923C923C923C923C923C923C923C944
:10CC900023C923C910E5FFFFFFFFFFFFFFFFFFFFD1
:10CCA000FFFFFFFFFFFFFFFFFFFFFFFFFFFFFFFF94
:10CCB000FFFFFFFFFFFFF4ED23C923C923C923C9E9
:10CCC00023C923C923C923C923C923C923C923C904
:10CCD00023C923C923C9C5C9FFFFFFFFFFFFFFFF0A
:10CCE000FFFFFFFFFFFFFFFFFFFFB0E423C923C9E2
:10CCF00023C923C923C923C923C923C923C923C9D4
:10CD000023C923C923C923C923C923C923C923C9C3
:10CD100023C923C923C923C923C923C923C923C9B3
:10CD200023C923C923C923C923C923C923C923C9A3
:10CD300023C923C923C923C923C923C923C923C993
:10CD400023C923C923C923C923C923C923C923C983
:10CD500023C923C923C923C923C923C923C923C973
:10CD600023C923C923C923C923C923C9DFFFFFFF5F
:10CD7000FFFFFFFFFFFFFFFFFFFFFFFFFFFFFFFFC3
:10CD8000FFFFFFFFFFFFFFFFFFFFFFFFFFFFFFFFB3
:10CD9000FFFFFFFFFFFF6BDB23C923C923C923C9A3
:10CDA00023C923C923C923C923C923C923C923C923
:10CDB00023C923C923C923C923C923C923C923C913
:10CDC00023C923C923C923C923C923C923C923C903
:10CDD00023C923C923C923C923C923C923C923C9F3
:10CDE00023C923C923C923C923C923C923C923C9E3
:10CDF00023C923C923C923C923C923C923C923C9D3
:10CE000023C923C923C923C923C923C923C923C9C2
:10CE100023C923C923C923C923C923C923C923C9B2
:10CE200023C923C923C923C923C923C923C923C9A2
:10CE300023C9FFFFFFFFFFFFFFFFFFFFFFFFFFFF14
:10CE4000FFFFFFFFFFFFFFFFFFFFFFFFFFFFFFFFF2
:10CE5000FFFFFFFFFFFFFFFFFFFFFFFFFFFFFFFFE2
:10CE6000FFFFFFFFFFFFFFFFFFFFFFFFFFFFFFFFD2
:10CE7000FFFFFFFFFFFFFFFFFFFFFFFFFFFFFFFFC2
:10CE8000FFFFFFFFFFFFFFFFFFFFFFFFFFFFFFFFB2
:10CE9000FFFFFFFFFFFFFFFFFFFFFFFFFFFFFFFFA2
:10CEA000FFFFFFFFFFFFFFFFFFFFFFFFFFFFFFFF92
:10CEB000FFFFFFFFFFFFFFFFFFFFFFFFFFFFFFFF82
:10CEC000FFFFFFFFFFFFFFFFFFFFFFFFFFFFFFFF72
:10CED000FFFFFFFFFFFFFFFFFFFFFFFFFFFFFFFF62
:10CEE000FFFFB4ED64C923C923C923C923C923C9DA
:10CEF00023C923C923C923C923C923C923C923C9D2
:10CF000023C923C943C953EDFFFFFFFFFFFFFFFF05
:10CF1000FFFFFFFFFFFFFFFFFFFFFFFFFFFFFFFF21
:10CF2000FFFFFFFFFFFF16EE23C923C923C923C953
:10CF300023C923C923C923C923C923C923C923C991
:10CF400023C923C923C923C923C923C923C923C981
:10CF500023C923C923C923C923C923C923C923C971
:10CF600023C964C912E5DFFFFFFFFFFFFFFFFFFFDB
:10CF7000FFFFFFFFFFFFFFFFFFFFFFFFFFFFFFFFC1
:10CF8000FFFFFFFFFFFFFFFFFFFFFFFFFFFFFFFFB1
:10CF9000FFFFFFFFFFFFFFFFFFFF4CDC23C923C99B
:10CFA00023C923C923C923C923C923C923C923C921
:10CFB00023C923C923C923C923C913E5FFFFFFFFE1
:10CFC000FFFFFFFFFFFFFFFF3BF723C923C923C973
:10CFD00023C923C923C923C923C923C923C923C9F1
:10CFE00023C923C923C923C923C923C923C923C9E1
:10CFF00023C923C923C923C923C923C923C923C9D1
:10D0000023C923C923C923C923C923C923C923C9C0
:10D0100023C923C923C923C923C923C923C923C9B0
:10D0200023C923C923C923C923C923C923C923C9A0
:10D0300023C923C923C923C923C923C923C923C990
:10D0400023C923C923C923C923C923C923C923C980
:10D0500023C923C9F4EDFFFFFFFFFFFFFFFFFFFF21
:10D06000FFFFFFFFFFFFFFFFFFFFFFFFFFFFFFFFD0
:10D07000FFFFFFFFFFFF31E523C923C923C923C9F0
:10D0800023C923C923C923C923C923C923C923C940
:10D0900023C923C923C946D2FFFFFFFFFFFFFFFFBC
:10D0A000FFFFFFFFFFFFFFFFFFFF0CDC23C923C9CA
:10D0B00023C923C923C923C923C923C923C923C910
:10D0C00023C923C923C923C923C923C923C923C900
:10D0D00023C923C923C923C923C923C923C923C9F0
:10D0E00023C923C923C923C923C923C923C923C9E0
:10D0F00023C923C923C923C923C923C923C923C9D0
:10D1000023C923C923C923C923C923C923C923C9BF
:10D1100023C923C923C923C923C923C923C923C9AF
:10D1200023C923C923C923C923C923C9DFFFFFFF9B
:10D13000FFFFFFFFFFFFFFFFFFFFFFFFFFFFFFFFFF
:10D14000FFFFFFFFFFFFFFFFFFFFFFFFFFFFFFFFEF
:10D15000FFFFFFFFFFFFE9D223C923C923C923C96A
:10D1600023C923C923C923C923C923C923C923C95F
:10D1700023C923C923C923C923C923C923C923C94F
:10D1800023C923C923C923C923C923C923C923C93F
:10D1900023C923C923C923C923C923C923C923C92F
:10D1A00023C923C923C923C923C923C923C923C91F
:10D1B00023C923C923C923C923C923C923C923C90F
:10D1C00023C923C923C923C923C923C923C923C9FF
:10D1D00023C923C923C923C923C923C923C923C9EF
:10D1E00023C923C923C923C923C923C923C923C9DF
:10D1F00043C9FFFFFFFFFFFFFFFFFFFFFFFFFFFF31
:10D20000FFFFFFFFFFFFFFFFFFFFFFFFFFFFFFFF2E
:10D21000FFFFFFFFFFFFFFFFFFFFFFFFFFFFFFFF1E
:10D22000FFFFFFFFFFFFFFFFFFFFFFFFFFFFFFFF0E
:10D23000FFFFFFFFFFFFFFFFFFFFFFFFFFFFFFFFFE
:10D24000FFFFFFFFFFFFFFFFFFFFFFFFFFFFFFFFEE
:10D25000FFFFFFFFFFFFFFFFFFFFFFFFFFFFFFFFDE
:10D26000FFFFFFFFFFFFFFFFFFFFFFFFFFFFFFFFCE
:10D27000FFFFFFFFFFFFFFFFFFFFFFFFFFFFFFFFBE
:10D28000FFFFFFFFFFFFFFFFFFFFFFFFFFFFFFFFAE
:10D29000FFFFFFFFFFFFFFFFFFFFFFFFFFFFFFFF9E
:10D2A00073ED44C923C923C923C923C923C923C989
:10D2B00023C923C923C923C923C923C923C923C90E
:10D2C00023C923C905CAFFFFFFFFFFFFFFFFFFFFC1
:10D2D000FFFFFFFFFFFFFFFFFFFFFFFFFFFFFFFF5E
:10D2E000FFFFFFFFFFFFB3ED23C923C923C923C9F4
:10D2F00023C923C923C923C923C923C923C923C9CE
:10D3000023C923C923C923C923C923C923C923C9BD
:10D3100023C923C923C923C923C923C923C923C9AD
:10D3200084C9B4EDFFFFFFFFFFFFFFFFFFFFFFFF1B
:10D33000FFFFFFFFFFFFFFFFFFFFFFFFFFFFFFFFFD
:10D34000FFFFFFFFFFFFFFFFFFFFFFFFFFFFFFFFED
:10D35000FFFFFFFFFFFFFFFFFFFF48D323C923C9E4
:10D3600023C923C923C923C923C923C923C923C95D
:10D3700023C923C923C923C923C995EDFFFFFFFF93
:10D38000FFFFFFFFFFFFFFFF98F623C923C923C953
:10D3900023C923C923C923C923C923C923C923C92D
:10D3A00023C923C923C923C923C923C923C923C91D
:10D3B00023C923C923C923C923C923C923C923C90D
:10D3C00023C923C923C923C923C923C923C923C9FD
:10D3D00023C923C923C923C923C923C923C923C9ED
:10D3E00023C923C923C923C923C923C923C923C9DD
:10D3F00023C923C923C923C923C923C923C923C9CD
:10D4000023C923C923C923C923C923C923C923C9BC
:10D4100023C923C9D9F6FFFFFFFFFFFFFFFFFFFF6F
:10D42000FFFFFFFFFFFFFFFFFFFFFFFFFFFFFFFF0C
:10D43000FFFFFFFFFFFF4DDC23C923C923C923C919
:10D4400023C923C923C923C923C923C923C923C97C
:10D4500023C923C923C9C8D2FFFFFFFFFFFFFFFF76
:10D46000FFFFFFFFFFFFFFFFFFFF49D323C923C9D2
:10D4700023C923C923C923C923C923C923C923C94C
:10D4800023C923C923C923C923C923C923C923C93C
:10D4900023C923C923C923C923C923C923C923C92C
:10D4A00023C923C923C923C923C923C923C923C91C
:10D4B00023C923C923C923C923C923C923C923C90C
:10D4C00023C923C923C923C923C923C923C923C9FC
:10D4D00023C923C923C923C923C923C923C923C9EC
:10D4E00023C923C923C923C923C923C9FFFFFFFFB8
:10D4F000FFFFFFFFFFFFFFFFFFFFFFFFFFFFFFFF3C
:10D50000FFFFFFFFFFFFFFFFFFFFFFFFFFFFFFFF2B
:10D51000FFFFFFFFFFFF67D223C923C923C923C928
:10D5200023C923C923C923C923C923C923C923C99B
:10D5300023C923C923C923C923C923C923C923C98B
:10D5400023C923C923C923C923C923C923C923C97B
:10D5500023C923C923C923C923C923C923C923C96B
:10D5600023C923C923C923C923C923C923C923C95B
:10D5700023C923C923C923C923C923C923C923C94B
:10D5800023C923C923C923C923C923C923C923C93B
:10D5900023C923C923C923C923C923C923C923C92B
:10D5A00023C923C923C923C923C923C923C923C91B
:10D5B00064C9FFFFFFFFFFFFFFFFFFFFFFFFFFFF4C
:10D5C000FFFFFFFFFFFFFFFFFFFFFFFFFFFFFFFF6B
:10D5D000FFFFFFFFFFFFFFFFFFFFFFFFFFFFFFFF5B
:10D5E000FFFFFFFFFFFFFFFFFFFFFFFFFFFFFFFF4B
:10D5F000FFFFFFFFFFFFFFFFFFFFFFFFFFFFFFFF3B
:10D60000FFFFFFFFFFFFFFFFFFFFFFFFFFFFFFFF2A
:10D61000FFFFFFFFFFFFFFFFFFFFFFFFFFFFFFFF1A
:10D62000FFFFFFFFFFFFFFFFFFFFFFFFFFFFFFFF0A
:10D63000FFFFFFFFFFFFFFFFFFFFFFFFFFFFFFFFFA
:10D64000FFFFFFFFFFFFFFFFFFFFFFFFFFFFFFFFEA
:10D65000FFFFFFFFFFFFFFFFFFFFFFFFFFFF32E5C1
:10D6600044C923C923C923C923C923C923C923C939
:10D6700023C923C923C923C923C923C923C923C94A
:10D6800023C923C987D2FFFFFFFFFFFFFFFFFFFF73
:10D69000FFFFFFFFFFFFFFFFFFFFFFFFFFFFFFFF9A
:10D6A000FFFFFFFFFFFF31E523C923C923C923C9BA
:10D6B00023C923C923C923C923C923C923C923C90A
