:020000040800F2
:10000000B00400209D0100081B28000849190008C1
:10001000192800083D070008D92900080000000041
:100020000000000000000000000000001F28000881
:100030003F070008000000001D28000821280008D4
:10004000B7010008B7010008B7010008B7010008B0
:10005000B7010008B7010008B7010008B7010008A0
:10006000B7010008B7010008B7010008B701000890
:10007000B7010008B7010008B7010008B701000880
:10008000B7010008B7010008B7010008B701000870
:10009000B7010008B7010008B7010008B701000860
:1000A000B7010008B7010008B7010008B701000850
:1000B000B7010008B7010008B70100085919000886
:1000C0004D190008B7010008B7010008B701000882
:1000D000B7010008B7010008B7010008B701000820
:1000E00041070008B7010008B7010008B701000880
:1000F000B7010008B7010008B7010008B701000800
:10010000B7010008B7010008B7010008B7010008EF
:10011000B7010008B7010008B7010008B7010008DF
:10012000B7010008B7010008B7010008B7010008CF
:10013000B7010008B7010008B7010008B7010008BF
:10014000B7010008B7010008B7010008B7010008AF
:10015000B7010008B7010008B7010008B70100089F
:10016000B7010008B7010008B7010008B70100088F
:10017000B7010008B7010008B7010008000000003F
:10018000B7010008B7010008DFF80CD000F0B2FAA0
:100190000048004705330008B004002006488047A7
:1001A00006480047FEE7FEE7FEE7FEE7FEE7FEE75C
:1001B000FEE7FEE7FEE7FEE7952800088901000854
:1001C0002DE9F05F0546002092469B46884606468C
:1001D000814640241BE0284641464746224600F01F
:1001E000D6F853465A46C01A914110D311461846C4
:1001F000224600F0BDF82D1A67EB01084F46224653
:100200000120002100F0B4F817EB00094E41201E38
:10021000A4F10104DFDC484631462A464346BDE8E6
:10022000F09FD2B201E000F8012B491EFBD27047CB
:100230000022F6E710B513460A4604461946FFF7B2
:10024000F0FF204610BD2DE9FE4F81EA030404F0C3
:10025000004421F0004100944FF0000B23F00043D4
:1002600050EA01045ED052EA03045BD0C3F30A549F
:10027000C1F30A552C44A4F2F3340194A0FB0254B8
:10028000C1F3130141F48011C3F3130343F480134A
:1002900001FB024400FB034E840A970A44EA81549E
:1002A00047EA8357A4FB076802958D0A05FB07857B
:1002B0004FEA932C04FB0C542705029D4FEA065885
:1002C00047EA1637B5EB08056EEB070C870E920E62
:1002D00047EA811742EA8312A7FB0201B6EB0B0142
:1002E00064EB00042B0D43EA0C335E1844EB1C5006
:1002F000DA465146E7FB0201C5F313044FEA0B331C
:1003000043EA14534FEA0432019C43EA0603A4F182
:100310000C040294009CCDE900B400F057F803B03F
:10032000BDE8F08F00200146F9E70EB540F23341F9
:1003300002910021CDE900110A460B4600F046F873
:1003400003B000BD30B50B46014600202022012439
:1003500009E021FA02F59D4205D303FA02F5491B93
:1003600004FA02F52844151EA2F10102F1DC30BDA9
:10037000202A04DB203A00FA02F100207047914065
:10038000C2F1200320FA03F3194390407047202A5A
:1003900004DB203A21FA02F00021704721FA02F32F
:1003A000D040C2F12002914008431946704710B571
:1003B000141E73F1000408DA401C41F10001921888
:1003C0005B411A4301D120F0010010BD2DE9F04D31
:1003D00092469B4611B1B1FA81F202E0B0FA80F286
:1003E00020329046FFF7C4FF04460F4640EA0A0059
:1003F00041EA0B0153465A46084313D0114653EACB
:10040000010019D0C8F140025046FFF7C0FF054671
:100410000E46504659464246FFF7AAFF084305D00C
:10042000012004E020463946BDE8F08D0020054358
:1004300046EAE0762C4337430A986305E40AA0EBCA
:1004400008000022FD0A44EA47540A3002D5002081
:100450000146E9E7010510196941DDE90845001980
:100460006941BDE8F04DA2E72DE9FE4F804681EAE3
:100470000300C00F0C46009021F0004123F000451E
:10048000B8EB0200A94105D24046214690461C46E1
:100490000B46024623F00040104347D0270DC7F318
:1004A0000A00C3F30A510290401A019040286BDA07
:1004B000C3F3130040F4801B0098924620B1002340
:1004C000D2EB030A63EB0B0B01985946C0F14002D3
:1004D0005046FFF74DFF06460D4650465946019AD5
:1004E00000F01AF910EB08006141002487EA11526C
:1004F00084EAE7731A4340D0009A62B3019A012A52
:100500004FEA075215DC001B61EB02014FF000427D
:1005100002EA0752CDE90042001C41F58011324643
:100520002B46FFF753FF03B0BDE8F08F404621464E
:10053000F9E7001B61EB0201001C41F58013001874
:100540005B412018A2F5001747EB030140EAD57084
:10055000B6196D4111E06D084FEA360645EAC075DF
:100560004FEA0752001B61EB0201001C41F58011AC
:1005700049084FEA30000019514132462B4603B07A
:10058000BDE8F04FFFF713BF0098012240000023A1
:10059000D0EB020263EBE073009821464FEAE0746F
:1005A000B8EB000061EB0401E9E783F000435BE78F
:1005B00081F0004158E72DE9F04D81EA030404F091
:1005C000004B21F0004514464FF0000A23F0004193
:1005D00050EA050220D054EA01021DD0C5F30A57A3
:1005E0000246C5F31303C1F31300C1F30A5640F4E6
:1005F000801543F48013A7EB0608101BD64608F2BB
:10060000FD3873EB050002D308F1010801E09218F0
:100610005B41B8F1000F03DA00200146BDE8F08D20
:1006200000204FF48011064684460EE0171B73EB42
:10063000050705D3121B63EB050306434CEA010CC7
:1006400049084FEA300092185B4150EA0107EDD1AA
:1006500052EA030012D082EA040083EA050108434B
:1006600005D0101BAB4106D20122002306E0002278
:100670004FF0004302E06FF0010253101AEB060046
:100680004CEB085110EB0A0041EB0B01BDE8F04DBB
:10069000FFF78DBEC1F30A52C1F3130140F2FF33DD
:1006A00041F480119A4202DA00200146704740F27C
:1006B00033439A42A2F2334202DC5242FFF767BE52
:1006C000FFF756BE30B5041E71F1000404DB4FF095
:1006D0000044404264EB0101141E73F1000405DB89
:1006E0001C464FF00043524263EB0403994208BF9B
:1006F000904230BD064C074D06E0E06840F0010333
:1007000094E8070098471034AC42F6D3FFF740FD59
:100710005C3300087C330008202A06DBCB17203A24
:1007200041FA02F043EAE07306E041FA02F3D040F6
:10073000C2F120029140084319467047FEE7704716
:100740004FF4804000F02AB8704790F83510022925
:1007500003D08021416501207047052180F83510C4
:100760000068016821F0010101600020704790F8E5
:100770003500704770B5044600F0F8F80546601C77
:1007800002D004480078044400F0F0F8401BA04276
:10079000FAD370BD0400002070470000044910B572
:1007A0000A68024202D00860FFF7F6FF10BD0000A1
:1007B000143C01402DE9F84F00224FF001080325B9
:1007C0004FF00F0E0B6808FA02F42340A3426ED1DB
:1007D0004E68012E05D0022E03D0112E01D0122E0C
:1007E00012D186684FEA420C05FA0CF7BE43CF6877
:1007F00007FA0CF7374387604668A6430C79C4F3C1
:100800000014944034434460C668570005FA07FC5E
:100810008C6826EA0C06BC403443C4604C68022C49
:1008200001D0122C13D1D40800EB8404A346D4F8D1
:10083000209054074FEAD46A0EFA0AF629EA06090C
:100840000E6906FA0AF646EA0906CBF82060066841
:100850000C7926EA0C0604F00304BC40344304601F
:100860004C68E40065D5364C266846F48046266020
:10087000246822F0030604F480440094314C34448C
:10088000A446D4F808489607370F0EFA07F6B44383
:100890002D4EB04201D1002624E02C4EB04201D1B1
:1008A00001261FE02A4EB04202D102261AE040E0A3
:1008B000284EB04201D1032614E0274EB04201D1A8
:1008C00004260FE0254EB04201D105260AE0244E51
:1008D000B04201D1062605E0224EB04201D10726E2
:1008E00000E00826BE402643CCF808681E4E346857
:1008F0004F689C43FF0300D51C4334601A4C241DF1
:1009000026684F689E43BF0300D51E432660164EDF
:10091000083634684F689C43FF0200D51C4334609E
:10092000114E0C3634684F689C43BF0200D51C43FF
:100930003460521C102AFFF445AFBDE8F88F000068
:1009400044380240003001400000024000040240F0
:1009500000080240000C0240001002400014024057
:1009600000180240001C0240003C01400148806821
:100970007047000004000020704770472DE9F041E7
:10098000016804464A694E6890F83E000025D74346
:10099000FA0506D4F243D20503D46FF48072012520
:1009A0004A61B90508D4F143C90505D422686FF43A
:1009B000007145F002055161790525D4F143C9055F
:1009C00022D4638D94F83D10226B202808D13BB9C6
:1009D000212910D029290ED0282901D1212A0AD075
:1009E00022686FF48061516145F00405102806D03B
:1009F000402804D008E0204601F03CFC04E02068D8
:100A0000016841F400710160380508D4F043C00565
:100A100005D421686FF4006045F008054861002D99
:100A200007D0206C284320642046BDE8F04100F048
:100A3000F7BFBDE8F0812DE9F0410268002451685C
:100A4000C76A90F83E5090F83D60102D1CD0402DA4
:100A50001AD0036C002B7ED053694FF02805DB437E
:100A60009F0779D4CF43BF0576D4016C01B1946957
:100A700090F83D3000219D430B466ED0C91E516158
:100A800080F83C30BDE8F081946953694FF42A0C3A
:100A9000DB435FEAC37E4FF02A4604D06745F1D0BE
:100AA000B742EFD010E0CF43BF050DD4C16A614516
:100AB00001D1012103E0C16AB14201D10821C16223
:100AC000BDE8F04101F06EBA1E0716D4CE43B6055C
:100AD00013D4416CC9B21161416B11B9826B002A08
:100AE000D0D0C96B19B9816BC96B0029CAD0006815
:100AF000416841F400614160C4E79E0706D4CE43DB
:100B0000B60503D4BDE8F04101F0C0B9E443526832
:100B100064074FEA02521BD4002AB3DB1A0608D43A
:100B2000CA43520505D45A0705D5BDE8F04101F086
:100B300051B95A07A6D4C9438905A3D4102D03D0AF
:100B4000BDE8F04101F074BABDE8F04101F008B928
:100B5000002A97DB02E015E029E015E05A0608D4E8
:100B6000CA43520505D45A0705D5BDE8F04101F046
:100B700083B85A0786D4C943890583D4BDE8F041B8
:100B800001F011B8946967E7556825F480655560F0
:100B9000E243540700D50121120601D5828900E005
:100BA000028B80F83C3092B2FFF7E7FE6AE7DC0682
:100BB00006D4CC43A40503D4BDE8F04101F09CBBAE
:100BC000212E27D0292E25D05C0655D4CC43640590
:100BD00052D45B0752D590F83D10438D002B8BD03B
:100BE0001269436A1A70426A521C4262428D521E56
:100BF0004285428D002AD9D12A29D7D101684A6875
:100C000022F480624A602221016380F83D5000F0A6
:100C1000E9FA37E71C0623D4CC43640520D45B07EC
:100C200020D590F83D10438D002BBFD0436A1B7830
:100C30001361426A521C4262428D521E4285428DAD
:100C4000002AB3D12929B1D101684A6822F480620F
:100C50004A602121016380F83D5000F0C4FA11E799
:100C60005B07A3D4C9438905A0D4418D00299DD039
:100C7000416A097811610AE05B0797D4C943890585
:100C800094D4418D002991D01169426A1170416A52
:100C9000491C4162418D491E4185F3E670470000C1
:100CA00070B5040025D094F83D00002520B984F8E3
:100CB0003C50204600F052FA242084F83D00206881
:100CC000016821F0010101602068016841F40041E0
:100CD00001602068016821F40041016000F0B8FB68
:100CE0004D4A6168914201D84C4900E04C49884224
:100CF00001D2012070BD4B492368B0FBF1F15E6861
:100D000026F03F060E435E606368934206D94FF4B7
:100D1000967359434FF47A73B1FBF3F12368491C7E
:100D20001E6A26F03F06314319626168914210D86D
:100D30004900401EB0FBF1F2521CC2F30B02042A20
:100D400001D2042022E0B0FBF1F0401CC0F30B0004
:100D50001CE0A268F2B301EBC10303EB0116431ED2
:100D6000B3FBF6F35B1C43F480431B0549D092B3FD
:100D700001EBC10202EB0111401EB0FBF1F0401C7F
:100D8000C0F30B0040F4804040F400402168CA6981
:100D90004CF6FF739A431043C861D4E9071001432E
:100DA0002068026822F0C00211430160D4E9030107
:100DB00001432068826848F2FF339A4311438160FF
:100DC000D4E9050108432168CA6822F0FF021043F4
:100DD000C86001E00EE016E02068016841F0010102
:100DE00001602564202084F83D00256384F83E508E
:100DF000002070BD01EB4106431EB3FBF6F35B1C04
:100E0000B3E70120C2E701EB4101401EB0FBF1F066
:100E1000401CC0F30B00B7E7A086010080841E00D1
:100E200000093D0040420F0070477047704770470F
:100E3000704700002DE9FF4F83B09A46DDE9119716
:100E400093460446DDF84080FFF790FD054694F890
:100E50003D00202870D119230122714920460095B8
:100E600001F01EFB0028F5D194F83C00012863D066
:100E7000012084F83C0020680168C90703D101689B
:100E800041F0010101602068016821F40061016006
:100E9000222084F83D00402084F83E00002626648D
:100EA000C4F82480A4F82A90608D20855D48E06213
:100EB000CDE9007553465A462046049901F008F9D9
:100EC00000287CD1208DD0B1012821D002282068B3
:100ED00024D0416980690090208D032869D80128B9
:100EE0002BD0514902283B464FF00002009559D0C3
:100EF0008846204601F0D4FA002860D13CE0206802
:100F0000416981690091016841F40071016077E0F5
:100F10002068016821F480610160F0E7016821F434
:100F2000806101602068016841F40061016020680F
:100F300041698069009063E06FE02A4639462046A7
:100F400001F02DFB98BB20680069616A08704EE0D3
:100F50002068016841F40071016020680069616ADD
:100F60000870606A401C6062218D491E2185618D78
:100F7000491E6185216838E02068016821F480619C
:100F8000016020680069616A0870606A401C6062E4
:100F9000208D401E2085608D401E60853B460022CE
:100FA00041460095204601F07BFA00B9D0E706E003
:100FB000FFE72A463946204601F0F1FA18B1012030
:100FC00007B0BDE8F08F20680069616A0870606A48
:100FD000401C6062218D491E2185618D491E6185FD
:100FE00021684A69D24352070AD409690170606ACC
:100FF000401C6062208D401E2085608D401E6085F3
:10100000208D00287FF468AF202084F83D0084F80C
:101010003E6084F83C600020D2E70220D0E7000068
:10102000020010000000FFFF040001002DE9FF4F47
:1010300083B09A46DDE9119793460446DDF8408077
:10104000FFF794FC054694F83D0020287FD1192332
:10105000012240492046009501F022FA002876D16D
:1010600094F83C00012872D0012084F83C002068EC
:101070000168C90703D1016841F0010101602068DE
:10108000016821F400610160212084F83D004020C6
:1010900084F83E0000262664C4F82480A4F82A9030
:1010A000608D20852C48E062CDE9007553465A4694
:1010B0002046049901F08AF870B930E02A46394692
:1010C000204601F09FFA58B1206C042804D1206812
:1010D000016841F400710160012007B0BDE8F08FA4
:1010E000606A216800780861606A401C6062218D36
:1010F000491E89B22185628D521E6285226853691C
:10110000DB435B070BD469B100781061606A401C57
:101110006062208D401E2085608D401E6085208D80
:101120000028CBD12A463946204601F093F9002801
:10113000CAD154F83D0B016841F4007101602020D0
:1011400004F81E09E67766770020C6E7FFE702206D
:10115000C3E70000020010000000FFFF10B586B0DA
:10116000044614216846FFF763F81B49206888424B
:1011700030D11A48016841F00201016000686946F7
:1011800000F002000590C020009012200190012084
:10119000029003200390042004901148FFF70AFBFB
:1011A0000E481030016841F400110160006800220F
:1011B00000F40010059011461F2000F07DF81F205C
:1011C00000F06CF800221146202000F075F8202075
:1011D00000F064F806B010BD005400403038024002
:1011E0000004024070477047024881680278114449
:1011F00081607047040000200B4810B5016841F47D
:1012000000710160016841F480610160016841F48E
:1012100080710160032000F06FF8002000F006F8F4
:1012200000F024F8002010BD003C024070B50D4DC8
:1012300004464FF47A712878B1FBF0F00A49096846
:10124000B1FBF0F000F004FB48B9102C07D20022EB
:101250002146501E00F030F800206C6070BD012067
:1012600070BD000004000020100000200A4808B5EE
:10127000016841F480410160006800F48040009002
:101280000548001F016841F080510160006800F0CE
:101290008050009008BD000044380240002809DB5F
:1012A00000F01F02012191404009800000F1E02080
:1012B000C0F8001170470000F0B40E4B1B680C46DC
:1012C000C3F30223C3F10705042D00D90425191D1A
:1012D000072901D2002300E0DB1E012606FA05F1F2
:1012E000491E214099409E40761E16403143F0BC75
:1012F00001F084BB0CED00E0064900F0070208682D
:101300004FF6FF03184040EA0220034A10430860EA
:10131000704700000CED00E00000FA052DE9F047F1
:101320000E46050065D0DFF81481D8F80000F7B24A
:1013300000F00F00B04207D288F80070D8F8000023
:1013400000F00F00B04254D128683D4C810712D5FF
:10135000400703D5206840F4E0502060287800075B
:1013600003D5206840F4604020602068A96820F020
:10137000F000084320602878C0072DD03049686805
:101380000839012812D0022813D0032811D0096887
:10139000890700292DDA216821F00301014321602A
:1013A000FFF7E4FA814641F2883A0EE009688903C2
:1013B000EFE709688901ECE7FFF7D8FAA0EB09012C
:1013C000514502D90320BDE8F0872068696800F024
:1013D0000C00B0EB810FEFD1D8F80010404601F0BF
:1013E0000F01B14207D90770006800F00F00B0424A
:1013F00001D00120E7E72878400705D52068E96893
:1014000020F4E050084320602878000706D52068C3
:10141000296920F4604040EAC100206000F038F8FB
:101420002168084AC1F30311515CC84006490860AD
:1014300006480068FFF7FAFE0020C4E7003C0240BF
:101440000838024044330008100000200800002043
:101450000448054900680968044AC1F38221515CC7
:10146000C84070471000002008380240543300087C
:101470000448054900680968044AC1F34231515CD7
:10148000C84070471000002008380240543300085C
:10149000154810B5006810F00C02144813D0144918
:1014A000042A0FD0082A0ED10F4C241F226823686B
:1014B00002F03F025B0207D52068C0F38810A0FB52
:1014C000010106E0084610BD2168C1F38811A1FBA7
:1014D00000010023FEF774FE2168C1F30141491C9D
:1014E0004900B0FBF1F010BD083802400024F400C0
:1014F00040787D012DE9F84F04006ED02078DFF8A8
:101500003C93C007A9F104054AD009F10400016821
:10151000C1F38101012908D00068C0F381000228CD
:101520000AD1D9F80000400206D52868800337D5D3
:1015300060680028E1D033E06068B0F5803F10D0EB
:10154000B0F5A02F286810D020F4803028602868DB
:1015500020F4802028606068A8B1FFF707FA0646EB
:101560000DE0286840F48030F4E740F480202860E3
:10157000F7E700BFFFF7FAF9801B642873D82868E3
:101580008003F7D50CE0FFF7F1F9064605E000BF50
:10159000FFF7ECF9801B6428F0D828688003F7D4A3
:1015A0002078DFF89C8280074FF0000A3ED5A348E0
:1015B000001D016811F00C0F08D00068C0F3810015
:1015C00002280BD1D9F80000400207D42868800710
:1015D00016D5E068012800D112E02BE1E068B8B12F
:1015E0000120C8F80000FFF7C1F9064605E000BF7A
:1015F000FFF7BCF9801B0228C0D828688007F7D500
:101600002868216920F0F80040EAC10028600DE058
:10161000C8F800A0FFF7AAF9064604E0FFF7A6F90C
:10162000801B02281FD828688007F7D4207800077D
:1016300022D5824E83486169703671B10121016003
:10164000FFF794F9074604E0FFF790F9C01B022862
:1016500009D830688007F7D50EE0C0F800A0FFF782
:1016600085F9074605E082E0FFF780F9C01B0228F4
:101670007DD830688007F7D42078400768D5DFF838
:10168000BCB100270BF13C0BDBF80000C0000BD411
:10169000DBF8001041F08051CBF80010DBF80000BF
:1016A000012700F080500090674E3068C00510D4CC
:1016B000306840F480703060FFF758F9009005E022
:1016C000FFF754F90099401A022850D83068C00535
:1016D000F6D55A4EA0686C3601280FD00528306820
:1016E00010D020F001003060306820F0040030603D
:1016F000A068B8B1FFF73AF900900FE0306840F009
:101700000100F4E740F004003060F7E7FFF72EF93E
:101710000099411A41F28830814266D830688007CA
:10172000F4D50EE0FFF722F9009007E0FFF71EF96D
:101730000099411A41F28830814256D830688007BA
:10174000F4D42FB1DBF8001021F08051CBF8001059
:10175000A069C8B33949091D0968C1F3810102298B
:101760004AD00228504607D0C8F8600000E03CE0AC
:10177000FFF7FCF804463BE04746C8F86000FFF777
:10178000F5F8064605E000BFFFF7F0F8801B0228D9
:101790002BD828688001F7D4D4E907010843A16A4F
:1017A0002A4A490802EB0141626A41EA8211084370
:1017B00094F82C1040EA0161C9F800100120386645
:1017C000FFF7D4F8044606E036E000BFFFF7CEF896
:1017D000001B022809D828688001F7D52CE000BF3B
:1017E000FFF7C4F8001B022802D90320BDE8F88FD8
:1017F00028688001F4D41FE00128F7D0D9F8000050
:10180000E26900F48001914214D1226A00F03F01A4
:1018100091420FD147F6C071626A0140914209D1ED
:10182000A26A00F44031914204D1E16A00F0706094
:10183000884201D00120D9E70020D7E704380240D0
:1018400000004742800E4742007000400000FFFF4A
:1018500010B5401EB0F1807F01D3012010BD4FF0C4
:10186000E02460610F21601701F0C8F80020A0613A
:1018700007202061002010BD70B5040004D094F84A
:101880003900002510B106E0012070BD84F8385001
:10189000204600F023F8242084F839002068C1682D
:1018A00021F40051C160204601F002F8206801696E
:1018B00021F4904101612068416921F02A014161D0
:1018C0002068C16841F40051C160E563202084F8BC
:1018D000390084F83A00002070BD000010B586B0D1
:1018E000044614216846FEF7A3FC14492068884288
:1018F00021D113480021026842F010020260006802
:1019000000F0100005900E481438026842F0010201
:101910000260006800F0010005904FF4C060009084
:101920000220CDE9010103200390072004906946BD
:101930000448FEF73FFF06B010BD00000010014054
:101940004438024000000240FEE700000148FFF773
:1019500015B80000180000200148FFF76CB800001F
:101960001800002038B5806B002190F83D202B4BEB
:1019700046F2A8141B68B3FBF4F3C3EBC30303EBF9
:10198000830300933BB15B1E009303681B689B05B8
:1019900005D5009BF6E7036C43F020030364436B1B
:1019A00003B1D963836B03B1D96303681C6824F462
:1019B00080641C604185436B03B11965836B03B17F
:1019C000196503681C6824F001041C6090F83D4010
:1019D0002023602C0BD0282434EA02020FD080F898
:1019E0003D3080F83E1000BFFFF758F938BD80F851
:1019F0003D3080F83E100164FEF7BEFF38BD02683E
:101A0000136843F0010313600268136843F48063B2
:101A10001360016380F83D40E6E7000010000020FD
:101A200070B5044690F83D0094F83E10102901D09E
:101A3000402906D1222804D121680A6822F40062D4
:101A40000A60282131EA00024FF000054FF020061D
:101A500026D021684968090505D4602803D084F898
:101A60003D6084F83E50256320684168090537D5FC
:101A7000416821F400614160606B90F835203C4979
:101A8000012A11D00165606BFEF75FFE38B3206854
:101A9000016821F00101016084F83D60606B1CE089
:101AA000256384F83D10DFE7A06B0165A06BFEF7AE
:101AB0004CFEA0B120684169C943490605D40069BC
:101AC000616A0870606A401C60622068016821F0E9
:101AD0000101016084F83D60A06B016D884710E052
:101AE00094F83D10602910D04169C943490605D4D6
:101AF0000069616A0870606A401C60622046FFF7F6
:101B0000CDF8206CC1071CD115E084F83D60256438
:101B10004169C943490605D40069616A0870606A71
:101B2000401C60622068016821F0010101602046CC
:101B3000FEF722FFE5E7810703D4410701D4000740
:101B400004D52068416821F4E061416094F83D00CB
:101B5000216C49070BD5282809D10648E062256386
:101B600084F83D6084F83E502046FFF75DF970BD73
:101B7000651900080000FFFF01684A69D243520559
:101B80000FD46FF480624A61002140F8301F202298
:101B900042738173026942F0040202610173012001
:101BA00070470020704710B5C26A438D0168042B4E
:101BB00006D0438D032B08D0438D022B1DD012E09D
:101BC0004A6822F480624A600CE04B6823F4806328
:101BD0004B60042A06D0022A04D001680A6822F465
:101BE00080620A6001680969426A1170416A491C91
:101BF0004162418D491E418510BD012A30D0102A15
:101C00002ED0042A30D0022A2ED00A6842F4007264
:101C10000A6001680969426A1170416A491C41629F
:101C2000428D521E4285026812690A70416A491C3F
:101C30004162418D491E418501684A6822F4407223
:101C40004A60202180F83D1090F83E200021402A73
:101C500080F83E100CD012210163FFF7E6F810BDAA
:101C60000A6822F48062D3E70A6842F48062CFE710
:101C70000163FFF7DCF810BD38B590F83D1022295C
:101C800014D1418D032912D901680969426A117082
:101C9000416A491C4162418D491E4185418D03299C
:101CA00004D10068416821F48061416038BDC26A96
:101CB000022AFBD0012901D00029F7D1274946F299
:101CC000A81300220968B1FBF3F101EB8101009137
:101CD00001682023009C641E009422D00C68A40597
:101CE000F8D40C6824F480640C6001684C6824F417
:101CF000E0644C6001680969446A2170416A491CCA
:101D00004162418D491E418580F83D3090F83E107A
:101D100080F83E2040291DD012210163FFF785F88D
:101D200038BD046C44F0200404644C6824F4E0647E
:101D30004C6001680969446A2170416A491C41622A
:101D4000418D491E418580F83D3080F83E20FEF7E8
:101D5000A5FF38BD0263FFF76AF838BD1000002008
:101D600010B5C16A90F83D20212A0BD1428D52B1A5
:101D7000416A026809781161416A491C4162418DDA
:101D8000491E418510BD00222023082910D020299A
:101D90000ED011F5803F0BD001684C6824F4E0644C
:101DA0004C601121016380F83E2080F83D300EE048
:101DB00001684C6824F4E0644C6001680C6844F4E9
:101DC00000740C60026380F83D3080F83E20FFF71D
:101DD0002DF810BD10B590F83D1090F83E30C26A55
:101DE000048DB4B1212903D0402B11D122290FD168
:101DF000418DE1B390F83E10402942D0416A02681B
:101E000009781161416A491C4162418D491E418531
:101E100010BD2129E8D120230021082A13D0202A2F
:101E200011D012F5803F0ED00268546824F4E064AB
:101E300054601122026380F83E1080F83D3000BFEC
:101E4000FEF7F4FF10BD0268546824F4E0645460A7
:101E50000268146844F400741460016380F83D3033
:101E600090F83E2080F83E10402AE9D100E002E0E0
:101E7000FEF7DEFF10BD0068416821F4806141601B
:101E800010BDBDE8104000F0D3B8000078B590F860
:101E90003E50C26A036B90F83D6000240168222E18
:101EA0007AD1066D0EB9402D76D0056D1DB9056944
:101EB000B5F5404F09D0458D05B3468D384D012EFF
:101EC0000ED0438D022B3AD05DE04A698A690092B8
:101ED0000A6842F480720A60016D491C016578BD90
:101EE000AA4213D10A6822F480620A6001684A6833
:101EF000120503D50A6822F4806216E04A698A69ED
:101F000000920A6842F400720A6039E0082A10D090
:101F1000202A0ED0122B0AD0042A03D0022A01D084
:101F2000102AE7D10A6842F480620A6024E0012A9C
:101F3000E0D00A6822F480620A600168DEE7042AC1
:101F400021D0022A1FD0102A1DD00B6823F48063F1
:101F50000B6001680B6843F400630B6001684B6819
:101F60001B0509D5AA4212D0012A10D0082A0ED08A
:101F7000102A0CD0202A0AD001684A698969009188
:101F8000046578BD08E00B6843F48063E5E74A68C0
:101F900042F480524A60EFE7486988690090F0E7B0
:101FA0000000FFFF90F83E10402910D00169B1F504
:101FB000804F19D0016DA9B3016D012910D1416C79
:101FC0005FF0F10201F4407142EAD11106E0016DC7
:101FD0000029416C05D0C9B241F0010100680161DE
:101FE000704701F0FE01F9E790F83D102129416C9E
:101FF00009D0C9B241F0010102681161416B29B1F8
:10200000C96B49B902E001F0FE01F5E7816B0029D7
:10201000E6D0C96B0029E3D00068416841F4006153
:1020200041607047FFE7416CF02201F44071CBE75B
:1020300010B590F83D10026D22B3026D012A2FD029
:10204000026D022A1DD1222931D0428D0AB12129E7
:1020500033D0428D002A14D1212912D101684A6857
:1020600022F4E0624A6001680A6842F400720A6081
:1020700000210163202280F83D2080F83E10FEF709
:10208000D7FE10BDC16C0129816C02D0C1F30721BC
:1020900008E00268C9B21161016D891C016510BDBB
:1020A000816CC9B202681161016D491CF6E70068D4
:1020B000016841F48071016010BD416A02680978CD
:1020C0001161416A491C4162418D491E418510BD23
:1020D0002DE9F84F0446006889460B9D0168984633
:1020E000174641F4806101602068016841F4807105
:1020F000016000954FF0011B0022594620460A9BC3
:1021000000F0CEF94FF4007A40B120680068C005B5
:1021100001D5C4F840A00320BDE8F88F216809F07C
:10212000FE0008612B46284920460A9A00F0ECF987
:10213000F0BB20684169806900902A4620460A99D0
:1021400000F060FA40B1206C04283AD120680168A0
:1021500041F40071016034E0FEB2B8F1010F09D022
:102160002168380A08612A4620460A9900F04AFA8E
:102170000028E8D1206806612A4620460A9900F026
:1021800041FA0028DFD12068016841F480710160C4
:1021900000950022594620460A9B00F081F900284C
:1021A000B3D1216809F0FF0040F00100086100E0B0
:1021B00007E02B46044920460A9A00F0A5F90028BA
:1021C000AAD00120A8E70000020001002DE9F84391
:1021D000044600680D46DDE90897016898461646F2
:1021E00041F4807101604B4600224FF001112046FE
:1021F000009700F055F948B120680068C00502D585
:102200004FF4007020640320BDE8F883216805F0D6
:10221000FE0008613B464A461549204600F074F925
:1022200088B920684169806900903A46494620464D
:1022300000F0E8F948B1206C042804D12068016856
:1022400041F4007101600120DEE7F5B2B8F1010F41
:1022500009D02168300A08613A464946204600F014
:10226000D1F90028E7D1206805610020CCE7000003
:10227000020001002DE9F04190F83D40C26A0023C0
:1022800020261C4F01686FF48065082A01D0202A9F
:1022900001D1282C04D0212C16D04D61BDE8F0814D
:1022A000C7624A6822F4E0624A6001684D610168D1
:1022B0000A6822F480620A60036380F83D6080F857
:1022C0003E30FEF7B1FDE9E7C7622122026380F8E4
:1022D0003D6080F83E304A6822F4E0624A6001685E
:1022E0004D6101680A6822F480620A60FEF77BFF94
:1022F000D4E700000000FFFFF8B590F83D60044609
:102300000068416821F4E06141602068002541696E
:102310000091016841F0010101602068016821F429
:102320008061016020684168090520D5474F222E51
:1023300048D02A2E46D0616B096849686185618D55
:1023400019B1216C41F004012164416821F400615C
:102350004160606BFEF70BFA012808D0606B0765DF
:10236000606BFEF7F2F910B1606B016D8847608D0C
:1023700008B320684169C943490708D40069616A04
:102380000870606A401C6062608D401E6085206835
:102390004169C943490608D40069616A0870606AE6
:1023A000401C6062608D401E6085608D18B1206C9D
:1023B00040F004002064206C00B32046BDE8F840E3
:1023C000FFF72EBBA16B096849686185618D19B162
:1023D000216C41F004012164416821F400614160F5
:1023E000A06BFEF7C4F90128C1D0A06B0765A06BF4
:1023F000FEF7ABF90028BAD0A06BB6E72A2E06D1BB
:102400002563282084F83D002046FEF7EBFE94F873
:102410003D10202028290DD0216B222901D0222E09
:1024200007D1256384F83D0084F83E502046FEF72E
:10243000D9FEF8BD0649E162256384F83D0084F8C1
:102440003E502046FEF7F0FCF8BD0000651900087C
:102450000000FFFF70B516460D4604460DE020460D
:10246000FFF78AFB08B1012070BD681C05D0FEF79C
:102470007DFA801BA84207D835B120684069C04367
:102480004007ECD4002070BD002044F8300F20211C
:102490006173A073216941F0200121612073E2E79B
:1024A0002DE9F0471E4690460D460446C1F3074706
:1024B000DDF8209008E0701C06D0FEF757FAA0EB7C
:1024C0000900B0420FD876B12068012F18D080697A
:1024D00025EA00000004000C14D000214145EAD098
:1024E0000020BDE8F087002044F8300F2021617300
:1024F000A073216941F02001216120730120F0E7E0
:102500004069E5E70121E9E72DE9F0479A46914660
:102510000E46044600254FF02008C1F3074725E08A
:1025200020684069C043400514D42068016841F424
:102530000071016021686FF480604861256384F850
:102540003D8084F83E50206C40F00400206484F804
:102550003C501FE0B9F1FF3F08D0FEF707FAA0EBAF
:102560000A0149450CD8B9F1000F09D02068012FA4
:1025700013D0806926EA00000004000C0BD0CFE7DE
:1025800044F8305F84F80D80A573206940F0200086
:10259000206125730120BDE8F0874069EAE72DE955
:1025A000F041002590460E460446202717E040697A
:1025B000C043C0060CD454F8301B6FF010004861C3
:1025C00044F810596777A577206A2062257717E0CD
:1025D000FEF7CCF9A0EB0800B04208D83EB1206865
:1025E0004169C9434906E2D40020BDE8F08144F8BE
:1025F000305F6773A573206940F020002061257368
:102600000120F2E770B516460D4604460DE020465F
:10261000FFF7B2FA08B1012070BD681C05D0FEF7C3
:10262000A5F9801BA84207D835B120684069C0438E
:102630000006ECD4002070BD002044F8300F2021AB
:102640006173A073216941F0200121612073E2E7E9
:102650001FB50221642203A88DE807000B46002263
:102660009F210648FEF7E6FB10B1012004B010BD23
:10267000BDF80C0040BA4009F8E70000180000203F
:1026800010B52DED028BFDF750FE9FED0A1B53ECAC
:10269000112BFDF7D8FD41EC180B08A053EC182BBB
:1026A00000F09CF9B0EE480AF0EE680ABDEC028B2F
:1026B00010BD0000000000000000C03F54656D70B8
:1026C00056616C75653A20256C6660430A0000000F
:1026D00073B5064684B00124642505A88DE8310051
:1026E000234632469F211048FEF7A0FCC8B903A834
:1026F0008DE83100012332469F210B48FEF79AFBFB
:1027000078B99DF80C0020B19DF8140008B10120A3
:1027100000E000209DF81410884202D1002006B08D
:1027200070BD0120FBE700001800002000B587B055
:1027300014216846FDF77CFD16480021026842F02E
:1027400002020260026802F002020592026842F090
:1027500001020260026802F001020592026842F082
:1027600020020260006800F0200005904FF48040D5
:1027700000900948CDE9010169460848FEF71AF8BA
:10278000002211462820FEF797FD2820FEF786FD3F
:1027900007B000BD30380240000031100014024084
:1027A0000D4810B50B4901600C49416000214FF400
:1027B00080428160C0E9031241618161C1610162AF
:1027C000FEF76EFA002803D0BDE81040FDF7BCBF4D
:1027D00010BD00000054004018000020A086010039
:1027E0000C4810B50A4901604FF4E1314160002105
:1027F00081600C22C160C0E904128161C161FFF7F0
:102800003BF8002803D0BDE81040FDF79DBF10BD88
:10281000001001406C000020FEE7704770477047D1
:10282000FEF7E2BC10B592B030216846FDF700FD1E
:1028300014210CA8FDF7FCFC14480024016841F0A9
:1028400080510160006800F08050119010480168CC
:1028500041F4804101600068069400F480401190CA
:102860000220009001200390102004906846FEF79B
:1028700041FE0F20CDE90C040E940F9400210CA80A
:102880001094FEF74BFD12B010BD0000403802401E
:10289000007000400548016841F47001016003497F
:1028A0004FF00060803908607047000088ED00E05C
:1028B0002DE9F041044600680169E26821F44051C5
:1028C000114301612169A068E2690843616911430C
:1028D00008432168CA6849F20C639A430243CA60FC
:1028E00020684169A26921F4407111434161E069A6
:1028F000192764253226B0F5004F354A354920683E
:102900004FF0000806D0884201D0904236D1FEF741
:10291000AFFD35E0884201D0904202D1FEF7A8FD1C
:1029200001E0FEF795FD61684A18A0FB070148EB3E
:102930000803FDF745FC0146B0FBF5F00201B1FBD1
:10294000F5F06FF01803584301EB800006EBC00070
:10295000B0FBF5F000F0F80002EB4002B1FBF5F03F
:10296000584301EB800006EBC000B0FBF5F000F02F
:102970000700216810448860BDE8F081FEF768FD1B
:1029800061688B0F8A00A0FB0701FDF719FC014667
:10299000B0FBF5F06FF01802504301EB800006EB3E
:1029A0000010B0FBF5F000F0F002B1FBF5F002EB27
:1029B0000012B1FBF5F06FF01803584301EB8000F3
:1029C00006EB0010B0FBF5F000F00F00D1E70000BF
:1029D0000014014000100140FEE700000FB4054B59
:1029E00010B503A9044A029800F0EAF810BC5DF89B
:1029F00014FB0000F1320008140000200907090E42
:102A0000002804DB00F1E02080F80014704700F09B
:102A10000F0000F1E02080F8141D704702E008C8A4
:102A2000121F08C1002AFAD170477047002001E048
:102A300001C1121F002AFBD1704700002DE9FF5F82
:102A400082B00021DDE90430020DDDF840B003431F
:102A500018D044F61050A2F2FF32424315141198D8
:102A600001281FD0A5EB0B00401C5FEA000A4FF0C5
:102A700000064E4FDFF83891B046504615D5CAF1E2
:102A8000000413E0119801244AA3012801D16FEA40
:102A90000B010298119AC0E90031C0E9024206B068
:102AA000BDE8F09FCBF10000DFE704460021404A7B
:102AB000491842EB0450CDE9001012E0E00707D0BE
:102AC00032463B4640464946FDF7BDFB80468946B7
:102AD00032463B4610461946FDF7B5FB06460F4603
:102AE0006410002CEAD1DDE90401DDE90023BAF12C
:102AF000000F06DAFDF7A7FB42464B46FDF7A3FBA6
:102B000005E0FDF758FD42464B46FDF754FD0446EF
:102B10000E460022284BFDF7D5FD03D84FF0FF30BD
:102B2000014607E00022254B20463146FDF79CFC7C
:102B3000FDF7B0FD102409E0002C0ADB0A22002377
:102B4000FDF73EFB039B30321A55641E50EA01022A
:102B5000F2D1641C039AC4F111031444119A012A9E
:102B600003D0012208430DD10AE0084304D000201D
:102B70004FF0110B119072E7A3EB0B056D1E0DE0EA
:102B80005B4504DD4FF0000205F1010504E003DAC6
:102B90004FF00002A5F10105002AECD0029811992E
:102BA000C0E90231C0E9004579E7000000001440A7
:102BB0000000F03F300000000000F0430000E03F64
:102BC0002DE9FF4F95B09B468946064600250FE24A
:102BD000252877D100242746F84A0121059400E0F2
:102BE000044316F8013F203B01FA03F01042F7D1ED
:102BF00030782A2811D06FF02F033078A0F13002FE
:102C0000092A16D8059A44F0020402EB820203EB6B
:102C100042021044761C0590EFE759F8042B059208
:102C2000002A03DA504244F40054059044F00204B0
:102C3000761C30782E2816D116F8010F44F00404C3
:102C40002A280DD06FF02F023078A0F13003092B25
:102C500009D807EB870302EB4303C718761CF3E799
:102C600059F8047B761C30786C280FD006DC4C2891
:102C700017D068280DD06A2814D104E0742810D029
:102C80007A280FD10DE044F400140AE044F48014D3
:102C900001E044F440147278824202D104F58014B9
:102CA000761C761C307866280BD013DC582877D039
:102CB00009DC002875D04528F6D04628F4D04728EE
:102CC0001AD19DE118E0632835D0642879D06528B1
:102CD00012D195E1702873D008DC6728F1D06928FB
:102CE0006FD06E280DD06F2806D1B5E073282CD098
:102CF000752875D0782874D05A46179990476D1C5E
:102D000075E1C4F30250022809D003280DD0D9F888
:102D1000001004280DD00D6009F1040967E1D9F80D
:102D20000010EA17C1E90052F6E7D9F800100D804B
:102D3000F2E70D70F0E719F8041B8DF80010002081
:102D40008DF80100EA46012003E059F804AB4FF08A
:102D5000FF3061074FF0000102D40DE008F10101DE
:102D60008846B9420FDA8045F8DB1AF808100029C6
:102D7000F4D108E008F1010188468142FADB1AF833
:102D800008100029F6D105985B46A0EB08072146FC
:102D90003846179A00F094FA284400EB080507E03B
:102DA0004DE029E10DE01AF8010B5A4617999047BA
:102DB000B8F10108F7D25B4621463846179A13E16D
:102DC00042E00A220092C4F302524FF0000A022AA3
:102DD00008D059F804CB032A4FEAEC710AD00DE071
:102DE00029E02AE009F1070121F00702F2E802C117
:102DF000914609E00FFA8CFC4FEAEC71042A03D1EA
:102E00004FFA8CFC4FEAEC71002907DA0A460021E0
:102E1000DCF1000C61EB02012D2202E0220504D559
:102E20002B228DF80420012203E0E20701D02022AA
:102E3000F7E7904659E00A2102E010220DE0102148
:102E40004FF0000A00910BE010224FF0000A44F00E
:102E500004040827009203E008224FF0000A0092C1
:102E6000C4F30252022A05D059F804CB0021032AE8
:102E700008D009E009F1070121F00702F2E802C1D8
:102E8000914605E01FFA8CFC042A01D10CF0FF0CDE
:102E90004FF00008220728D5702806D0009B83F049
:102EA000100353EA0A0305D00EE040228DF80420F7
:102EB000012208E05CEA010206D030228DF80420ED
:102EC0008DF8050002229046009B83F0080353EA28
:102ED0000A030AD15CEA010201D1620705D530225A
:102EE0008DF804204FF001087F1E582804D034A02C
:102EF00003900EA802900DE036A0F9E75346604615
:102F0000009AFDF75DF984460398825C0298401EA2
:102F1000029002705CEA0100F0D1029806A9081A3A
:102F200000F1200A600702D524F4803400E0012774
:102F3000574502DDA7EB0A0000E0002000EB0A0184
:102F4000009005984144401A0590E00306D45B4682
:102F50002146179A059800F0B3F90544002706E0CA
:102F600001A85A46C05D179990476D1C7F1C4745C4
:102F7000F6DBE0030CD55B462146179A059800F076
:102F80009FF9054404E030205A46179990476D1C7C
:102F90000099481E00900029F5DC08E0029802998B
:102FA0005A460078491C0291179990476D1CBAF156
:102FB0000001AAF1010AF1DC65E100000928010025
:102FC000303132333435363738396162636465669F
:102FD0000000000030313233343536373839414261
:102FE000434445460000000000F058F90544761CB3
:102FF000307800287FF4ECAD19B02846BDE8F08F9A
:10300000620700D4062709F1070222F0070CFCE84A
:103010000223E14603F000485FEA080C02D00FF2F9
:10302000702C0DE05FEA045C02D50FF2682C07E01B
:103030005FEAC47C02D00FF2602C01E0AFF2700CAA
:103040004FF0FF3823F00043CDF850C065280CD076
:1030500006DC452809D046281DD047283DD13DE053
:10306000662818D067287ED138E00021112F01DBB7
:10307000112000E0781CCDE9000106A90EA8FFF799
:10308000DDFCDDE90F010E9A03910021009207F1AA
:10309000010A04914DE04FF000400097CDE9011086
:1030A00006A90EA8FFF7CAFCDDE90F0203920E9BEA
:1030B00011990022DDF80CA00093049211B9791C3B
:1030C00000EB010AB7EB0A0004D4C0F1FF3007F1AE
:1030D000010A0490AAEB0700019044E0012F00DAF6
:1030E00001270021112F01DD112000E03846CDE934
:1030F000000106A90EA8FFF7A1FCDDE90F010E9A59
:103100000391002104910092BA4621070CD403993F
:10311000514500DA8A46BAF1010F05DD009AAAF19D
:103120000101515C302908D0B84202DA10F1040FD5
:1031300006DA0121CDE9011015E0AAF10101E9E764
:10314000002805DC049901440491AAEB000102E087
:10315000411C514500DD8A460499401A401C0190EB
:103160004FF000400290200704D40198504501DB45
:10317000CDF8048000208DF84F0002980DF14F0724
:10318000B0F1004F25D02B200E9002984FF002088E
:1031900000280CDA404202902D200E9007E00A2110
:1031A0000298FDF7CFF83031029007F8011DB8F111
:1031B0000001A8F10108F2DC02980028EFD1791E85
:1031C0000E980870307800F0200040F0450007F8B5
:1031D000020D12A8C01B00F107081498007800B176
:1031E000012000EB0A01019801EBE07105984144D0
:1031F000401A401E0590E00306D45B462146179A0C
:10320000059800F05DF805441498007818B15A4606
:10321000179990476D1CE00324D55B462146179A09
:10322000059800F04DF805441CE00498002807DBE1
:10323000DDE90301884203DD0098405C179901E055
:10324000179930205A469047049805F10105401C13
:1032500004900198401E019004D12E205A461799DF
:1032600090476D1CBAF10001AAF1010ADDDC05E00E
:1032700017F8010B5A46179990476D1CB8F10001D9
:10328000A8F10108F4DC5B462146179A0598ABE6E5
:103290002D0000002B000000200000002DE9F0416F
:1032A000044600251E461746880404D405E0394626
:1032B0002020B0476D1C641EF9D52846BDE8F0817A
:1032C0002DE9F041044600251E469046C80301D56D
:1032D000302700E02027880404D505E04146384621
:1032E000B0476D1C641EF9D52846BDE8F08100008A
:1032F00003490A685206FCD5C2B24A607047000012
:1033000000100140FDF778FFFFF78CFAFFF70EFA87
:10331000FFF746FAFFF764FA00210120FFF7D8F91A
:10332000074C4FF47A7500BFFFF792F9208001280F
:1033300001D0FFF7A5F92846FDF71CFAF4E70000D5
:103340000000002000000000000000000102030453
:103350000607080900000000010203047C3300088E
:1033600000000020180000001C2A00089433000808
:1033700018000020980400002C2A0008000000001B
:103380000100000010000000000000000024F40014
:043390000000000039
:040000050800018965
:00000001FF
