:020000040800F2
:10000000600400209D0100088F0D0008EF0C00081F
:100010008D0D0008D5020008B10F00080000000097
:10002000000000000000000000000000930D000828
:10003000D702000800000000910D0008950D00088F
:10004000B7010008B7010008B7010008B7010008B0
:10005000B7010008B7010008B7010008B7010008A0
:10006000B7010008B7010008B7010008B701000890
:10007000B7010008B7010008B7010008B701000880
:10008000B7010008B7010008B7010008B701000870
:10009000B7010008B7010008B7010008D90200083D
:1000A000B7010008B7010008B7010008B701000850
:1000B000B7010008B7010008B7010008B701000840
:1000C000B7010008B7010008B7010008B701000830
:1000D000B7010008B7010008B7010008B701000820
:1000E000B7010008B7010008B7010008B701000810
:1000F000B7010008B7010008B7010008B701000800
:10010000B7010008B7010008B7010008B7010008EF
:10011000B7010008B7010008B7010008B7010008DF
:10012000B7010008B7010008B7010008B7010008CF
:10013000B7010008B7010008B7010008B7010008BF
:10014000B7010008B7010008B7010008B7010008AF
:10015000B7010008B7010008B7010008B70100089F
:10016000B7010008B7010008B7010008B70100088F
:10017000B7010008B7010008B7010008000000003F
:10018000B7010008B7010008DFF80CD000F090F8C4
:100190000048004789110008600400200648804795
:1001A00006480047FEE7FEE7FEE7FEE7FEE7FEE75C
:1001B000FEE7FEE7FEE7FEE7090E000889010008FA
:1001C0002DE9F05F0546002092469B46884606468C
:1001D000814640241BE0284641464746224600F01F
:1001E00057F853465A46C01A914110D31146184643
:1001F000224600F03EF82D1A67EB01084F462246D2
:100200000120002100F035F817EB00094E41201EB7
:10021000A4F10104DFDC484631462A464346BDE8E6
:10022000F09FD2B201E000F8012B491EFBD27047CB
:100230000022F6E710B513460A4604461946FFF7B2
:10024000F0FF204610BD30B50B46014600202022AD
:10025000012409E021FA02F59D4205D303FA02F5D3
:10026000491B04FA02F52844151EA2F10102F1DC33
:1002700030BD202A04DB203A00FA02F1002070474A
:100280009140C2F1200320FA03F3194390407047D4
:10029000202A04DB203A21FA02F00021704721FADB
:1002A00002F3D040C2F12002914008431946704742
:1002B000064C074D06E0E06840F0010394E80700B3
:1002C00098471034AC42F6D3FFF762FF04120008DF
:1002D00024120008FEE770474FF4007000F00CB8DD
:1002E00070470000B0F5007F02D10249012008707C
:1002F0007047000000000020044910B50A6802425F
:1003000002D00860FFF7EEFF10BD0000143C014072
:100310002DE9F84F00224FF0010803254FF00F0E92
:100320000B6808FA02F42340A3426ED14E68012EF6
:1003300005D0022E03D0112E01D0122E12D18668C4
:100340004FEA420C05FA0CF7BE43CF6807FA0CF7E8
:10035000374387604668A6430C79C4F30014944081
:1003600034434460C668570005FA07FC8C6826EAE7
:100370000C06BC403443C4604C68022C01D0122CE3
:1003800013D1D40800EB8404A346D4F8209054077A
:100390004FEAD46A0EFA0AF629EA06090E6906FA45
:1003A0000AF646EA0906CBF8206006680C7926EAC8
:1003B0000C0604F00304BC40344304604C68E400C1
:1003C00065D5364C266846F480462660246822F0BF
:1003D000030604F480440094314C3444A446D4F819
:1003E00008489607370F0EFA07F6B4432D4EB04271
:1003F00001D1002624E02C4EB04201D101261FE09D
:100400002A4EB04202D102261AE040E0284EB04205
:1004100001D1032614E0274EB04201D104260FE09B
:10042000254EB04201D105260AE0244EB04201D14A
:10043000062605E0224EB04201D1072600E008263C
:10044000BE402643CCF808681E4E34684F689C4373
:10045000FF0300D51C4334601A4C241D26684F68E6
:100460009E43BF0300D51E432660164E08363468EF
:100470004F689C43FF0200D51C433460114E0C367C
:1004800034684F689C43BF0200D51C433460521C43
:10049000102AFFF445AFBDE8F88F00004438024051
:1004A0000030014000000240000402400008024009
:1004B000000C0240001002400014024000180240EC
:1004C000001C0240003C0140014880687047000069
:1004D000080000200248816802781144816070475A
:1004E000080000200B4810B5016841F4007101605C
:1004F000016841F480610160016841F4807101602C
:10050000032000F06FF8002000F006F800F024F857
:10051000002010BD003C024070B50D4D04464FF464
:100520007A712878B1FBF0F00A490968B1FBF0F064
:1005300000F004FB48B9102C07D200222146501EBF
:1005400000F030F800206C6070BD012070BD00002C
:1005500008000020140000200A4808B5016841F492
:1005600080410160006800F4804000900548001F51
:10057000016841F080510160006800F080500090F7
:1005800008BD000044380240002809DB00F01F02CB
:10059000012191404009800000F1E020C0F80011E5
:1005A00070470000F0B40E4B1B680C46C3F30223E7
:1005B000C3F10705042D00D90425191D072901D20F
:1005C000002300E0DB1E012606FA05F1491E21404A
:1005D00099409E40761E16403143F0BC00F0FABCB4
:1005E0000CED00E0064900F0070208684FF6FF0333
:1005F000184040EA0220034A104308607047000098
:100600000CED00E00000FA052DE9F0470E4605006C
:1006100065D0DFF81481D8F80000F7B200F00F00C1
:10062000B04207D288F80070D8F8000000F00F0040
:10063000B04254D128683D4C810712D5400703D5FC
:10064000206840F4E05020602878000703D5206837
:1006500040F4604020602068A96820F0F000084362
:1006600020602878C0072DD03049686808390128F3
:1006700012D0022813D0032811D009688907002955
:100680002DDA216821F0030101432160FFF71CFFEF
:10069000814641F2883A0EE009688903EFE709686C
:1006A0008901ECE7FFF710FFA0EB0901514502D9E2
:1006B0000320BDE8F0872068696800F00C00B0EB0B
:1006C000810FEFD1D8F80010404601F00F01B14280
:1006D00007D90770006800F00F00B04201D0012078
:1006E000E7E72878400705D52068E96820F4E0505E
:1006F000084320602878000706D52068296920F47F
:10070000604040EAC100206000F038F82168084AE3
:10071000C1F30311515CC8400649086006480068EF
:10072000FFF7FAFE0020C4E7003C02400838024010
:10073000EC110008140000200C00002004480549BA
:1007400000680968044AC1F38221515CC8407047BF
:100750001400002008380240FC1100080448054934
:1007600000680968044AC1F34231515CC8407047CF
:100770001400002008380240FC110008154810B58C
:10078000006810F00C02144813D01449042A0FD04A
:10079000082A0ED10F4C241F2268236802F03F0262
:1007A0005B0207D52068C0F38810A0FB010106E0BA
:1007B000084610BD2168C1F38811A1FB0001002388
:1007C000FFF7FEFC2168C1F30141491C4900B0FB61
:1007D000F1F010BD083802400024F40040787D019B
:1007E0002DE9F84F04006ED02078DFF83C93C00765
:1007F000A9F104054AD009F104000168C1F381019F
:10080000012908D00068C0F3810002280AD1D9F874
:100810000000400206D52868800337D560680028AC
:10082000E1D033E06068B0F5803F10D0B0F5A02F84
:10083000286810D020F480302860286820F48020B8
:1008400028606068A8B1FFF73FFE06460DE0286803
:1008500040F48030F4E740F480202860F7E700BFE0
:10086000FFF732FE801B642873D828688003F7D511
:100870000CE0FFF729FE064605E000BFFFF724FE67
:10088000801B6428F0D828688003F7D42078DFF82C
:100890009C8280074FF0000A3ED5A348001D0168E6
:1008A00011F00C0F08D00068C0F3810002280BD1B2
:1008B000D9F80000400207D42868800716D5E06800
:1008C000012800D112E02BE1E068B8B10120C8F89E
:1008D0000000FFF7F9FD064605E000BFFFF7F4FD55
:1008E000801B0228C0D828688007F7D528682169AE
:1008F00020F0F80040EAC10028600DE0C8F800A030
:10090000FFF7E2FD064604E0FFF7DEFD801B02284C
:100910001FD828688007F7D42078000722D5824E98
:1009200083486169703671B101210160FFF7CCFD28
:10093000074604E0FFF7C8FDC01B022809D830684D
:100940008007F7D50EE0C0F800A0FFF7BDFD074611
:1009500005E082E0FFF7B8FDC01B02287DD83068B3
:100960008007F7D42078400768D5DFF8BCB10027AE
:100970000BF13C0BDBF80000C0000BD4DBF80010DF
:1009800041F08051CBF80010DBF80000012700F0A7
:1009900080500090674E3068C00510D4306840F435
:1009A00080703060FFF790FD009005E0FFF78CFD50
:1009B0000099401A022850D83068C005F6D55A4E22
:1009C000A0686C3601280FD00528306810D020F0C0
:1009D00001003060306820F004003060A068B8B1D9
:1009E000FFF772FD00900FE0306840F00100F4E77F
:1009F00040F004003060F7E7FFF766FD0099411A08
:100A000041F28830814266D830688007F4D50EE024
:100A1000FFF75AFD009007E0FFF756FD0099411AD5
:100A200041F28830814256D830688007F4D42FB123
:100A3000DBF8001021F08051CBF80010A069C8B39A
:100A40003949091D0968C1F3810102294AD00228E8
:100A5000504607D0C8F8600000E03CE0FFF734FDE6
:100A600004463BE04746C8F86000FFF72DFD064608
:100A700005E000BFFFF728FD801B02282BD828685F
:100A80008001F7D4D4E907010843A16A2A4A49083A
:100A900002EB0141626A41EA8211084394F82C108A
:100AA00040EA0161C9F8001001203866FFF70CFD2B
:100AB000044606E036E000BFFFF706FD001B0228F3
:100AC00009D828688001F7D52CE000BFFFF7FCFCAF
:100AD000001B022802D90320BDE8F88F2868800196
:100AE000F4D41FE00128F7D0D9F80000E26900F43F
:100AF0008001914214D1226A00F03F0191420FD14E
:100B000047F6C071626A0140914209D1A26A00F4BD
:100B10004031914204D1E16A00F07060884201D016
:100B20000120D9E70020D7E70438024000004742FF
:100B3000800E4742007000400000FFFF10B5401ECD
:100B4000B0F1807F01D3012010BD4FF0E02460613F
:100B50000F21601700F03EFA0020A06107202061FD
:100B6000002010BD70B5040004D094F839000025B1
:100B700010B106E0012070BD84F83850204600F026
:100B800023F8242084F839002068C16821F400513A
:100B9000C160204600F046F92068016921F49041C7
:100BA00001612068416921F02A0141612068C16822
:100BB00041F40051C160E563202084F8390084F8D5
:100BC0003A00002070BD000010B586B00446142124
:100BD0006846FFF72DFB14492068884221D113484D
:100BE0000021026842F010020260006800F010006C
:100BF00005900E481438026842F001020260006855
:100C000000F0010005904FF4C06000900220CDE993
:100C10000101032003900720049069460448FFF770
:100C200077FB06B010BD00000010014044380240C0
:100C3000000002402DE9F843044690F839001F46B1
:100C400016460D46202850D1B5B1AEB194F8380003
:100C500001284AD0012084F838004FF00008C4F879
:100C60003C80212084F83900FFF72EFCA6848146C1
:100C7000E68484F8388026E00120BDE8F883E08C23
:100C8000401EE084A0684B46B0F5805F4FF0000244
:100C90004FF080012046009703D000F057F9E8B9E3
:100CA0000DE000F053F9C8B928882168C0F30800A6
:100CB0004860206908B16D1C05E0AD1C03E02168A7
:100CC00015F8010B4860E08C0028D8D14B46002273
:100CD00040212046009700F039F908B10320CCE705
:100CE000202084F839000020C7E70220C5E7FEE78E
:100CF00000B587B014216846FFF79AFA1248002120
:100D0000026842F040020260026802F0400205926E
:100D1000026842F001020260006800F001000590E4
:100D20004FF4007000900948CDE901016946084878
:100D3000FFF7EEFA002211461720FFF733FC1720C9
:100D4000FFF722FC07B000BD303802400000111050
:100D5000001802400C4810B50A4901604FF4E13117
:100D60004160002181600C22C160C0E904128161F0
:100D7000C161FFF7F7FE002803D0BDE81040FFF780
:100D8000AFBA10BD001001401C000020FEE7704704
:100D900070477047FFF79EBB10B592B03021684690
:100DA000FFF746FA14210CA8FFF742FA1448002472
:100DB000016841F080510160006800F0805011909E
:100DC0001048016841F4804101600068069400F415
:100DD0008040119002200090012003901020049088
:100DE0006846FFF7FDFC0F20CDE90C040E940F942C
:100DF00000210CA81094FFF707FC12B010BD0000F2
:100E000040380240007000400548016841F470011C
:100E1000016003494FF000608039086070470000AE
:100E200088ED00E02DE9F041044600680169E268C0
:100E300021F44051114301612169A068E26908432E
:100E40006169114308432168CA6849F20C639A43F7
:100E50000243CA6020684169A26921F440711143CC
:100E60004161E069192764253226B0F5004F354A03
:100E7000354920684FF0000806D0884201D09042E2
:100E800036D1FFF76BFC35E0884201D0904202D1A9
:100E9000FFF764FC01E0FFF751FC61684A18A0FB12
:100EA000070148EB0803FFF78BF90146B0FBF5F0AB
:100EB0000201B1FBF5F06FF01803584301EB80001D
:100EC00006EBC000B0FBF5F000F0F80002EB4002CA
:100ED000B1FBF5F0584301EB800006EBC000B0FB1E
:100EE000F5F000F00700216810448860BDE8F0814B
:100EF000FFF724FC61688B0F8A00A0FB0701FFF756
:100F00005FF90146B0FBF5F06FF01802504301EBBA
:100F1000800006EB0010B0FBF5F000F0F002B1FB32
:100F2000F5F002EB0012B1FBF5F06FF01803584337
:100F300001EB800006EB0010B0FBF5F000F00F00B5
:100F4000D1E7000000140140001001402DE9F041FC
:100F5000984617460E460446069D1DE0681C1BD0A9
:100F60002DB1FFF7B1FAA0EB0800A84214D9206810
:100F7000C16821F4D071C1602068416921F001018C
:100F80004161202084F8390084F83A00002084F878
:100F900038000320BDE8F0812068006836EA0000D0
:100FA00004D00020B842D9D00020F3E70120F9E7AF
:100FB000FEE700000FB4054B10B503A9044A0298E0
:100FC00000F028F810BC5DF814FB0000691100085F
:100FD000180000200907090E002804DB00F1E020BA
:100FE00080F80014704700F00F0000F1E02080F856
:100FF000141D704702E008C8121F08C1002AFAD168
:1010000070477047002001E001C1121F002AFBD188
:10101000704700002DE9FF4F89B09B46044600252C
:1010200006E025280BD05A460B999047641C6D1C8E
:1010300020780028F5D10DB02846BDE8F08F0027B4
:10104000B8460122474900E0074314F8013F203B1E
:1010500002FA03F00842F7D120782E2819D114F8AB
:10106000010F47F004072A280ED06FF02F022078D6
:10107000A0F1300109290CD808EB880102EB4101ED
:1010800000EB0108641CF2E70A98641C50F8048B1A
:101090000A9020780028CED0642808D0692806D08D
:1010A00075281ED05A460B9990476D1C58E00A9936
:1010B0004FF00A0901C90A91002802DA40422D21A5
:1010C00002E0390504D52B218DF82010012103E021
:1010D000F90704D02021F7E78A4608AE0DE0002189
:1010E000FAE70A994FF00A0901C90A91F7E7494658
:1010F000FFF7A9F8303106F8011D0028F7D1ADEB54
:10110000060000F12009780701D44FF00108C84516
:1011100002DDA8EB090000E000208046002706E081
:1011200008A85A46C05D0B9990476D1C7F1C574517
:10113000F6DB04E030205A460B9990476D1CB8F15D
:101140000001A8F10108F5DC05E016F8010B5A468C
:101150000B9990476D1CB9F10001A9F10109F4DC6C
:10116000641C65E70928010038B50446002000909A
:101170008DF800400A23012269460248FFF75AFD14
:10118000204638BD1C000020FFF7ACF9FFF704FE35
:10119000FFF7AEFDFFF7DEFD07A0FFF70BFF0E4CDC
:1011A000002520780128FCD1257061680BA0491C1E
:1011B0006160FFF7FFFEF4E70A0D2046532D5354FC
:1011C0004D3332BFAAB7A2B0E5B9E2B5E7BFAAB9BD
:1011D000D8CAB5D1E90D0A0000000020BCC6CAFD7E
:1011E000D6B520A3BA25640D0A0000000000000057
:1011F00000000000010203040607080900000000C7
:101200000102030424120008000000201C0000005A
:10121000F40F0008401200081C00002044040000E5
:1012200004100008000000000000000001000000A1
:1012300010000000000000000024F4000000000086
:040000050800018965
:00000001FF
