:020000040800F2
:10000000C80400209D0100088F240008730E00081A
:100010008D240008A9020008C9260008000000007D
:100020000000000000000000000000009324000811
:10003000AB0200080000000091240008952400088D
:10004000B7010008B7010008B7010008B7010008B0
:10005000B7010008B7010008B7010008B7010008A0
:10006000B7010008B7010008B7010008B701000890
:10007000B7010008B7010008B7010008B701000880
:10008000B7010008B7010008B7010008B701000870
:10009000B7010008B7010008B7010008B701000860
:1000A000B7010008B7010008B7010008B701000850
:1000B000B7010008B7010008B7010008B701000840
:1000C000B7010008B7010008B7010008B701000830
:1000D000B7010008B7010008B7010008B701000820
:1000E000B7010008B7010008B7010008B701000810
:1000F000B7010008B7010008B7010008B701000800
:10010000B7010008B7010008B7010008B7010008EF
:10011000B7010008B7010008B7010008B7010008DF
:10012000B7010008B7010008B7010008B7010008CF
:10013000B7010008B7010008B7010008B7010008BF
:10014000B7010008B7010008B7010008B7010008AF
:10015000B7010008B7010008B7010008B70100089F
:10016000B7010008B7010008B7010008B70100088F
:10017000B7010008B7010008B7010008000000003F
:10018000B7010008B7010008DFF80CD000F07AF8DA
:1001900000480047052A0008C80400200648804798
:1001A00006480047FEE7FEE7FEE7FEE7FEE7FEE75C
:1001B000FEE7FEE7FEE7FEE72125000889010008CB
:1001C0002DE9F05F0546002092469B46884606468C
:1001D000814640241BE0284641464746224600F01F
:1001E00041F853465A46C01A914110D31146184659
:1001F000224600F028F82D1A67EB01084F462246E8
:100200000120002100F01FF817EB00094E41201ECD
:10021000A4F10104DFDC484631462A464346BDE8E6
:10022000F09FD2B201E000F8012B491EFBD27047CB
:100230000022F6E710B513460A4604461946FFF7B2
:10024000F0FF204610BD202A04DB203A00FA02F11C
:10025000002070479140C2F1200320FA03F31943B4
:1002600090407047202A04DB203A21FA02F0002156
:10027000704721FA02F3D040C2F1200291400843B6
:1002800019467047064C074D06E0E06840F0010350
:1002900094E8070098471034AC42F6D3FFF778FF94
:1002A0006430030884300308FEE77047704700009D
:1002B00070B5B3F5804F05D06FF0704140F8221053
:1002C000002070BD50F82240084B8E891C40D1E9B7
:1002D000003543EA05138D6889692D0245EA064514
:1002E0002B430B43234340F82230E9E70000F0CFD3
:1002F000F0B50C6850F82430114A1340D1E90125BB
:10030000D1E903672A433E4332434E6932438E6943
:100310003243CE6932430E6A32434E6A32438E6AAA
:100320003243CE6A3243CE6B096B32430A431A43DF
:10033000082D01D142F0400240F824200020F0BDF9
:100340008000F0FF30B500EB820250688D8900F02C
:100350004043D1E9000440EA04108C68240244EAD6
:10036000054420430C8A074D05EB045420430C7DC3
:100370006D0105EB0464896920430843184350600C
:10038000002030BD0000F0FF70B5044600F040F9D9
:100390000546601C02D004480078044400F038F997
:1003A000401BA042FAD370BD100000202DE9F0419F
:1003B00086B014216846FFF73BFF214801680029F9
:1003C0003AD14FF00108C0F800801E4800240168AF
:1003D00041F0010101600068022500F00100059074
:1003E0004FF48050CDE9000502AA03260C2782E8CD
:1003F000D0006946144800F02FF84CF23370CDE974
:10040000000502AA694682E8D000104800F024F8EE
:1004100002AA694682E8D000CDE900850C4800F0C8
:100420001BF84FF68070CDE9000502AA694682E804
:10043000D000084800F010F806B0BDE8F0810000D8
:10044000080000203838024000180240000C02402A
:1004500000140240001002402DE9F84F00224FF036
:10046000010803254FF00F0E0B6808FA02F4234031
:10047000A3426ED14E68012E05D0022E03D0112E5C
:1004800001D0122E12D186684FEA420C05FA0CF701
:10049000BE43CF6807FA0CF7374387604668A64328
:1004A0000C79C4F30014944034434460C668570088
:1004B00005FA07FC8C6826EA0C06BC403443C4608D
:1004C0004C68022C01D0122C13D1D40800EB840408
:1004D000A346D4F8209054074FEAD46A0EFA0AF6DD
:1004E00029EA06090E6906FA0AF646EA0906CBF871
:1004F000206006680C7926EA0C0604F00304BC4070
:10050000344304604C68E40065D5364C266846F4F4
:1005100080462660246822F0030604F48044009498
:10052000314C3444A446D4F808489607370F0EFAE5
:1005300007F6B4432D4EB04201D1002624E02C4EE4
:10054000B04201D101261FE02A4EB04202D102265C
:100550001AE040E0284EB04201D1032614E0274EB5
:10056000B04201D104260FE0254EB04201D105264C
:100570000AE0244EB04201D1062605E0224EB042E8
:1005800001D1072600E00826BE402643CCF80868C3
:100590001E4E34684F689C43FF0300D51C433460F3
:1005A0001A4C241D26684F689E43BF0300D51E4386
:1005B0002660164E083634684F689C43FF0200D50B
:1005C0001C433460114E0C3634684F689C43BF02A4
:1005D00000D51C433460521C102AFFF445AFBDE81F
:1005E000F88F000044380240003001400000024013
:1005F0000004024000080240000C024000100240CB
:100600000014024000180240001C0240003C01405F
:10061000014880687047000010000020024881688F
:100620000278114481607047100000200B4810B51B
:10063000016841F400710160016841F4806101606A
:10064000016841F480710160032000F061F800202E
:1006500000F006F800F024F8002010BD003C024035
:1006600070B50D4D04464FF47A712878B1FBF0F067
:100670000A490968B1FBF0F000F023FB48B9102CDF
:1006800007D200222146501E00F022F800206C60A4
:1006900070BD012070BD0000100000201C00002073
:1006A0000A4808B5016841F480410160006800F41F
:1006B000804000900548001F016841F080510160B2
:1006C000006800F08050009008BD000044380240EF
:1006D000F0B40E4B1B680C46C3F30223C3F10705AD
:1006E000042D00D90425191D072901D2002300E09B
:1006F000DB1E012606FA05F1491E214099409E4065
:10070000761E16403143F0BC01F0F0BF0CED00E066
:10071000064900F0070208684FF6FF03184040EA58
:100720000220034A10430860704700000CED00E00F
:100730000000FA052DE9F0470E46050065D0DFF808
:100740001481D8F80000F7B200F00F00B04207D2D1
:1007500088F80070D8F8000000F00F00B04254D1C3
:1007600028683D4C810712D5400703D5206840F426
:10077000E05020602878000703D5206840F46040EE
:1007800020602068A96820F0F000084320602878E5
:10079000C0072DD0304968680839012812D00228D6
:1007A00013D0032811D00968890700292DDA2168A0
:1007B00021F0030101432160FFF72AFF814641F246
:1007C000883A0EE009688903EFE709688901ECE7D8
:1007D000FFF71EFFA0EB0901514502D90320BDE838
:1007E000F0872068696800F00C00B0EB810FEFD152
:1007F000D8F80010404601F00F01B14207D9077048
:10080000006800F00F00B04201D00120E7E728782F
:10081000400705D52068E96820F4E05008432060CF
:100820002878000706D52068296920F4604040EA4E
:10083000C100206000F038F82168084AC1F30311B4
:10084000515CC8400649086006480068FFF708FF89
:100850000020C4E7003C0240083802404C30030846
:100860001C000020140000200448054900680968A5
:10087000044AC1F38221515CC84070471C0000202B
:10088000083802405C3003080448054900680968DC
:10089000044AC1F34231515CC84070471C0000203B
:1008A000083802405C300308154810B5006810F0A5
:1008B0000C02144813D01449042A0FD0082A0ED170
:1008C0000F4C241F2268236802F03F025B0207D509
:1008D0002068C0F38810A0FB010106E0084610BDA7
:1008E0002168C1F38811A1FB00010023FFF768FC18
:1008F0002168C1F30141491C4900B0FBF1F010BD72
:10090000083802400024F40040787D012DE9F84FBA
:1009100004006ED02078DFF83C93C007A9F10405ED
:100920004AD009F104000168C1F38101012908D00E
:100930000068C0F3810002280AD1D9F80000400203
:1009400006D52868800337D560680028E1D033E0F9
:100950006068B0F5803F10D0B0F5A02F286810D0A7
:1009600020F480302860286820F4802028606068A7
:10097000A8B1FFF74DFE06460DE0286840F4803030
:10098000F4E740F480202860F7E700BFFFF740FE5F
:10099000801B642873D828688003F7D50CE0FFF724
:1009A00037FE064605E000BFFFF732FE801B6428D5
:1009B000F0D828688003F7D42078DFF89C8280077D
:1009C0004FF0000A3ED5A348001D016811F00C0F3E
:1009D00008D00068C0F3810002280BD1D9F80000CC
:1009E000400207D42868800716D5E068012800D1A6
:1009F00012E02BE1E068B8B10120C8F80000FFF771
:100A000007FE064605E000BFFFF702FE801B022836
:100A1000C0D828688007F7D52868216920F0F80039
:100A200040EAC10028600DE0C8F800A0FFF7F0FD23
:100A3000064604E0FFF7ECFD801B02281FD828685B
:100A40008007F7D42078000722D5824E8348616959
:100A5000703671B101210160FFF7DAFD074604E04D
:100A6000FFF7D6FDC01B022809D830688007F7D5EC
:100A70000EE0C0F800A0FFF7CBFD074605E082E0DE
:100A8000FFF7C6FDC01B02287DD830688007F7D469
:100A90002078400768D5DFF8BCB100270BF13C0B8C
:100AA000DBF80000C0000BD4DBF8001041F08051EF
:100AB000CBF80010DBF80000012700F08050009018
:100AC000674E3068C00510D4306840F480703060E4
:100AD000FFF79EFD009005E0FFF79AFD0099401A90
:100AE000022850D83068C005F6D55A4EA0686C363A
:100AF00001280FD00528306810D020F001003060A8
:100B0000306820F004003060A068B8B1FFF780FDC5
:100B100000900FE0306840F00100F4E740F004007E
:100B20003060F7E7FFF774FD0099411A41F2883011
:100B3000814266D830688007F4D50EE0FFF768FD83
:100B4000009007E0FFF764FD0099411A41F28830F8
:100B5000814256D830688007F4D42FB1DBF80010FA
:100B600021F08051CBF80010A069C8B33949091DA4
:100B70000968C1F3810102294AD00228504607D0F2
:100B8000C8F8600000E03CE0FFF742FD04463BE0AF
:100B90004746C8F86000FFF73BFD064605E000BF8A
:100BA000FFF736FD801B02282BD828688001F7D478
:100BB000D4E907010843A16A2A4A490802EB014126
:100BC000626A41EA8211084394F82C1040EA0161FC
:100BD000C9F8001001203866FFF71AFD044606E048
:100BE00036E000BFFFF714FD001B022809D8286873
:100BF0008001F7D52CE000BFFFF70AFD001B02289B
:100C000002D90320BDE8F88F28688001F4D41FE0E2
:100C10000128F7D0D9F80000E26900F48001914280
:100C200014D1226A00F03F0191420FD147F6C07102
:100C3000626A0140914209D1A26A00F440319142B6
:100C400004D1E16A00F07060884201D00120D9E748
:100C50000020D7E70438024000004742800E474298
:100C6000007000400000FFFF70B515460E460400FE
:100C700003D094F8490010B107E0012070BD0020B6
:100C800084F84800204600F01AF804F108012068B2
:100C9000FFF72EFB3146A2682068FFF753FBD4E92B
:100CA00001022946236BFFF703FBA168206850F877
:100CB000212042F0010240F82120002070BDFFF702
:100CC00075BB10B5401EB0F1807F01D3012010BD6F
:100CD0004FF0E02460610F21601701F007FD002054
:100CE000A06107202061002010BD70B5040004D071
:100CF00094F83900002510B106E0012070BD84F899
:100D00003850204600F022F8242084F8390020686A
:100D1000C16821F40051C160204601F00FFC206839
:100D2000016921F4904101612068416921F02A01A3
:100D300041612068C16841F40051C160E563202031
:100D400084F8390084F83A00002070BD10B586B0F0
:100D5000044614216846FFF76BFA1449206888425C
:100D600021D113480021026842F01002026000689D
:100D700000F0100005900E481438026842F001029D
:100D80000260006800F0010005904FF4C060009020
:100D90000220CDE901010320039007200490694659
:100DA0000448FFF759FB06B010BD000000100140D9
:100DB00044380240000002402DE9F843044690F810
:100DC00039001F4616460D46202850D1B5B1AEB1A8
:100DD00094F8380001284AD0012084F838004FF0F8
:100DE0000008C4F83C80212084F83900FFF710FC8B
:100DF000A6848146E68484F8388026E00120BDE898
:100E0000F883E08C401EE084A0684B46B0F5805F1C
:100E10004FF000024FF080012046009703D001F010
:100E200021FCE8B90DE001F01DFCC8B92888216853
:100E3000C0F308004860206908B16D1C05E0AD1CD6
:100E400003E0216815F8010B4860E08C0028D8D138
:100E50004B46002240212046009701F003FC08B1D8
:100E60000320CCE7202084F839000020C7E70220C7
:100E7000C5E7FEE770B50A490646002408884D8894
:100E800021464543204601F0A3F901F067FA4FF0EF
:100E9000D84001E04680641CAC42FBD370BD00002A
:100EA0002400002070B40C494FF430564FF42852FF
:100EB0000E814FF42C534A814FF4F0744FF448756F
:100EC0008B8128B10D804C8070BC002001F0BEB831
:100ED0000C804D80F8E70000240000202DE9FF4F32
:100EE000144C8A464FF0000B0D9D8046A4F806B0C6
:100EF000A3EB0A0719E000BFA4F804B002990AEBBB
:100F00000009A1EB08060AE0404435F8022B1FFA5D
:100F100089F180B200F010F8A088401CA080A08861
:100F20008642F1DCE088401CE080E0888742E3DC18
:100F3000BDE8FF8F0000002010B5144601F048F90D
:100F400001F00CFA4FF0D840448010BD2DE9F04379
:100F5000434C91460246A08823460D464FEA11288D
:100F6000160A5B89A0F51341413917D0A0F5A641B7
:100F7000103913D0A0F5AA41103914D02646A0F597
:100F8000C857B1793688B61A761E633F25D0A0F5CA
:100F9000D047043F3DD0012951D051E0184601F01F
:100FA000D6F930463CE0184601F0D1F9304601F060
:100FB000C7F96089401C80B201F0C9F9D0B201F0D4
:100FC000BFF9A08901F0C3F9404601F0B9F9A08941
:100FD000401C80B201F0BBF92DE001B9B2B2184655
:100FE00001F0B5F9160A304601F0AAF9D0B201F0C5
:100FF000A7F9304601F0A4F9D0B201F0A1F9A08917
:1010000001F0A5F9404601F09BF9E8B201F098F92A
:101010000EE0012900D1B2B2184601F098F9100A89
:1010200001F08EF9D0B201F08BF9A08901F08FF9AF
:10103000404601F085F9E8B201F082F908E0B2B269
:101040001146184601F092F9A089294601F08EF95F
:101050004FF0D84021890180A0F80290BDE8F083CC
:10106000240000202DE9F05F3220FFF78DF90121E7
:10107000002001F07BF93220FFF786F9002000F014
:10108000DEFFFE4C0146A080FDA001F01FFBA08802
:101090004FF6FF75FF2801D3A8421DD14FF45A40E7
:1010A00001F055F94FF0D8425088A0804FF45B40D2
:1010B00001F04DF9907805EA0020A0804FF45C40E3
:1010C00001F045F95088A1880843A080B0F5004F91
:1010D00002D145F21050A0804FF02040D0F81C11F2
:1010E00021F00F01C0F81C11D0F81C1121F470611F
:1010F000C0F81C11D0F81C1141F00301C0F81C11FC
:10110000D0F81C1141F40071C0F81C11A188E0A0B6
:1011100001F0DCFA55214FF4704001F027F94FF24D
:101120000103AA21184601F021F94FF202045221CD
:10113000204601F01BF9651C0821284601F016F92C
:10114000A61C0121304601F011F90D214FF4304069
:1011500001F00CF90D214BF2010001F007F90D210E
:101160004BF2020001F002F94FF4364734213846C1
:1011700001F0FCF83421781C01F0F8F83421B81C97
:1011800001F0F4F84FF431480D21404601F0EEF83B
:101190004BF201190D21484601F0E8F80D214BF200
:1011A000021001F0E3F84FF4374A3421504601F0C1
:1011B000DDF84BF2017B3421584601F0D7F8342199
:1011C0004BF2027001F0D2F800214FF4324001F0EE
:1011D000CDF800214BF2012001F0C8F800214BF2BC
:1011E000022001F0C3F824214FF4384001F0BEF88A
:1011F00024214BF6010001F0B9F824214BF602003E
:1012000001F0B4F801214FF43F4001F0AFF80F2195
:101210004FF4334001F0AAF80F214BF2013001F0F6
:10122000A5F80F214BF2023001F0A0F834214FF461
:10123000394001F09BF834214BF6011001F096F88B
:1012400034214BF6021001F091F808214FF435409B
:1012500001F08CF808214BF2015001F087F80821C9
:101260004BF2025001F082F803214FF4424001F0AA
:101270007DF824214FF43A4001F078F824214BF610
:10128000012001F073F824214BF6022001F06EF8E2
:1012900000214FF43C4001F069F878214BF6014001
:1012A00001F064F800214BF6024001F05FF80021E4
:1012B0004FF43D4001F05AF878214BF6015001F00F
:1012C00055F800214BF6025001F050F800214FF480
:1012D0003E4001F04BF864214BF6016001F046F806
:1012E00000214FF4514001F041F833214DF201103B
:1012F00001F03CF800214DF2021001F037F83421E2
:101300004DF2031001F032F800214DF2041001F00B
:101310002DF83A214DF2051001F028F800214DF288
:10132000061001F023F84A214DF2071001F01EF8D3
:1013300000214DF2081001F019F85C214DF209105E
:1013400001F014F800214DF20A1001F00FF881218C
:101350004DF20B1001F00AF800214DF20C1001F0D3
:1013600005F8A6214DF20D1001F000F800214DF214
:101370000E1000F0FBFFE5214DF20F1000F0F6FF1C
:1013800001214DF2101000F0F1FF13214DF2111068
:1013900000F0ECFF01214DF2121000F0E7FF5421A4
:1013A0004DF2131000F0E2FF01214DF2141000F095
:1013B000DDFF82214DF2151000F0D8FF01214DF222
:1013C000161000F0D3FFCA214DF2171000F0CEFF27
:1013D00002214DF2181000F0C9FF00214DF2191042
:1013E00000F0C4FF02214DF21A1000F0BFFF0121EE
:1013F0004DF21B1000F0BAFF02214DF21C1000F05C
:10140000B5FF34214DF21D1000F0B0FF02214DF266
:101410001E1000F0ABFF67214DF21F1000F0A6FF79
:1014200002214DF2201000F0A1FF84214DF2211085
:1014300000F09CFF02214DF2221000F097FFA42142
:101440004DF2231000F092FF02214DF2241000F023
:101450008DFFB7214DF2251000F088FF02214DF2DB
:10146000261000F083FFCF214DF2271000F07EFF01
:1014700002214DF2281000F079FF11E02400002035
:10148000204441542049443A25780D0A00000000C8
:10149000204C43442049443A25780D0A00000000BE
:1014A000DE214DF2291000F061FF02214DF22A10D9
:1014B00000F05CFFF2214DF22B1000F057FF0221EB
:1014C0004DF22C1000F052FFFE214DF22D1000F0D5
:1014D0004DFF03214DF22E1000F048FF10214DF278
:1014E0002F1000F043FF03214DF2301000F03EFFBB
:1014F00033214DF2311000F039FF03214DF232104B
:1015000000F034FF6D214DF2331000F02FFF002169
:101510004FF4524000F02AFF33214DF2012000F039
:1015200025FF00214DF2022000F020FF34214DF272
:10153000032000F01BFF00214DF2042000F016FFF5
:101540003A214DF2052000F011FF00214DF2062056
:1015500000F00CFF4A214DF2072000F007FF0021A8
:101560004DF2082000F002FF5C214DF2092000F04E
:10157000FDFE00214DF20A2000F0F8FE81214DF21F
:101580000B2000F0F3FE00214DF20C2000F0EEFEE7
:10159000A6214DF20D2000F0E9FE00214DF20E20B3
:1015A00000F0E4FEE5214DF20F2000F0DFFE012106
:1015B0004DF2102000F0DAFE13214DF2112000F060
:1015C000D5FE01214DF2122000F0D0FE54214DF243
:1015D000132000F0CBFE01214DF2142000F0C6FED6
:1015E00082214DF2152000F0C1FE01214DF216209E
:1015F00000F0BCFECA214DF2172000F0B7FE022118
:101600004DF2182000F0B2FE00214DF2192000F03A
:10161000ADFE02214DF21A2000F0A8FE01214DF28C
:101620001B2000F0A3FE02214DF21C2000F09EFEC4
:1016300034214DF21D2000F099FE02214DF21E20B2
:1016400000F094FE67214DF21F2000F08FFE022172
:101650004DF2202000F08AFE84214DF2212000F07E
:1016600085FE02214DF2222000F080FEA4214DF2E1
:10167000232000F07BFE02214DF2242000F076FEB4
:10168000B7214DF2252000F071FE02214DF22620F7
:1016900000F06CFECF214DF2272000F067FE022102
:1016A0004DF2282000F062FEDE214DF2292000F0EC
:1016B0005DFE02214DF22A2000F058FEF2214DF28B
:1016C0002B2000F053FE02214DF22C2000F04EFEA4
:1016D000FE214DF22D2000F049FE03214DF22E2077
:1016E00000F044FE10214DF22F2000F03FFE0321B8
:1016F0004DF2302000F03AFE33214DF2312000F05F
:1017000035FE03214DF2322000F030FE6D214DF206
:10171000332000F02BFE00214FF4534000F026FE52
:1017200033214DF2013000F021FE00214DF2023054
:1017300000F01CFE34214DF2033000F017FE0021B2
:101740004DF2043000F012FE3A214DF2053000F067
:101750000DFE00214DF2063000F008FE4A214DF248
:10176000073000F003FE00214DF2083000F0FEFDCE
:101770005C214DF2093000F0F9FD00214DF20A30F4
:1017800000F0F4FD81214DF20B3000F0EFFD00215F
:101790004DF20C3000F0EAFDA6214DF20D3000F0C4
:1017A000E5FD00214DF20E3000F0E0FDE5214DF2A7
:1017B0000F3000F0DBFD01214DF2103000F0D6FDBE
:1017C00013214DF2113000F0D1FD01214DF2123004
:1017D00000F0CCFD54214DF2133000F0C7FD012183
:1017E0004DF2143000F0C2FD82214DF2153000F0B0
:1017F000BDFD01214DF2163000F0B8FDCA214DF2B9
:10180000173000F0B3FD02214DF2183000F0AEFDAC
:1018100000214DF2193000F0A9FD02214DF21A30DD
:1018200000F0A4FD01214DF21B3000F09FFD0221CC
:101830004DF21C3000F09AFD34214DF21D3000F0C5
:1018400095FD02214DF21E3000F090FD67214DF212
:101850001F3000F08BFD02214DF2203000F086FD9C
:1018600084214DF2213000F081FD02214DF2223021
:1018700000F07CFDA4214DF2233000F077FD022121
:101880004DF2243000F072FDB7214DF2253000F00A
:101890006DFD02214DF2263000F068FDCF214DF2A2
:1018A000273000F063FD02214DF2283000F05EFD8C
:1018B000DE214DF2293000F059FD02214DF22A308F
:1018C00000F054FDF2214DF22B3000F04FFD0221CB
:1018D0004DF22C3000F04AFDFE214DF22D3000F08B
:1018E00045FD03214DF22E3000F040FD10214DF258
:1018F0002F3000F03BFD03214DF2303000F036FD7B
:1019000033214DF2313000F031FD03214DF2323000
:1019100000F02CFD6D214DF2333000F027FD002149
:101920004FF4544000F022FD33214DF2014000F00D
:101930001DFD00214DF2024000F018FD34214DF252
:10194000034000F013FD00214DF2044000F00EFDB5
:101950003A214DF2054000F009FD00214DF206400C
:1019600000F004FD4A214DF2074000F0FFFC002189
:101970004DF2084000F0FAFC5C214DF2094000F005
:10198000F5FC00214DF20A4000F0F0FC81214DF2FF
:101990000B4000F0EBFC00214DF20C4000F0E6FCA7
:1019A000A6214DF20D4000F0E1FC00214DF20E4069
:1019B00000F0DCFCE5214DF20F4000F0D7FC0121E6
:1019C0004DF2104000F0D2FC13214DF2114000F016
:1019D000CDFC01214DF2124000F0C8FC54214DF223
:1019E000134000F0C3FC01214DF2144000F0BEFC96
:1019F00082214DF2154000F0B9FC01214DF2164054
:101A000000F0B4FCCA214DF2174000F0AFFC0221F7
:101A10004DF2184000F0AAFC00214DF2194000F0F0
:101A2000A5FC02214DF21A4000F0A0FC01214DF26C
:101A30001B4000F09BFC02214DF21C4000F096FC84
:101A400034214DF21D4000F091FC02214DF21E4068
:101A500000F08CFC67214DF21F4000F087FC022152
:101A60004DF2204000F082FC84214DF2214000F034
:101A70007DFC02214DF2224000F078FCA4214DF2C1
:101A8000234000F073FC02214DF2244000F06EFC74
:101A9000B7214DF2254000F069FC02214DF22640AD
:101AA00000F064FCCF214DF2274000F05FFC0221E2
:101AB0004DF2284000F05AFCDE214DF2294000F0A2
:101AC00055FC02214DF22A4000F050FCF2214DF26B
:101AD0002B4000F04BFC02214DF22C4000F046FC64
:101AE000FE214DF22D4000F041FC03214DF22E402D
:101AF00000F03CFC10214DF22F4000F037FC032198
:101B00004DF2304000F032FC33214DF2314000F014
:101B10002DFC03214DF2324000F028FC6D214DF2E6
:101B2000334000F023FC00214FF4554000F01EFC30
:101B300033214DF2015000F019FC00214DF202500A
:101B400000F014FC34214DF2035000F00FFC002192
:101B50004DF2045000F00AFC3A214DF2055000F01D
:101B600005FC00214DF2065000F000FC4A214DF228
:101B7000075000F0FBFB00214DF2085000F0F6FB8F
:101B80005C214DF2095000F0F1FB00214DF20A50AA
:101B900000F0ECFB81214DF20B5000F0E7FB00213F
:101BA0004DF20C5000F0E2FBA6214DF20D5000F07A
:101BB000DDFB00214DF20E5000F0D8FBE5214DF287
:101BC0000F5000F0D3FB01214DF2105000F0CEFB7E
:101BD00013214DF2115000F0C9FB01214DF21250BA
:101BE00000F0C4FB54214DF2135000F0BFFB012163
:101BF0004DF2145000F0BAFB82214DF2155000F066
:101C0000B5FB01214DF2165000F0B0FBCA214DF298
:101C1000175000F0ABFB02214DF2185000F0A6FB6C
:101C200000214DF2195000F0A1FB02214DF21A5093
:101C300000F09CFB01214DF21B5000F097FB0221AC
:101C40004DF21C5000F092FB34214DF21D5000F07B
:101C50008DFB02214DF21E5000F088FB67214DF2F2
:101C60001F5000F083FB02214DF2205000F07EFB5C
:101C700084214DF2215000F079FB02214DF22250D7
:101C800000F074FBA4214DF2235000F06FFB022101
:101C90004DF2245000F06AFBB7214DF2255000F0C0
:101CA00065FB02214DF2265000F060FBCF214DF282
:101CB000275000F05BFB02214DF2285000F056FB4C
:101CC000DE214DF2295000F051FB02214DF22A5045
:101CD00000F04CFBF2214DF22B5000F047FB0221AB
:101CE0004DF22C5000F042FBFE214DF22D5000F041
:101CF0003DFB03214DF22E5000F038FB10214DF238
:101D00002F5000F033FB03214DF2305000F02EFB3A
:101D100033214DF2315000F029FB03214DF23250B6
:101D200000F024FB6D214DF2335000F01FFB002129
:101D30004FF4564000F01AFB33214DF2016000F0E1
:101D400015FB00214DF2026000F010FB34214DF232
:101D5000036000F00BFB00214DF2046000F006FB75
:101D60003A214DF2056000F001FB00214DF20660C2
:101D700000F0FCFA4A214DF2076000F0F7FA00216A
:101D80004DF2086000F0F2FA5C214DF2096000F0BB
:101D9000EDFA00214DF20A6000F0E8FA81214DF2DF
:101DA0000B6000F0E3FA00214DF20C6000F0DEFA67
:101DB000A6214DF20D6000F0D9FA00214DF20E601F
:101DC00000F0D4FAE5214DF20F6000F0CFFA0121C6
:101DD0004DF2106000F0CAFA13214DF2116000F0CC
:101DE000C5FA01214DF2126000F0C0FA54214DF203
:101DF000136000F0BBFA01214DF2146000F0B6FA56
:101E000082214DF2156000F0B1FA01214DF2166009
:101E100000F0ACFACA214DF2176000F0A7FA0221D7
:101E20004DF2186000F0A2FA00214DF2196000F0A6
:101E30009DFA02214DF21A6000F098FA01214DF24C
:101E40001B6000F093FA02214DF21C6000F08EFA44
:101E500034214DF21D6000F089FA02214DF21E601E
:101E600000F084FA67214DF21F6000F07FFA022132
:101E70004DF2206000F07AFA84214DF2216000F0EA
:101E800075FA02214DF2226000F070FAA4214DF2A1
:101E9000236000F06BFA02214DF2246000F066FA34
:101EA000B7214DF2256000F061FA02214DF2266063
:101EB00000F05CFACF214DF2276000F057FA0221C2
:101EC0004DF2286000F052FADE214DF2296000F058
:101ED0004DFA02214DF22A6000F048FAF2214DF24B
:101EE0002B6000F043FA02214DF22C6000F03EFA24
:101EF000FE214DF22D6000F039FA03214DF22E60E3
:101F000000F034FA10214DF22F6000F02FFA032177
:101F10004DF2306000F02AFA33214DF2316000F0CA
:101F200025FA03214DF2326000F020FA6D214DF2C6
:101F3000336000F01BFA5521A01E00F017FAAA2109
:101F4000184600F013FA5221204600F00FFA08213B
:101F5000284600F00BFA0021304600F007FACC21A9
:101F6000404600F003FA0021484600F0FFF9052141
:101F7000384600F0FBF97021504600F0F7F9702167
:101F8000584600F0F3F901214FF4384000F0EEF923
:101F900003214BF6010000F0E9F903214BF60200A2
:101FA00000F0E4F903214BF6030000F0DFF9022111
:101FB0004FF43C4000F0DAF900214BF6014000F00C
:101FC000D5F900214BF6024000F0D0F9D0214FF4B2
:101FD000494000F0CBF902214CF6011000F0C6F99F
:101FE00050214CF6021000F0C1F950214CF60310BC
:101FF00000F0BCF950214CF6041000F0B7F94FF492
:1020000054530021184600F0B1F90021184600F0A1
:10201000ADF955214FF4685000F0A8F94FF48850FD
:1020200000F095F94FF4245000F091F90120FEF7EB
:1020300039FFBDE8F05F47F67C50FEF71BBF00B5E7
:1020400000F085F94FF0D840408800BDF0B55F4CF6
:10205000002346F60402A18845F21037A1F5134C7F
:1020600045F2105541F66316BCF1410C07D0914280
:1020700005D0B94203D0A94201D0B1427BD1082892
:1020800012D2DFE800F0110406080A0C0E108023BB
:102090000AE0402308E0C02306E0202304E0602398
:1020A00002E0A02300E0E023A94202D14FF45850FF
:1020B00000E03620B94205D0A94203D0B14201D098
:1020C00043F00803914201D143F00203194600F0A6
:1020D0004DF9A088B0420AD099062188628802D5BD
:1020E000914202D303E0914201D922806180A8424B
:1020F000608941D100F02BF9002000F021F96089BE
:10210000401C80B200F023F9002000F019F960892A
:10211000801C80B200F01BF92088401EC0F30F2005
:1021200000F00EF96089C01C80B200F010F9207830
:10213000401EC0B200F004F9A08900F008F90020A8
:1021400000F0FEF8A089401C80B200F000F90020E9
:1021500000F0F6F8A089801C80B200F0F8F86088E2
:10216000401EC0F30F2000F0EBF8A089C01C80B225
:1021700000F0EDF822E028E000F0E9F8002000F09F
:10218000DFF8002000F0DCF82088401EC0F30F20AC
:1021900000F0D6F82078401EC0B200F0D1F8A08937
:1021A00000F0D5F8002000F0CBF8002000F0C8F8CF
:1021B0006088401EC0F30F2000F0C2F8A078BDE890
:1021C000F040401EC0B200F0BBB8F0BD24000020BB
:1021D00030B5104A05460C46508900F0B8F8280A78
:1021E00000F0AEF85089401C80B200F0B0F8E8B2C0
:1021F00000F0A6F8908900F0AAF8200A00F0A0F8F4
:102200009089401C80B200F0A2F8E0B2BDE83040F6
:1022100000F096B8240000202DE9FF4F1D460C4623
:102220008A46580700D0012000EBD500690810FB52
:1022300001F0203A00F0FF09D0B20026DFF898B094
:10224000029044E00C2D11D0102D14D0182D40D147
:102250000298224900EBC00001EB80004FF000081B
:10226000875D38060CD51E4802880DE002981D498E
:1022700000EB4000F0E71C49029801EB0010EDE78D
:102280000D9828B91648428821460098FEF75EFE50
:102290007806070E641CBBF80200A4B2A04218D94D
:1022A000A4EB0A00A84209D100985446401C80B211
:1022B0000090BBF8001081420BD906E008F1010044
:1022C00000F0FF08B8F1080FCBD3761CF6B24E45EC
:1022D000B8D3BDE8FF8F000024000020F0340008D0
:1022E000000000208C2A0008002F00082DE9F84F7C
:1022F000044600F0FF0910190D46DDE90AB61FFA81
:1023000080F8581987B24FF0000A12E0444503D311
:1023100005EB0B004C4685B2BD420FD25B46294609
:102320002046CDF800A0FFF777FF04EB5B0084B2F6
:10233000761C3278A2F120005E28E7D9BDE8F88F3C
:1023400008B5002100914FF0D841488008BD08B57C
:10235000002100914FF0D841088008BD02484FF09D
:10236000D841008908807047240000204FF0D842EF
:10237000108051807047000000B587B01C2168466E
:10238000FDF756FF16484FF0204110220160154915
:102390004160062181600021C160C0E904128161B1
:1023A000C16113020162C0E90913C16201634163A3
:1023B00081634164092000900F20019002AB082046
:1023C00083E807001120CDE9050100226946044891
:1023D000FEF74AFC002801D0FDF768FF07B000BDFA
:1023E00034000020040100A0194808B5016841F03C
:1023F00001010160016801F001010091016841F0F3
:1024000040010160016801F040010091016841F064
:1024100008010160016801F008010091016841F0C4
:1024200020010160016801F020010091016841F084
:1024300080010160016801F080010091016841F0B4
:1024400010010160006800F01000009008BD00005D
:10245000303802400C4810B50A4901604FF4E131B0
:102460004160002181600C22C160C0E904128161D9
:10247000C161FEF73AFC002803D0BDE81040FDF72B
:1024800015BF10BD0010014084000020FEE770471A
:1024900070477047FEF7C2B830B593B03021684638
:1024A000FDF7C6FE14210CA8FDF7C2FE1A48002550
:1024B000016841F080510160006800F08050119087
:1024C0001648016841F4804101600068022400F46C
:1024D0008040119001200090000401908001CDE91E
:1024E0000640192008904FF4A870CDE90904042093
:1024F0000B906846FEF70AFA0CA90F2081E831001C
:102500004FF4A0500F90E002109005210CA8FEF7A8
:1025100011F913B030BD0000403802400070004097
:102520000548016841F47001016003494FF0006003
:10253000803908607047000088ED00E02DE9F04127
:10254000044600680169E26821F4405111430161C9
:102550002169A068E2690843616911430843216861
:10256000CA6849F20C639A430243CA602068416911
:10257000A26921F4407111434161E0691927642582
:102580003226B0F5004F354A354920684FF0000833
:1025900006D0884201D0904236D1FEF775F935E079
:1025A000884201D0904202D1FEF76EF901E0FEF7B9
:1025B0005BF961684A18A0FB070148EB0803FDF7C7
:1025C000FFFD0146B0FBF5F00201B1FBF5F06FF045
:1025D0001803584301EB800006EBC000B0FBF5F098
:1025E00000F0F80002EB4002B1FBF5F0584301EBBC
:1025F000800006EBC000B0FBF5F000F0070021689A
:1026000010448860BDE8F081FEF72EF961688B0FF9
:102610008A00A0FB0701FDF7D3FD0146B0FBF5F0F2
:102620006FF01802504301EB800006EB0010B0FB86
:10263000F5F000F0F002B1FBF5F002EB0012B1FB97
:10264000F5F06FF01803584301EB800006EB001023
:10265000B0FBF5F000F00F00D1E7000000140140DE
:10266000001001402DE9F041984617460E460446F9
:10267000069D1DE0681C1BD02DB1FDF7C9FFA0EB26
:102680000800A84214D92068C16821F4D071C16043
:102690002068416921F001014161202084F839005E
:1026A00084F83A00002084F838000320BDE8F08167
:1026B0002068006836EA000004D00020B842D9D073
:1026C0000020F3E70120F9E7FEE700000FB4054B17
:1026D00010B503A9044A029800F028F810BC5DF870
:1026E00014FB0000ED290008200000200907090E56
:1026F000002804DB00F1E02080F80014704700F0AF
:102700000F0000F1E02080F8141D704702E008C8B7
:10271000121F08C1002AFAD170477047002001E05B
:1027200001C1121F002AFBD1704700002DE9FF4FA5
:102730008DB09B460F460446002606E025280BD0A8
:102740005A460F999047641C761C20780028F5D1D2
:1027500011B03046BDE8F08F0025A8460122984907
:1027600000E0054314F8013F203B02FA03F0084261
:10277000F7D120782E2817D114F8010F45F0040561
:102780002A280ED06FF02F022078A0F130010929FD
:102790000AD808EB880102EB410100EB0108641C38
:1027A000F2E757F8048B641C20786C280DD004DC09
:1027B0004C2812D06A2811D104E074280DD07A2850
:1027C0000CD10AE045F4001507E0617845F4801566
:1027D000814202D1641C05F58015641C2278692AA7
:1027E00045D008DC002AB3D0582A69D0632A10D01B
:1027F000642A08D13BE0702A67D0732A13D0752A67
:102800005CD0782A5CD010465A460F999047761CC7
:10281000D3E017F8040B8DF8000000208DF80100BC
:10282000E946012003E057F8049B4FF0FF306907A9
:102830004FF0000501D40AE06D1C45450DDA8542D4
:10284000FADB19F805100029F6D106E06D1C854267
:10285000FCDB19F805100029F8D12E4404E019F822
:10286000010B5A460F9990476D1EF8D2A5E00A2039
:102870000021CDE90801C5F3025002280DD001CF97
:10288000C117031E71F100030DDA4FF0000CD0EBFD
:102890000C006CEB01012D2308E0FF1D27F007075A
:1028A000F7E80201EDE72B0504D52B238DF828303E
:1028B00001233BE0EB0739D02023F7E70A2000E0B3
:1028C00010200021CDE9080107E01020002145F08B
:1028D0000405CDE908014FF00808C5F302500228AD
:1028E0000FD001CF00214FF0000A2B071FD5702A0F
:1028F0000DD0DDE908C38CF0100C5CEA030C0CD0A1
:1029000015E0FF1D27F00707F7E80201EBE740227B
:102910008DF828204FF0010A0BE050EA010306D0A1
:1029200030238DF828308DF8292002239A46582A22
:1029300004D024A20DF120090B9209E026A2F9E7A8
:10294000DDE90823FDF73CFC0B9B9B5C09F8013D8E
:1029500050EA0102F4D1ADEB09002030089068077D
:1029600001D44FF001080899884502DDA8EB010069
:1029700000E000208046002506E00AA85A46405D97
:102980000F9990476D1C761C5545F6DB04E030200E
:102990005A460F999047761CB8F10001A8F101083A
:1029A000F5DC05E019F8010B5A460F999047761CA3
:1029B0000899481E08900029F4DC641CC5E6000054
:1029C0000928010030313233343536373839616205
:1029D00063646566000000003031323334353637C9
:1029E00038394142434445460000000013B5642392
:1029F000012269460248FEF7DFF900981CBD00007D
:102A0000840000201CB5FDF711FEFFF745FDFFF720
:102A1000EBFCFFF71FFDFFF7AFFCFEF723FB1F20CA
:102A2000FEF728FA4FF47A70FDF7AEFC18200FA1DC
:102A3000CDE900010346D22228211E20FFF756FCD3
:102A400010200EA1CDE900010346C82246211E2018
:102A5000FFF74CFC0C4800904FF4FA734FF4F072FF
:102A60004FF496710020FEF739FAFEE753544D33C8
:102A70003246343037494748360000005446544CFB
:102A800043442054455354004C42000800000000C9
:102A90000000000000000000000000003F400000B7
:102AA0000000000000003000400030004000000046
:102AB00009000BC03D000BC03D00090018C02440B8
:102AC0007FE0224031800000180024C01B000D80F0
:102AD0003240018003801C4027401C80074000409A
:102AE0001000600000000000000000000000000076
:102AF00000001F80204040200000402020401F8018
:102B000000000000090006001F8006000900000008
:102B1000040004003F800400040000000010006076
:102B20000000000000000000040004000400040095
:102B30000400000000000040000000000000000051
:102B4000002001C006003800400000001F80204027
:102B5000204020401F800000000010403FC0004087
:102B60000000000018C0214022402440184000000E
:102B700010802040244024401B80000002000D00F3
:102B800011003FC0014000003C802440244024400C
:102B9000238000001F802440244034400380000034
:102BA0003000200027C03800200000001B80244097
:102BB000244024401B8000001C0022C022402240F0
:102BC0001F8000000000000008400000000000001E
:102BD000000000000460000000000000000004008D
:102BE0000A00110020804040090009000900090086
:102BF0000900000000004040208011000A0004008D
:102C00001800200023402400180000001F802040EE
:102C1000274029401F400000004007C039000F0036
:102C200001C0004020403FC0244024401B800000E1
:102C30001F802040204020403080000020403FC0C6
:102C4000204020401F80000020403FC024402E40F4
:102C500030C0000020403FC024402E003000000063
:102C60000F001080204022403380020020403FC0EF
:102C7000040004003FC02040204020403FC02040CE
:102C8000204000000060202020203FC020002000C5
:102C900020403FC024400B0030C0204020403FC0B7
:102CA00020400040004000C03FC03C0003C03C004A
:102CB0003FC0000020403FC00C4023003FC0200028
:102CC0001F802040204020401F80000020403FC047
:102CD00024402400180000001F802140214020E0F3
:102CE0001FA0000020403FC02440260019C0004023
:102CF00018C0244024402240318000003000204091
:102D00003FC020403000000020003F8000400040D5
:102D10003F80200020003E0001C007003800200056
:102D2000380007C03C0007C038000000204039C010
:102D3000060039C0204000002000384007C038405D
:102D400020000000304021C02640384020C0000054
:102D5000000000007FE040204020000000007000E4
:102D60000C000380004000000000402040207FE075
:102D700000000000000020004000200000000000D3
:102D800000100010001000100010001000000000E3
:102D900040000000000000000000028005400540E7
:102DA00003C0004020003FC00440044003800000F6
:102DB000000003800440044006400000000003803F
:102DC000044024403FC0004000000380054005400F
:102DD00003400000000004401FC0244024402000A5
:102DE000000002E0055005500650042020403FC07E
:102DF0000440040003C000400000044027C000401D
:102E00000000000000100010041027E00000000087
:102E100020403FC00140070004C004402040204043
:102E20003FC000400040000007C0040007C004008D
:102E300003C00000044007C00440040003C0004079
:102E4000000003800440044003800000041007F0E9
:102E5000045004400380000000000380044004503C
:102E600007F00010044007C0024004000400000006
:102E7000000006400540054004C0000000000400BA
:102E80001F80044000400000040007800040044010
:102E900007C000400400070004C0018006000400D1
:102EA000060001C0070001C006000000044006C083
:102EB000010006C0044000000410071004E0018077
:102EC000060004000000044005C006400440000065
:102ED0000000000004007BE0402000000000000033
:102EE0000000FFF000000000000040207BE0040034
:102EF0000000000040008000400020002000400052
:102F000000000000000000000000000000000000C1
:102F10000000000000001FCC000C000000000000BA
:102F20000000080030006000080030006000000071
:102F3000022003FC1E20022003FC1E2002200000B1
:102F400000000E1811043FFF10840C7800000000F0
:102F50000F0010840F3800C0077818840078000034
:102F600000780F8410C411240E9800E40084000837
:102F70000800680070000000000000000000000071
:102F800000000000000007E01818200440020000C4
:102F9000000040022004181807E0000000000000B4
:102FA0000240024001800FF0018002400240000018
:102FB0000080008000800FF800800080008000000A
:102FC0000001000D000E00000000000000000000E5
:102FD0000000008000800080008000800080008071
:102FE0000000000C000C00000000000000000000C9
:102FF0000000000600180060018006001800200094
:10300000000007F0080810041004080807F000008A
:103010000000080408041FFC000400040000000075
:1030200000000E0C10141024104411840E0C00002B
:1030300000000C1810041104110412880C70000018
:10304000000000E00320042408241FFC00240000EA
:1030500000001F98108411041104108810700000E3
:10306000000007F00888110411041888007000009F
:1030700000001C00100010FC13001C0010000000D9
:1030800000000E3811441084108411440E380000E2
:1030900000000700088C10441044088807F0000066
:1030A000000000000000030C030C00000000000002
:1030B0000000000000010106000000000000000008
:1030C00000000080014002200410080810040000E5
:1030D0000220022002200220022002200220000002
:1030E00000001004080804100220014000800000C5
:1030F00000000E001200100C106C10800F00000079
:1031000003E00C1813E4142417C4082807D00000A7
:103110000004003C03C41C40074000E4001C000401
:1031200010041FFC1104110411040E88007000002B
:1031300003E00C1810041004100410081C10000008
:1031400010041FFC100410041004080807F000000D
:1031500010041FFC1104110417C410040818000007
:1031600010041FFC1104110017C01000080000001B
:1031700003E00C181004100410441C7800400000F8
:1031800010041FFC10840080008010841FFC1004B9
:103190000000100410041FFC1004100400000000C4
:1031A00000030001100110011FFE100010000000BC
:1031B00010041FFC110403801464181C1004000088
:1031C00010041FFC1004000400040004000C0000A4
:1031D00010041FFC1F0000FC1F001FFC1004000057
:1031E00010041FFC0C04030000E010181FFC10006A
:1031F00007F00808100410041004080807F0000085
:1032000010041FFC10841080108010800F0000003C
:1032100007F0081810241024101C080A07F20000F8
:1032200010041FFC1104110011C011300E0C000419
:1032300000000E1C11041084108410441C3800007F
:103240001800100010041FFC1004100018000000EB
:1032500010001FF810040004000410041FF81000F0
:1032600010001E0011E0001C007013801C001000F4
:103270001FC0103C00E01F0000E0103C1FC0000019
:103280001004180C163401C001C01634180C1004B8
:1032900010001C00130400FC13041C0010000000AC
:1032A0000804101C1064108413041C04101800007F
:1032B0000000000000007FFE4002400240020000CB
:1032C000000030000C0003800060001C00030000C0
:1032D00000004002400240027FFE000000000000AB
:1032E00000000000200040004000400020000000DE
:1032F00000010001000100010001000100010001C6
:10330000000040004000200000000000000000001D
:1033100000000098012401440144014400FC000421
:1033200010001FFC008801040104008800700000E8
:1033300000000070008801040104010400880000FE
:103340000000007000880104010411081FFC000443
:10335000000000F8014401440144014400C8000099
:103360000000010401040FFC1104110411001800F5
:10337000000000D601290129012901C90106000028
:1033800010041FFC008401000100010400FC000483
:1033900000000104190419FC0004000400000000EE
:1033A0000000000300010101190119FE00000000E6
:1033B00010041FFC0024004001B4010C01040000B3
:1033C0000000100410041FFC0004000400000000B2
:1033D000010401FC0104010001FC0104010000FCE6
:1033E000010401FC008401000100010400FC000450
:1033F000000000F8010401040104010400F80000C9
:10340000010101FF00850104010400880070000033
:1034100000000070008801040104010501FF0001A3
:103420000104010401FC008401040100018000008A
:10343000000000CC01240124012401240198000093
:1034400000000100010007F8010401040000000071
:10345000010001F8000400040004010801FC00045C
:10346000010001800170000C00100160018001006A
:1034700001F0010C003001C00030010C01F001002E
:1034800000000104018C00740170018C0104000033
:10349000010101810171000E00180160018001002D
:1034A00000000184010C013401440184010C00007E
:1034B000000000000000000001003EFC400240024D
:1034C0000000000000000000FFFF000000000000FE
:1034D0000000400240023EFC01000000000000002D
:1034E00000006000800080004000400020002000BC
:1034F00000000000000000000000000000000000CC
:1035000000000000000000000000000000000000BB
:1035100000000000000000000000000000000000AB
:103520000000000F80380FFE380F803800000000C8
:10353000000000000000000000000000000001008A
:10354000000600000C0000380000310000060000FA
:103550000C000038000030000000000000000000F7
:1035600061800067F807F980006180006180006178
:10357000800061800067F807F9800061800000002A
:1035800000000000000001C0E003E0F00630080485
:1035900018081FFFFE040E080787F00381E00000F3
:1035A0000000000001F000060C00040408060C7086
:1035B00001F9C0000E00003BE000EC180708080409
:1035C0000C180003E00000000001E00007F003F821
:1035D00018041C0804170807E1D003C0E00023B05A
:1035E000003C08002008000010000000000000015E
:1035F00000003100003200001C000000000000004C
:1036000000000000000000000000000000000000BA
:1036100000000000000000000000000000000000AA
:103620007F0001FFC00780F00C001810000420008C
:10363000020000000000002000021000040C00182E
:103640000780F001FFC0007F0000000000000000C4
:1036500000000000000000000000000042000066C2
:1036600000006600003C0000180003FFC0001800C6
:10367000003C000066000066000042000000000000
:10368000080000080000080000080000080001FF12
:10369000C000080000080000080000080000080042
:1036A00000000000000100003100003200001C009A
:1036B000000000000000000000000000000000000A
:1036C00000000000000000000800000800000800E2
:1036D00000080000080000080000080000080000C2
:1036E00008000008000000000000000000000000CA
:1036F0003800003800003800000000000000000022
:1037000000000000000000000000000000000000B9
:10371000000600001C000070000180000E00003850
:103720000000C0000700001C000030000000000086
:10373000000000007F8001FFE00380700600180495
:10374000000804000806001803807001FFE0007FF5
:1037500080000000000000000000010008010008D7
:1037600001000803FFF807FFF80000080000080048
:10377000000800000000000000000001C03802C086
:1037800058040098040118040218040418061C18B0
:1037900003F81801E0F8000000000000000000013C
:1037A000C0E003C0F0040008040808040808061874
:1037B0000803F41801E7F00001E000000000000039
:1037C000000000000300000D000011000061000077
:1037D000810803010807FFF80FFFF8000108000146
:1037E000080000000000000000E007FCD006080808
:1037F000061008061008061008061838060FF0060E
:1038000007C0000000000000000000003F8001FF32
:10381000E00384300208180410080410080410089B
:10382000071810030FF00007C000000000000000A0
:10383000000003C0000700000600000600F80607AD
:10384000F806180006E0000700000600000000006F
:1038500000000001E1E003F7F0063410041808044A
:103860001808040C08040C0806161803F3F001C12C
:10387000E000000000000000F80003FC3003063800
:103880000402080402080402080404100308F001FA
:10389000FFC0007F000000000000000000000000EA
:1038A0000000000000000000703800703800703820
:1038B0000000000000000000000000000000000008
:1038C000000000000000000000000000301A00307E
:1038D0001C000000000000000000000000000000CC
:1038E000000000000000000800001400002200009A
:1038F0004100008080010040020020040010080008
:10390000080000000000000021000021000021004C
:103910000021000021000021000021000021000002
:10392000210000210000000000000000000008004D
:1039300008040010020020010040008080004100C7
:103940000022000014000008000000000000000336
:10395000C00004C000040000080038080F38080840
:10396000380810000C300007E00003C00000000021
:10397000000000003F8000FFE0038070020F10068F
:10398000708804C088048308047F8802C090030103
:103990002000FE400000080000180001F8003E086A
:1039A00001C20007020007E20000FE00001FC8007D
:1039B00001F800003800000804000807FFF807FFBE
:1039C000F804080804080804080804080806180889
:1039D00003F41801E7F00001E0000000000000001F
:1039E0003F8001FFE003807002001804000804001B
:1039F000080400080400100600200780C000000032
:103A000004000807FFF807FFF80400080400080492
:103A1000000804001802001003807001FFE0007F1E
:103A20008000000004000807FFF807FFF8040808FA
:103A3000040808040808040808043E0804000806EE
:103A4000001801006000000004000807FFF807FFED
:103A5000F8040808040800040800040800043E00F4
:103A600006000006000001800000000000000000C9
:103A70003F8001FFE0038070060018040008040284
:103A8000080402080203F00783F0000200000200AD
:103A900004000807FFF807FFF80408080008000002
:103AA000080000080000080004080807FFF807FFE6
:103AB000F8040008000000000000040008040008EA
:103AC00004000807FFF807FFF804000804000804D2
:103AD00000080000000000000000000000060000D8
:103AE0000700000104000104000104000307FFFEB9
:103AF00007FFFC04000004000004000004000807A5
:103B0000FFF807FFF8040C08001800003E0004C787
:103B1000800503C80600F8040038040018000008F7
:103B200004000807FFF807FFF80400080000080079
:103B3000000800000800000800000800001800004D
:103B40006000000004000807FFF807800807FC0079
:103B5000007FC00003F80007C00078000780080756
:103B6000FFF807FFF804000804000807FFF8070043
:103B70000803C00000E000003800001E000007003D
:103B80000001C00400F007FFF8040000000000007E
:103B90007F8001FFE0038070060018040008040025
:103BA0000806001803003001FFE0007F80000000DD
:103BB00004000807FFF807FFF804040804040004E1
:103BC0000400040400040400060C0003F80001F0E3
:103BD00000000000000000007F8001FFE003807013
:103BE0000600880400880400C806003C03003E016B
:103BF000FFE6007F8400000004000807FFF807FFCD
:103C0000F8040808040800040C00040F00040BC0AA
:103C10000610F003F03801E0080000080000000181
:103C2000E0F803F030063010041808041808040CFB
:103C300008040C080206180207F00781E0000000E3
:103C400001800006000004000004000004000807D2
:103C5000FFF807FFF8040008040000040000060055
:103C60000001800004000007FFE007FFF0040018D7
:103C70000000080000080000080000080000080418
:103C8000001007FFE004000004000006000007E049
:103C90000007FE00041FE00001F80000380001E00A
:103CA000043E0007C00006000004000004000007F6
:103CB000E00007FFC0041FF80007C007F80007FF77
:103CC00080043FF80007C004F8000700000400006B
:103CD00000000004000806001807C07805F1C800BD
:103CE0003E00001F800463E80780F8060018040007
:103CF0000800000004000006000007800007E0083C
:103D0000047C08001FF80007F800180804E0080702
:103D1000000006000004000000000001000806008A
:103D2000380400F80403E8040F08047C0805F008D0
:103D300007C0080700180400600000000000000031
:103D400000000000000000000000003FFFFE200017
:103D500002200002200002200002200002000000D9
:103D600000000000000008000007000000C0000084
:103D700038000006000001C000003000000E000006
:103D800001000000000000000000200002200002EE
:103D90002000022000022000023FFFFE0000000081
:103DA0000000000000000000000000000000000013
:103DB000000800001000003000002000003000006B
:103DC00010000008000000000000000000000100DA
:103DD00000010000010000010000010000010000DE
:103DE00001000001000001000001000001000001CD
:103DF0000000000000000000002000002000001073
:103E000000001000000000000000000000000000A2
:103E1000000000000000000000F00019F8001B186E
:103E2000002208002608002408002410003FF800A3
:103E30001FF800000800001800000004000007FF41
:103E4000F80FFFF0001818001008002008002008E4
:103E5000003018001FF0000FC0000000000000003C
:103E600007C0001FF00018300020080020080020C4
:103E700008003C08001C100000600000000000006A
:103E80000000000007C0001FF000381800200800E4
:103E9000200800200804101007FFF80FFFF00000B2
:103EA000100000000000000000000007C0001FF02C
:103EB00000123000221800220800220800320800F8
:103EC0001E10000E20000000000000002000002056
:103ED0000800200801FFF803FFF806200804200866
:103EE000042008072000030000000000000000007C
:103EF000000E000E6E001FF30031B10020B1002053
:103F0000B1003191001F13002E1E00200E00300062
:103F100000000004000807FFF80FFFF80010080079
:103F20002000002000002008003FF8001FF80000DB
:103F30000800000000000000000000200800200829
:103F4000002008063FF8063FF800000800000800BF
:103F50000008000000000000000000000000000059
:103F600003000003002001002001002003063FFEA3
:103F7000063FFC00000000000000000000000004FC
:103F8000000807FFF80FFFF8000188000300002F6A
:103F9000C00038F8002038002008000008000000A9
:103FA00000000000000004000804000804000807E6
:103FB000FFF80FFFF80000080000080000080000EC
:103FC00000000000002008003FF8003FF800100843
:103FD000002000003FF8003FF8001008002000001B
:103FE0003FF8003FF8000008000000002008003FF4
:103FF000F8003FF800100800100000200000200822
:10400000003FF8001FF8000008000000000000005A
:1040100007C0000FF0001830003008002008002012
:1040200008003008001830000FF00007C000000042
:10403000000000002001003FFF003FFF00101100C2
:104040002009002008002008003038001FF0000F71
:10405000C00000000000000007C0001FF00038187A
:10406000002008002008002009001011001FFF0098
:104070003FFF000001000000002008002008002091
:1040800008003FF8003FF80008080010080020086A
:1040900000200000300000300000000000000000A0
:1040A0000000000C78001E180033080023080021CF
:1040B000080021880021980030F0003860000000DE
:1040C00000000000200000200000200000FFF0039E
:1040D000FFF8002008002008002008000030000041
:1040E00000000000000000002000003FF0007FF80A
:1040F000000018000008000008002010003FF80031
:104100007FF00000100000000000000020000030E0
:1041100000003C00003F800023F0000078000070A9
:10412000002380003C000030000020000020000040
:104130003C00003FE00023F80000E0002700003EC4
:1041400000003FE00021F80001E0003E00002000F8
:10415000000000002008002008003838003E6800F9
:1041600027800003C8002CF80038380020180020F1
:1041700008000000000000002000003003003C01A7
:10418000003F830023EC000070002380003C00000F
:1041900020000020000000000000000000000038A7
:1041A000080020380020F80023E8002F88003E088F
:1041B0000038080020180000700000000000000017
:1041C00000000000000000000000000008000014D3
:1041D000001FF7FC30000620000200000000000075
:1041E00000000000000000000000000000000000CF
:1041F0000000FFFFFF0000000000000000000000C2
:104200000000000000000000000020000230000656
:104210001FF7FC0014000008000000000000000070
:104220000000000000000000000000180000600016
:1042300000400000400000200000100000080000C6
:104240000400000400000C0000100000FFFFFFFF4E
:10425000FFFFFFFFFFFFFFFFFFFFFFFFFFFFFFFF6E
:10426000FFFFFFFFFFFFFFFFFFFFFFFFFFFFFFFF5E
:10427000FFFFFFFFFFFFFFFFFFFFFFFFFFFFFFFF4E
:10428000FFFFFFFFFFFFFFFFFFFFFFFFFFFFFFFF3E
:10BE7000FFFF5CFF98F698F698F698F698F698F615
:10BE800098F698F698F698F698F698F698F698F642
:10BE900098F698F698F61BF7FFFFFFFFFFFFFFFFEE
:10BEA000FFFFDFFF98F698F698F698F698F698F662
:10BEB00098F698F698F698F698F698F698F698F612
:10BEC00098F6BEFFFFFFFFFFFFFFFFFFFFFFFFFF33
:10BED000FFFFD9F698F698F698F698F698F698F641
:10BEE00098F698F698F698F698F698F698F698F6E2
:10BEF00098F698F6B9F6DFFFFFFFFFFFFFFFFFFFA1
:10BF0000FFFFFFFFFFFFFFFFFFFFFFFFFFFFFFFF41
:10BF1000FFFFFFFFFFFFFFFF98F678F678F678F651
:10BF200078F678F678F678F678F678F678F678F6A1
:10BF300078F678F678F678F69DFFFFFFFFFFFFFFB3
:10BF4000FFFFFFFFFFFFFFFFFFFFFFFFFFFFFFFF01
:10BF5000FFFFFFFFFFFFFFFFFFFFFFFFFFFFFFFFF1
:10BF6000FFFFFFFFFFFFFFFFFFFFFFFFFFFFFFFFE1
:10BF7000FFFFFFFFFFFFFFFFFFFFFFFF9DFF98F6A3
:10BF800098F698F698F698F698F698F698F698F641
:10BF900098F698F698F698F698F698F698F61AF7AE
:10BFA000FFFFFFFFFFFFFFFFFFFFFFFFFFFFFFFFA1
:10BFB000FFFFFFFFFFFFFFFFFFFFFFFFFFFFFFFF91
:10BFC000FFFFFFFFFFFFFFFFFFFFFFFFFFFFFFFF81
:10BFD000FFFFFFFFFFFFFFFFFFFFFFFFFFFFFFFF71
:10BFE000FFFFFFFFFFFFFFFFFFFFFFFFFFFFFFFF61
:10BFF000FFFFFFFFFAF698F698F698F698F698F68F
:10C0000098F698F698F698F698F698F698F698F6C0
:10C0100098F698F61BF7FFFFFFFFFFFFFFFFFFFFFC
:10C02000FFFFFFFFFFFFFFFF98F698F698F698F6E0
:10C0300098F698F698F698F698F698F698F698F690
:10C0400098F698F698F698F698F698F698F698F680
:10C0500098F698F698F698F698F698F698F698F670
:10C0600098F698F698F698F698F698F698F698F660
:10C0700098F698F698F698F698F698F698F698F650
:10C0800098F698F698F698F698F698F698F698F640
:10C0900098F698F698F698F698F698F698F698F630
:10C0A00098F698F698F698F6FAF6FFFFFFFFFFFF6E
:10C0B000FFFFFFFFFFFFFFFFFFFFFFFFFFFFFFFF90
:10C0C000FFFFFFFFFFFFFFFFFFFFFFFFFFFFFFFF80
:10C0D000FFFFFFFFB9F698F698F698F698F698F6EF
:10C0E00098F698F698F698F698F698F698F698F6E0
:10C0F00098F698F698F698F698F698F698F698F6D0
:10C1000098F698F698F698F698F698F698F698F6BF
:10C1100098F698F698F698F698F698F698F678F6CF
:10C1200078F678F678F678F678F678F678F678F69F
:10C1300078F678F678F678F678F678F678F678F68F
:10C1400078F678F678F678F678F678F678F678F67F
:10C1500078F678F678F678F678F678F678F678F66F
:10C1600078F678F678F678F678F678F678F6FAF6DD
:10C17000FFFFFFFFFFFFFFFFFFFFFFFFFFFFFFFFCF
:10C18000FFFFFFFFFFFFFFFFFFFFFFFFFFFFFFFFBF
:10C19000FFFFFFFFFFFFFFFFFFFFFFFFFFFFFFFFAF
:10C1A000FFFFFFFFFFFFFFFFFFFFFFFFFFFFFFFF9F
:10C1B000FFFFFFFFFFFFFFFFFFFFFFFFFFFFFFFF8F
:10C1C000FFFFFFFFFFFFFFFFFFFFFFFFFFFFFFFF7F
:10C1D000FFFFFFFFFFFFFFFFFFFFFFFFFFFFFFFF6F
:10C1E000FFFFFFFFFFFFFFFFFFFFFFFFFFFFFFFF5F
:10C1F000FFFFFFFFFFFFFFFFFFFFFFFFFFFFFFFF4F
:10C20000FFFFFFFFFFFFFFFFFFFFFFFFFFFFFFFF3E
:10C21000FFFFFFFFFFFFFFFFFFFFFFFFFFFFFFFF2E
:10C22000FFFFFFFFFFFFFFFFFFFFFFFFFFFFFFFF1E
:10C230003BF726D243C943C943C943C943C943C98C
:10C2400043C943C943C943C943C943C943C943C98E
:10C2500043C943C946D27DFFFFFFFFFFFFFFFFFF3A
:10C26000FFFFBEFF43C943C943C943C943C943C9CB
:10C2700043C943C943C943C943C943C943C943C95E
:10C2800043C9DAF6FFFFFFFFFFFFFFFFFFFFDFFFFE
:10C29000AFE444C943C943C943C943C943C943C9B6
:10C2A00043C943C943C943C943C943C943C943C92E
:10C2B00043C964C98FE4FFFFFFFFFFFFFFFFFFFFDC
:10C2C000FFFFFFFFFFFFFFFFFFFFFFFFFFFFFFFF7E
:10C2D000FFFFFFFFFFFFFFFFA5C923C923C923C934
:10C2E00023C923C923C923C923C923C923C923C9EE
:10C2F00023C923C923C923C9B8F6FFFFFFFFFFFFE6
:10C30000FFFFFFFFFFFFFFFFFFFFFFFFFFFFFFFF3D
:10C31000FFFFFFFFFFFFFFFFFFFFFFFFFFFFFFFF2D
:10C32000FFFFFFFFFFFFFFFFFFFFFFFFFFFFFFFF1D
:10C33000FFFFFFFFFFFFFFFFFFFFFFFF4DDC43C9D4
:10C3400043C943C943C943C943C943C943C943C98D
:10C3500043C943C943C943C943C943C943C990E415
:10C36000FFFFFFFFFFFFFFFFFFFFFFFFFFFFFFFFDD
:10C37000FFFFFFFFFFFFFFFFFFFFFFFFFFFFFFFFCD
:10C38000FFFFFFFFFFFFFFFFFFFFFFFFFFFFFFFFBD
:10C39000FFFFFFFFFFFFFFFFFFFFFFFFFFFFFFFFAD
:10C3A000FFFFFFFFFFFFFFFFFFFFFFFFFFFFFFFF9D
:10C3B000FFFFFFFFC9D243C943C943C943C943C9AA
:10C3C00043C943C943C943C943C943C943C943C90D
:10C3D00043C943C9EEDBFFFFFFFFFFFFFFFFFFFF86
:10C3E000FFFFFFFFFFFFBEFF43C943C943C943C966
:10C3F00043C943C943C943C943C943C943C943C9DD
:10C4000043C943C943C943C943C943C943C943C9CC
:10C4100043C943C943C943C943C943C943C943C9BC
:10C4200043C943C943C943C943C943C943C943C9AC
:10C4300043C943C943C943C943C943C943C943C99C
:10C4400043C943C943C943C943C943C943C943C98C
:10C4500043C943C943C943C943C943C943C943C97C
:10C4600043C943C943C943C9EBDBFFFFFFFFFFFFDC
:10C47000FFFFFFFFFFFFFFFFFFFFFFFFFFFFFFFFCC
:10C48000FFFFFFFFFFFFFFFFFFFFFFFFFFFFFFFFBC
:10C49000FFFFDFFF43C943C943C943C943C943C978
:10C4A00043C943C943C943C943C943C943C943C92C
:10C4B00043C943C943C943C943C943C943C943C91C
:10C4C00043C943C943C943C943C943C943C943C90C
:10C4D00043C943C943C943C943C943C943C943C9FC
:10C4E00023C923C923C923C923C923C923C923C9EC
:10C4F00023C923C923C923C923C923C923C923C9DC
:10C5000023C923C923C923C923C923C923C923C9CB
:10C5100023C923C923C923C923C923C923C923C9BB
:10C5200023C923C923C923C923C923C923C90BDCB0
:10C53000FFFFFFFFFFFFFFFFFFFFFFFFFFFFFFFF0B
:10C54000FFFFFFFFFFFFFFFFFFFFFFFFFFFFFFFFFB
:10C55000FFFFFFFFFFFFFFFFFFFFFFFFFFFFFFFFEB
:10C56000FFFFFFFFFFFFFFFFFFFFFFFFFFFFFFFFDB
:10C57000FFFFFFFFFFFFFFFFFFFFFFFFFFFFFFFFCB
:10C58000FFFFFFFFFFFFFFFFFFFFFFFFFFFFFFFFBB
:10C59000FFFFFFFFFFFFFFFFFFFFFFFFFFFFFFFFAB
:10C5A000FFFFFFFFFFFFFFFFFFFFFFFFFFFFFFFF9B
:10C5B000FFFFFFFFFFFFFFFFFFFFFFFFFFFFFFFF8B
:10C5C000FFFFFFFFFFFFFFFFFFFFFFFFFFFFFFFF7B
:10C5D000FFFFFFFFFFFFFFFFFFFFFFFFFFFFFFFF6B
:10C5E000FFFFFFFFFFFFFFFFFFFFFFFFFFFF1BF747
:10C5F00006D223C923C923C923C923C923C923C9EF
:10C6000023C923C923C923C923C923C923C923C9CA
:10C6100023C967D29DFFFFFFFFFFFFFFFFFFFFFF63
:10C62000FFFF9EFF23C923C923C923C923C923C9E7
:10C6300023C923C923C923C923C923C923C923C99A
:10C6400023C91BF7FFFFFFFFFFFFFFFFBEFFACDBB0
:10C6500023C923C923C923C923C923C923C923C97A
:10C6600023C923C923C923C923C923C923C923C96A
:10C6700044C932E5FFFFFFFFFFFFFFFFFFFFFFFFA2
:10C68000FFFFFFFFFFFFFFFFFFFFFFFFFFFFFFFFBA
:10C69000FFFFFFFFFFFFFFFF84C923C923C923C991
:10C6A00023C923C923C923C923C923C923C923C92A
:10C6B00023C923C923C923C91AF7FFFFFFFFFFFFBF
:10C6C000FFFFFFFFFFFFFFFFFFFFFFFFFFFFFFFF7A
:10C6D000FFFFFFFFFFFFFFFFFFFFFFFFFFFFFFFF6A
:10C6E000FFFFFFFFFFFFFFFFFFFFFFFFFFFFFFFF5A
:10C6F000FFFFFFFFFFFFFFFFFFFFFFFFC5C923C9CC
:10C7000023C923C923C923C923C923C923C923C9C9
:10C7100023C923C923C923C923C923C923C916EEA1
:10C72000FFFFFFFFFFFFFFFFFFFFFFFFFFFFFFFF19
:10C73000FFFFFFFFFFFFFFFFFFFFFFFFFFFFFFFF09
:10C74000FFFFFFFFFFFFFFFFFFFFFFFFFFFFFFFFF9
:10C75000FFFFFFFFFFFFFFFFFFFFFFFFFFFFFFFFE9
:10C76000FFFFFFFFFFFFFFFFFFFFFFFFFFFFFFFFD9
:10C77000FFFFFFFF68D223C923C923C923C923C9E7
:10C7800023C923C923C923C923C923C923C923C949
:10C7900023C923C970E4FFFFFFFFFFFFFFFFFFFF77
:10C7A000FFFFFFFFFFFF7CFF23C923C923C923C964
:10C7B00023C923C923C923C923C923C923C923C919
:10C7C00023C923C923C923C923C923C923C923C909
:10C7D00023C923C923C923C923C923C923C923C9F9
:10C7E00023C923C923C923C923C923C923C923C9E9
:10C7F00023C923C923C923C923C923C923C923C9D9
:10C8000023C923C923C923C923C923C923C923C9C8
:10C8100023C923C923C923C923C923C923C923C9B8
:10C8200023C923C923C923C9CFE4FFFFFFFFFFFFAB
:10C83000FFFFFFFFFFFFFFFFFFFFFFFFFFFFFFFF08
:10C84000FFFFFFFFFFFFFFFFFFFFFFFFFFFFFFFFF8
:10C85000FFFF5CFF23C923C923C923C923C923C9F7
:10C8600023C923C923C923C923C923C923C923C968
:10C8700023C923C923C923C923C923C923C923C958
:10C8800023C923C923C923C923C923C923C923C948
:10C8900023C923C923C923C923C923C923C923C938
:10C8A00023C923C923C923C923C923C923C923C928
:10C8B00023C923C923C923C923C923C923C923C918
:10C8C00023C923C923C923C923C923C923C923C908
:10C8D00023C923C923C923C923C923C923C923C9F8
:10C8E00023C923C923C923C923C923C923C910E5DF
:10C8F000FFFFFFFFFFFFFFFFFFFFFFFFFFFFFFFF48
:10C90000FFFFFFFFFFFFFFFFFFFFFFFFFFFFFFFF37
:10C91000FFFFFFFFFFFFFFFFFFFFFFFFFFFFFFFF27
:10C92000FFFFFFFFFFFFFFFFFFFFFFFFFFFFFFFF17
:10C93000FFFFFFFFFFFFFFFFFFFFFFFFFFFFFFFF07
:10C94000FFFFFFFFFFFFFFFFFFFFFFFFFFFFFFFFF7
:10C95000FFFFFFFFFFFFFFFFFFFFFFFFFFFFFFFFE7
:10C96000FFFFFFFFFFFFFFFFFFFFFFFFFFFFFFFFD7
:10C97000FFFFFFFFFFFFFFFFFFFFFFFFFFFFFFFFC7
:10C98000FFFFFFFFFFFFFFFFFFFFFFFFFFFFFFFFB7
:10C99000FFFFFFFFFFFFFFFFFFFFFFFFFFFFFFFFA7
:10C9A000FFFFFFFFFFFFFFFFFFFFFFFFFAF6E5C9F5
:10C9B00023C923C923C923C923C923C923C923C917
:10C9C00023C923C923C923C923C923C923C923C907
:10C9D000A8D29EFFFFFFFFFFFFFFFFFFFFFFFFFF4C
:10C9E000FFFF9DFF23C923C923C923C923C923C925
:10C9F00023C923C923C923C923C923C923C923C9D7
:10CA000023C93BF7FFFFFFFFFFFF5CFFC9D223C92C
:10CA100023C923C923C923C923C923C923C923C9B6
:10CA200023C923C923C923C923C923C923C964C965
:10CA3000D5EDFFFFFFFFFFFFFFFFFFFFFFFFFFFF42
:10CA4000FFFFFFFFFFFFFFFFFFFFFFFFFFFFFFFFF6
:10CA5000FFFFFFFFFFFFFFFF64C923C923C923C9ED
:10CA600023C923C923C923C923C923C923C923C966
:10CA700023C923C923C923C97DFFFFFFFFFFFFFF90
:10CA8000FFFFFFFFFFFFFFFFFFFFFFFFFFFFFFFFB6
:10CA9000FFFFFFFFFFFFFFFFFFFFFFFFFFFFFFFFA6
:10CAA000FFFFFFFFFFFFFFFFFFFFFFFFFFFFFFFF96
:10CAB000FFFFFFFFFFFFFFFFFFFFFFFF44C923C989
:10CAC00023C923C923C923C923C923C923C923C906
:10CAD00023C923C923C923C923C923C923C97CFF67
:10CAE000FFFFFFFFFFFFFFFFFFFFFFFFFFFFFFFF56
:10CAF000FFFFFFFFFFFFFFFFFFFFFFFFFFFFFFFF46
:10CB0000FFFFFFFFFFFFFFFFFFFFFFFFFFFFFFFF35
:10CB1000FFFFFFFFFFFFFFFFFFFFFFFFFFFFFFFF25
:10CB2000FFFFFFFFFFFFFFFFFFFFFFFFFFFFFFFF15
:10CB3000FFFFFFFF26D223C923C923C923C923C965
:10CB400023C923C923C923C923C923C923C923C985
:10CB500023C923C911E5FFFFFFFFFFFFFFFFFFFF11
:10CB6000FFFFFFFFFFFF3BF723C923C923C923C9E9
:10CB700023C923C923C923C923C923C923C923C955
:10CB800023C923C923C923C923C923C923C923C945
:10CB900023C923C923C923C923C923C923C923C935
:10CBA00023C923C923C923C923C923C923C923C925
:10CBB00023C923C923C923C923C923C923C923C915
:10CBC00023C923C923C923C923C923C923C923C905
:10CBD00023C923C923C923C923C923C923C923C9F5
:10CBE00023C923C923C923C9D4EDFFFFFFFFFFFFDA
:10CBF000FFFFFFFFFFFFFFFFFFFFFFFFFFFFFFFF45
:10CC0000FFFFFFFFFFFFFFFFFFFFFFFFFFFFFFFF34
:10CC1000FFFFD9F623C923C923C923C923C923C9BF
:10CC200023C923C923C923C923C923C923C923C9A4
:10CC300023C923C923C923C923C923C923C923C994
:10CC400023C923C923C923C923C923C923C923C984
:10CC500023C923C923C923C923C923C923C923C974
:10CC600023C923C923C923C923C923C923C923C964
:10CC700023C923C923C923C923C923C923C923C954
:10CC800023C923C923C923C923C923C923C923C944
:10CC900023C923C923C923C923C923C923C923C934
:10CCA00023C923C923C923C923C923C923C935EEED
:10CCB000FFFFFFFFFFFFFFFFFFFFFFFFFFFFFFFF84
:10CCC000FFFFFFFFFFFFFFFFFFFFFFFFFFFFFFFF74
:10CCD000FFFFFFFFFFFFFFFFFFFFFFFFFFFFFFFF64
:10CCE000FFFFFFFFFFFFFFFFFFFFFFFFFFFFFFFF54
:10CCF000FFFFFFFFFFFFFFFFFFFFFFFFFFFFFFFF44
:10CD0000FFFFFFFFFFFFFFFFFFFFFFFFFFFFFFFF33
:10CD1000FFFFFFFFFFFFFFFFFFFFFFFFFFFFFFFF23
:10CD2000FFFFFFFFFFFFFFFFFFFFFFFFFFFFFFFF13
:10CD3000FFFFFFFFFFFFFFFFFFFFFFFFFFFFFFFF03
:10CD4000FFFFFFFFFFFFFFFFFFFFFFFFFFFFFFFFF3
:10CD5000FFFFFFFFFFFFFFFFFFFFFFFFFFFFFFFFE3
:10CD6000FFFFFFFFFFFFFFFFFFFFB9F6C5C923C9A4
:10CD700023C923C923C923C923C923C923C923C953
:10CD800023C923C923C923C923C923C923C90AD352
:10CD9000BEFFFFFFFFFFFFFFFFFFFFFFFFFFFFFFE4
:10CDA000FFFF9DFF23C923C923C923C923C923C961
:10CDB00023C923C923C923C923C923C923C923C913
:10CDC00023C97CFFFFFFFFFFFAF626D223C923C940
:10CDD00023C923C923C923C923C923C923C923C9F3
:10CDE00023C923C923C923C923C923C9C5C978F6BF
:10CDF000FFFFFFFFFFFFFFFFFFFFFFFFFFFFFFFF43
:10CE0000FFFFFFFFFFFFFFFFFFFFFFFFFFFFFFFF32
:10CE1000FFFFFFFFFFFFFFFF44C923C923C923C949
:10CE200023C923C923C923C923C923C923C923C9A2
:10CE300023C923C923C923C9DFFFFFFFFFFFFFFF6A
:10CE4000FFFFFFFFFFFF52E5ABDBABDBABDBABDB99
:10CE5000ABDBABDBABDBABDBABDBABDBABDBABDBA2
:10CE6000ABDBABDBABDBABDBABDBABDBABDBABDB92
:10CE7000ABDBABDBABDBABDBABDBABDB23C923C9B6
:10CE800023C923C923C923C923C923C923C923C942
:10CE900023C923C923C923C923C923C963C9ABDB58
:10CEA000ABDBABDBABDBABDBABDBABDBABDBABDB52
:10CEB000ABDBABDBABDBABDBABDBABDBABDBABDB42
:10CEC000ABDBABDBABDBABDBABDBABDBABDBABDB32
:10CED000ECDBFFFFFFFFFFFFFFFFFFFFFFFFFFFF99
:10CEE000FFFFFFFFFFFFFFFFFFFFFFFFFFFFFFFF52
:10CEF000FFFFFFFFE5C923C923C923C923C923C9EC
:10CF000023C923C923C923C923C923C923C923C9C1
:10CF100023C923C9B4EDFFFFFFFFFFFFFFFFFFFFA2
:10CF2000FFFFFFFFFFFFFAF623C923C923C923C967
:10CF300023C923C923C923C923C923C923C923C991
:10CF400023C923C923C923C923C923C923C923C981
:10CF500023C923C923C923C923C923C923C923C971
:10CF600023C923C923C923C923C923C923C923C961
:10CF700023C923C923C923C923C923C923C923C951
:10CF800023C923C923C923C923C923C923C923C941
:10CF900023C923C923C923C923C923C923C923C931
:10CFA00023C923C923C923C9D9F6FFFFFFFFFFFF08
:10CFB000FFFFFFFFFFFFFFFFFFFFFFFFFFFFFFFF81
:10CFC000FFFFFFFFFFFFFFFFFFFFFFFFFFFFFFFF71
:10CFD000FFFF36EE23C923C923C923C923C923C9A7
:10CFE00023C923C923C923C923C923C923C923C9E1
:10CFF00023C923C923C923C923C923C923C923C9D1
:10D0000023C923C923C923C923C923C923C923C9C0
:10D0100023C923C923C923C923C923C923C923C9B0
:10D0200023C923C923C923C923C923C923C923C9A0
:10D0300023C923C923C923C923C923C923C923C990
:10D0400023C923C923C923C923C923C923C923C980
:10D0500023C923C923C923C923C923C923C923C970
:10D0600023C923C923C923C923C923C923C93BF71A
:10D07000FFFFFFFFFFFFFFFFFFFFFFFFFFFFFFFFC0
:10D08000FFFFFFFFFFFFFFFFFFFFFFFFFFFFFFFFB0
:10D09000FFFFFFFFFFFFFFFFFFFFFFFFFFFFFFFFA0
:10D0A000FFFFFFFFFFFFFFFFFFFFFFFFFFFFFFFF90
:10D0B000FFFFFFFFFFFFFFFFFFFFFFFFFFFFFFFF80
:10D0C000FFFFFFFFFFFFFFFFFFFFFFFFFFFFFFFF70
:10D0D000FFFFFFFFFFFFFFFFFFFFFFFFFFFFFFFF60
:10D0E000FFFFFFFFFFFFFFFFFFFFFFFFFFFFFFFF50
:10D0F000FFFFFFFFFFFFFFFFFFFFFFFFFFFFFFFF40
:10D10000FFFFFFFFFFFFFFFFFFFFFFFFFFFFFFFF2F
:10D11000FFFFFFFFFFFFFFFFFFFFFFFFFFFFFFFF1F
:10D12000FFFFFFFFFFFFFFFF99F6C5C923C923C912
:10D1300023C923C923C923C923C923C923C923C98F
:10D1400023C923C923C923C923C923C96BDBBEFF54
:10D15000FFFFFFFFFFFFFFFFFFFFFFFFFFFFFFFFDF
:10D16000FFFF7DFF23C923C923C923C923C923C9BD
:10D1700023C923C923C923C923C923C923C923C94F
:10D1800023C99DFFFFFF57F6C5C923C923C923C97A
:10D1900023C923C923C923C923C923C923C923C92F
:10D1A00023C923C923C923C923C926D2FAF6FFFFFD
:10D1B000FFFFFFFFFFFFFFFFFFFFFFFFFFFFFFFF7F
:10D1C000FFFFFFFFFFFFFFFFFFFFFFFFFFFFFFFF6F
:10D1D000FFFFFFFFFFFFFFFF43C923C923C923C987
:10D1E00023C923C923C923C923C923C923C923C9DF
:10D1F00023C923C923C9C4C9FFFFFFFFFFFFFFFFE6
:10D20000FFFFFFFFFFFF4ADB23C923C923C923C94F
:10D2100023C923C923C923C923C923C923C923C9AE
:10D2200023C923C923C923C923C923C923C923C99E
:10D2300023C923C923C923C923C923C923C923C98E
:10D2400023C923C923C923C923C923C923C923C97E
:10D2500023C923C923C923C923C923C923C923C96E
:10D2600023C923C923C923C923C923C923C923C95E
:10D2700023C923C923C923C923C923C923C923C94E
:10D2800023C923C923C923C923C923C923C923C93E
:10D29000A5C9FFFFFFFFFFFFFFFFFFFFFFFFFFFF2E
:10D2A000FFFFFFFFFFFFFFFFFFFFFFFFFFFFFFFF8E
:10D2B000FFFFFFFF84C923C923C923C923C923C989
:10D2C00023C923C923C923C923C923C923C923C9FE
:10D2D00023C923C957EEFFFFFFFFFFFFFFFFFFFF3B
:10D2E000FFFFFFFFFFFFB9F623C923C923C923C9E5
:10D2F00023C923C923C923C923C923C923C923C9CE
:10D3000023C923C923C923C923C923C923C923C9BD
:10D3100023C923C923C923C923C923C923C923C9AD
:10D3200023C923C923C923C923C923C923C923C99D
:10D3300023C923C923C923C923C923C923C923C98D
:10D3400023C923C923C923C923C923C923C923C97D
:10D3500023C923C923C923C923C923C923C923C96D
:10D3600023C923C923C923C99DFFFFFFFFFFFFFF77
:10D37000FFFFFFFFFFFFFFFFFFFFFFFFFFFFFFFFBD
:10D38000FFFFFFFFFFFFFFFFFFFFFFFFFFFFFFFFAD
:10D39000FFFFB3ED23C923C923C923C923C923C967
:10D3A00023C923C923C923C923C923C923C923C91D
:10D3B00023C923C923C923C923C923C923C923C90D
:10D3C00023C923C923C923C923C923C923C923C9FD
:10D3D00023C923C923C923C923C923C923C923C9ED
:10D3E00023C923C923C923C923C923C923C923C9DD
:10D3F00023C923C923C923C923C923C923C923C9CD
:10D4000023C923C923C923C923C923C923C923C9BC
:10D4100023C923C923C923C923C923C923C923C9AC
:10D4200023C923C923C923C923C923C923C9FFFF8A
:10D43000FFFFFFFFFFFFFFFFFFFFFFFFFFFFFFFFFC
:10D44000FFFFFFFFFFFFFFFFFFFFFFFFFFFFFFFFEC
:10D45000FFFFFFFFFFFFFFFFFFFFFFFFFFFFFFFFDC
:10D46000FFFFFFFFFFFFFFFFFFFFFFFFFFFFFFFFCC
:10D47000FFFFFFFFFFFFFFFFFFFFFFFFFFFFFFFFBC
:10D48000FFFFFFFFFFFFFFFFFFFFFFFFFFFFFFFFAC
:10D49000FFFFFFFFFFFFFFFFFFFFFFFFFFFFFFFF9C
:10D4A000FFFFFFFFFFFFFFFFFFFFFFFFFFFFFFFF8C
:10D4B000FFFFFFFFFFFFFFFFFFFFFFFFFFFFFFFF7C
:10D4C000FFFFFFFFFFFFFFFFFFFFFFFFFFFFFFFF6C
:10D4D000FFFFFFFFFFFFFFFFFFFFFFFFFFFFFFFF5C
:10D4E000FFFFFFFFFFFF78F6A5C923C923C923C9A2
:10D4F00023C923C923C923C923C923C923C923C9CC
:10D5000023C923C923C923C923C9CDDBBEFFFFFF1C
:10D51000FFFFFFFFFFFFFFFFFFFFFFFFFFFFFFFF1B
:10D52000FFFF7DFF23C923C923C923C923C923C9F9
:10D5300023C923C923C923C923C923C923C923C98B
:10D5400023C9BEFF74ED64C923C923C923C923C9F4
:10D5500023C923C923C923C923C923C923C923C96B
:10D5600023C923C923C923C9A8D25CFFFFFFFFFF3A
:10D57000FFFFFFFFFFFFFFFFFFFFFFFFFFFFFFFFBB
:10D58000FFFFFFFFFFFFFFFFFFFFFFFFFFFFFFFFAB
:10D59000FFFFFFFFFFFFDFFF23C923C923C923C903
:10D5A00023C923C923C923C923C923C923C923C91B
:10D5B00023C923C923C966D2FFFFFFFFFFFFFFFF77
:10D5C000FFFFFFFFFFFFA7D223C923C923C923C938
:10D5D00023C923C923C923C923C923C923C923C9EB
:10D5E00023C923C923C923C923C923C923C923C9DB
:10D5F00023C923C923C923C923C923C923C923C9CB
:10D6000023C923C923C923C923C923C923C923C9BA
:10D6100023C923C923C923C923C923C923C923C9AA
:10D6200023C923C923C923C923C923C923C923C99A
:10D6300023C923C923C923C923C923C923C923C98A
:10D6400023C923C923C923C923C923C923C923C97A
:10D6500006CAFFFFFFFFFFFFFFFFFFFFFFFFFFFF08
:10D66000FFFFFFFFFFFFFFFFFFFFFFFFFFFFFFFFCA
:10D67000FFFFFFFF43C923C923C923C923C923C906
:10D6800023C923C923C923C923C923C923C923C93A
:10D6900023C923C9FAF6FFFFFFFFFFFFFFFFFFFFCC
:10D6A000FFFFFFFFFFFF79F623C923C923C923C961
:10D6B00023C923C923C923C923C923C923C923C90A
