:020000040800F2
:10000000D07A01205D020008E78C000871580008D2
:10001000E58C000809150008F99E000800000000A2
:100020000000000000000000000000009D0100082A
:100030003D18000800000000F90100089D98000824
:1000400077020008770200087702000877020008AC
:10005000770200087702000877020008770200089C
:10006000770200087702000877020008770200088C
:100070001117000877020008770200081D17000812
:10008000770200087702000877020008770200086C
:10009000B11500087702000877020008770200080F
:1000A000819900088D9900087702000877020008FE
:1000B0007702000877020008999900087702000883
:1000C000770200087702000877020008770200082C
:1000D000770200087702000877020008770200081C
:1000E000411800087702000877020008770200082C
:1000F00077020008770200087702000877020008FC
:10010000770200086D8F0008A599000877020008A3
:1001100077020008770200087702000877020008DB
:100120002917000877020008770200083517000831
:10013000770200083F1800087702000877020008DD
:1001400077020008770200087702000877020008AB
:1001500077020008411700087702000877020008BC
:10016000770200087702000877020008770200088B
:1001700077020008770200087702000800000000FC
:100180007702000877020008DFF80CD000F0AAFB25
:100190000048004771A90008D07A01202C4B19684B
:1001A0000868B0E8F04F80F30988BFF36F8F4FF015
:1001B000000080F3118870470000000008480068C4
:1001C000006880F308884FF0000080F3148862B65E
:1001D00061B6BFF34F8FBFF36F8F00DF00BF00BF6B
:1001E00008ED00E0DFF80C00016841F470010160E7
:1001F000704700BF88ED00E0EFF30980BFF36F8F19
:10020000134B1A681EF0100F08BF20ED108A20E96A
:10021000F04F106009B44FF0500080F31188BFF325
:100220004F8FBFF36F8F0BF087FA4FF0000080F312
:10023000118809BC19680868B0E8F04F1EF0100F6B
:1002400008BFB0EC108A80F30988BFF36F8F704746
:1002500038000020EFF30580704700000648804713
:1002600006480047FEE7FEE7FEE7FEE7FEE7FEE79B
:10027000FEE7FEE7FEE7FEE7659900088901000852
:100280002DE9F05F0546002092469B4688460646CB
:10029000814640241BE0284641464746224600F05E
:1002A00036F953465A46C01A914110D311461846A2
:1002B000224600F01DF92D1A67EB01084F46224631
:1002C0000120002100F014F917EB00094E41201E17
:1002D000A4F10104DFDC484631462A464346BDE826
:1002E000F09F40EA01039B0703D009E008C9121FF1
:1002F00008C0042AFAD203E011F8013B00F8013BE0
:10030000521EF9D27047D2B201E000F8012B491E0B
:10031000FBD270470022F6E710B513460A460446A2
:100320001946FFF7F0FF204610BD10B5002200E08F
:10033000521C835C8C5CA34201D1002BF8D1D8B253
:10034000E1B2401A10BD2DE9FE4F81EA030404F02A
:10035000004421F0004100944FF0000B23F00043D3
:1003600050EA01045ED052EA03045BD0C3F30A549E
:10037000C1F30A552C44A4F2F3340194A0FB0254B7
:10038000C1F3130141F48011C3F3130343F4801349
:1003900001FB024400FB034E840A970A44EA81549D
:1003A00047EA8357A4FB076802958D0A05FB07857A
:1003B0004FEA932C04FB0C542705029D4FEA065884
:1003C00047EA1637B5EB08056EEB070C870E920E61
:1003D00047EA811742EA8312A7FB0201B6EB0B0141
:1003E00064EB00042B0D43EA0C335E1844EB1C5005
:1003F000DA465146E7FB0201C5F313044FEA0B331B
:1004000043EA14534FEA0432019C43EA0603A4F181
:100410000C040294009CCDE900B400F0CEF803B0C7
:10042000BDE8F08F00200146F9E70EB5C10F80EA64
:10043000E0700844CA07002140F233438DE80E0003
:100440000A460B4600F0B9F803B000BD0EB540F205
:10045000334102910021CDE900110A460B4600F01C
:10046000ACF803B000BD00F0004230F000400AD00C
:10047000C10D01F56071C0F3160042EA0151C208D6
:1004800040071143704700200146704701F00043C8
:1004900030B421F0004150EA010206D00A0DA2F565
:1004A0006072C1F31301002A02DC30BC00207047E7
:1004B000440F44EAC104C100E01830BC00EBC25054
:1004C00000F035B830B50B4601460020202201244B
:1004D00009E021FA02F59D4205D303FA02F5491B12
:1004E00004FA02F52844151EA2F10102F1DC30BD28
:1004F000202A04DB203A00FA02F1002070479140E4
:10050000C2F1200320FA03F3194390407047202AD8
:1005100004DB203A21FA02F00021704721FA02F3AD
:10052000D040C2F12002914008431946704700298B
:10053000A8BF7047401C490008BF20F00100704769
:1005400010B4B0FA80FC00FA0CF050EA010404BFC9
:1005500010BC704749B1CCF1200421FA04F411FA1F
:100560000CF118BF012121430843A3EB0C01CB1D63
:100570004FEA00614FEA102042BF002010BC7047D4
:1005800000EBC35010440029A4BF10BC7047401CAE
:10059000490008BF20F0010010BC704710B5141EC0
:1005A00073F1000408DA401C41F1000192185B412C
:1005B0001A4301D120F0010010BD2DE9F04D924603
:1005C0009B4611B1B1FA81F202E0B0FA80F220321A
:1005D0009046FFF78DFF04460F4640EA0A0041EAC5
:1005E0000B0153465A46084313D0114653EA010003
:1005F00019D0C8F140025046FFF789FF05460E4664
:10060000504659464246FFF773FF084305D0012084
:1006100004E020463946BDE8F08D0020054346EA57
:10062000E0762C4337430A986305E40AA0EB080000
:100630000022FD0A44EA47540A3002D50020014650
:10064000E9E7010510196941DDE90845001969412B
:10065000BDE8F04DA2E72DE9FE4F804681EA030098
:10066000C00F0C46009021F0004123F00045B8EB8C
:100670000200A94105D24046214690461C460B4641
:10068000024623F00040104347D0270DC7F30A006D
:10069000C3F30A510290401A019040286BDAC3F369
:1006A000130040F4801B0098924620B10023D2EB47
:1006B000030A63EB0B0B01985946C0F14002504608
:1006C000FFF716FF06460D4650465946019A00F0C0
:1006D0001BF910EB08006141002487EA115284EAFB
:1006E000E7731A4340D0009A62B3019A012A4FEA95
:1006F000075215DC001B61EB02014FF0004202EAD9
:100700000752CDE90042001C41F5801132462B46CC
:10071000FFF753FF03B0BDE8F08F40462146F9E7ED
:10072000001B61EB0201001C41F5801300185B41C6
:100730002018A2F5001747EB030140EAD570B6195F
:100740006D4111E06D084FEA360645EAC0754FEA83
:100750000752001B61EB0201001C41F580114908A2
:100760004FEA30000019514132462B4603B0BDE834
:10077000F04FFFF713BF0098012240000023D0EB99
:10078000020263EBE073009821464FEAE074B8EB95
:10079000000061EB0401E9E783F000435BE781F0CF
:1007A000004158E72DE9F04D81EA030404F0004BC5
:1007B00021F0004514464FF0000A23F0004150EAB2
:1007C000050220D054EA01021DD0C5F30A570246A3
:1007D000C5F31303C1F31300C1F30A5640F48015A7
:1007E00043F48013A7EB0608101BD64608F2FD3829
:1007F00073EB050002D308F1010801E092185B4198
:10080000B8F1000F03DA00200146BDE8F08D0020AA
:100810004FF48011064684460EE0171B73EB050764
:1008200005D3121B63EB050306434CEA010C490890
:100830004FEA300092185B4150EA0107EDD152EACD
:10084000030012D082EA040083EA0501084305D0C0
:10085000101BAB4106D20122002306E000224FF01C
:10086000004302E06FF0010253101AEB06004CEB5C
:10087000085110EB0A0041EB0B01BDE8F04DFFF70A
:100880008DBEC1F30A52C1F3130140F2FF3341F4AC
:1008900080119A4202DA00200146704740F2334349
:1008A0009A42A2F2334202DC5242FFF730BEFFF717
:1008B0001FBE000030B5041E71F1000404DB4FF0D0
:1008C0000044404264EB0101141E73F1000405DB97
:1008D0001C464FF00043524263EB0403994208BFA9
:1008E000904230BD064C074D06E0E06840F0010341
:1008F00094E8070098471034AC42F6D3FFF748FC61
:1009000038C4030858C40308202A06DBCB17203A52
:1009100041FA02F043EAE07306E041FA02F3D04004
:10092000C2F12002914008431946704770B58C18F7
:1009300010F8015B15F0070301D110F8013B2A11F3
:1009400006D110F8012B03E010F8016B01F8016BE0
:100950005B1EF9D12B0705D40023521E0DD401F8DC
:10096000013BFAE710F8013BCB1A921C03E013F8A5
:10097000015B01F8015B521EF9D5A142D8D30020DA
:1009800070BD10B50146806B026C12F0500F05D09F
:10099000026CD20626D501F0C7F910BD016C41F4F6
:1009A0000071016401688A6812F0405F17D1027E0D
:1009B000AAB9CA6A12F4700F02D08A6852050ED41E
:1009C0004A6822F020024A60016C21F480710164BF
:1009D000016CC90403D4016C41F00101016401F010
:1009E000A1F910BD806BC26CBDE8104008461047ED
:1009F00010B5806B40210164416C41F004014164F9
:100A000001F092F910BD10B5806B01F08CF910BDAA
:100A1000464910B54A6822F440324A604A68436841
:100A20001A434A6001684A6822F480724A60016889
:100A30004A68036942EA03224A6001684A6822F070
:100A400040724A6001684A6883681A434A600168D4
:100A50008A6822F400628A6001688A68C3681A435F
:100A60008A60816A6FF07062D14201688A6822F000
:100A700070628A6001688A680CD0836A1A438A604F
:100A800001688A6822F040528A6001688A68C36AF5
:100A90001A4301E022F040528A6001688A6822F01D
:100AA00002028A6001688A68037E42EA43028A6021
:100AB00090F82010002901684A680FD042F40062C3
:100AC0004A6001684A6822F460424A6001684A68E4
:100AD000174C436A04EB43331A4301E022F40062EB
:100AE0004A600168CA6A22F47002CA620168CA6A6E
:100AF000838B104C04EB03531A43CA6201688A6863
:100B000022F400728A6001688A6890F8303042EA04
:100B100043228A6001688A6822F480628A600168E0
:100B20008A68406942EA8020886010BD0023014045
:100B300000E0FFFF0000F0FF2DE9FC47954E4FF469
:100B400000752946304602F0A7FA182400287DD106
:100B500091A0CDE900404FF42F7718233A46142195
:100B6000322006F00FFC96A0CDE9004018233A464B
:100B70001421322006F006FC0AF0F0FA4FF4B478A3
:100B800030B16F22984999A009F0B8F9A2A005E008
:100B900074229549A7A009F0B1F9B1A0CDE90040B0
:100BA000322118234246084606F0ECFB09F098FE75
:100BB00030B17B228C49B0A009F0A0F9B9A005E0C2
:100BC00080228949BEA009F099F9C8A0CDE900406A
:100BD000182342465021322006F0D4FB08F0EAF9EF
:100BE00030B187228049C7A009F088F9D1A005E07B
:100BF0008C227D49D6A009F081F9E1A0CDE9004021
:100C0000182342466E21322006F0BCFB00F0D1FBD7
:100C100030B193227449E0A009F070F9E7A005E033
:100C200098227149ECA009F069F9F4A0CDE90040DF
:100C3000182342468C21322006F0A4FB4FF4FA67B9
:100C4000384608F093F803287ED000E020E0A42284
:100C50006549F0A009F052F9F8A0CDE90040182349
:100C60004246AA21322006F08DFB384600F034FDC2
:100C700003286AD0B0225C49F6A009F03FF9FEA033
:100C8000CDE9004018234246C821322006F07AFB05
:100C90002946304602F000FA0028F9D0FCA0CDE940
:100CA00000401E235A22E121352006F06BFBF8A0FC
:100CB000CDE900401E235A22E1219B2006F062FB71
:100CC000F3A0CDE900401E235A22E121FF2006F0C7
:100CD00059FBEFA0CDE9004040F265151E235A22D2
:100CE000E121284606F04EFBE9A0CDE900404FF493
:100CF000E7761E235A22E121304606F043FB2EA060
:100D0000CDE900404FF40C781E235A22E1214046E1
:100D100006F038FB28A0CDE900404FF426791E23C9
:100D20005A22E121484606F02DFB23A0CDE90040E0
:100D300040F2A3171E235A223946352006F022FB23
:100D40001E231DA05A2201E0C1E1C7E1CDE9004008
:100D500039469B2006F016FB17A0CDE900401E2364
:100D60005A223946FF2006F00DFB13A0CDE90040C2
:100D70001E235A223946284606F004FB0EA0CDE970
:100D800000401E235A223946304606F0FBFAC0A026
:100D90001E2381E10020024020202020202020204E
:100DA0002020202020202020202020202020202043
:100DB0002020202020202020202020202020000073
:100DC0004261636B626F6172642068617264776113
:100DD0007265207465737420737461727465642E17
:100DE0002E2E2E2E2E2E000063AA03085B45525293
:100DF0004F525D5B25732C25645D3A205732355880
:100E0000313620696E697469616C697A6520666142
:100E1000696C6564210D0A0053504920464C4153CA
:100E200048205445535420202020204552524F52F0
:100E3000200000005B494E464F5D5B25732C256406
:100E40005D3A2057323558313620696E69746961D0
:100E50006C697A652073756363657373210D0A008D
:100E600053504920464C4153482054455354202068
:100E70002020204F4B2000005B4552524F525D5BBB
:100E800025732C25645D3A20454550524F4D20690D
:100E90006E697469616C697A65206661696C656404
:100EA000210D0A0049324320454550524F4D2054F0
:100EB000455354202020204552524F52200000001C
:100EC0005B494E464F5D5B25732C25645D3A20459A
:100ED0004550524F4D20696E697469616C697A653D
:100EE0002073756363657373210D0A0049324320D3
:100EF000454550524F4D2054455354202020204FFB
:100F00004B2000005B4552524F525D5B25732C25F0
:100F1000645D3A205344206361726420696E697491
:100F200069616C697A65206661696C6564210D0A86
:100F3000000000005344494F5F5344434152442052
:100F4000544553542020204552524F522000000057
:100F50005B494E464F5D5B25732C25645D3A2053FB
:100F600044206361726420696E697469616C697A96
:100F7000652073756363657373210D0A00000000BB
:100F80005344494F5F5344434152442054455354C2
:100F90002020204F4B2000005B4552524F525D5B9A
:100FA00025732C25645D3A20776D383937382066F3
:100FB00061696C6564210D0A00000000574D3839E5
:100FC000373820544553542020202020202020450D
:100FD00052524F52200000005B494E464F5D5B2548
:100FE000732C25645D3A20776D3839373820737556
:100FF0006363657373210D0A00000000574D383993
:101000003738205445535420202020202020204FC2
:101010004B2000005B494E464F5D5B25732C2564D9
:101020005D3A2052533438355F54657374207375BC
:101030006363657373210D0A000000005253343856
:101040003520544553542020202020202020204F9C
:101050004B2000005B494E464F5D5B25732C256499
:101060005D3A2043414E5F5465737420737563632A
:10107000657373210D0A000043414E2054455354BB
:1010800020202020202020202020204F4B20000046
:1010900020204F4646200000CDE900405A22394624
:1010A000404606F06FF9AFF21800CDE900401E236C
:1010B0005A223946484606F065F902F051FD0B48C0
:1010C00004F02EFABDE8FC47094801F067BA9F22F8
:1010D000084909A008F012FF11A0BEE5AB2205499E
:1010E00016A008F00BFF1EA0CAE50000540900205E
:1010F0007002002063AA03085B4552524F525D5BA9
:1011000025732C25645D3A2052533438355F54657D
:101110007374206661696C6564210D0A000000002B
:101120005253343835205445535420202020202059
:101130002020204552524F52200000005B45525261
:101140004F525D5B25732C25645D3A2043414E5F11
:1011500054657374206661696C6564210D0A000032
:1011600043414E205445535420202020202020204D
:101170002020204552524F522000000030B58DB043
:10118000142107A8FFF7C6F80024314D0094224629
:1011900080212846019401F08BFF0A2001F05EFDBA
:1011A00001228021284601F083FF0A2001F056FD2C
:1011B0000420029003AA0120022582E8310002A93E
:1011C000244801F08DFE642001F048FD04226946A8
:1011D00048F2401000F06CF88DF804406A461EA1F9
:1011E00007A808F0B3FE6B468A221E491EA008F02D
:1011F00085FE25A16846FFF798F810B101200DB0D3
:1012000030BD8DF8005048F240050122694628465D
:1012100000F0A6F801226946E81D00F049F89DF8A3
:101220000030602B07D294220E4919A008F066FE08
:10123000012000F06DF80A2001F010FD8DF800404B
:1012400001226946284600F08BF80020D7E700000D
:101250000008024000200240544F554348204944B2
:101260003A257300A5AB03085B494E464F5D5B25ED
:10127000732C25645D3A20544F5543482049443A25
:1012800025730D0A000000003931343700000000DA
:101290005B494E464F5D5B25732C25645D3A2044C7
:1012A000656661756C74205665723A25640D0A0096
:1012B0002DE9F04115460E46044607F075FC28203E
:1012C00007F03AFC07F0BCFC200A07F035FC07F0F9
:1012D000B7FCE0B207F030FC07F0B2FC07F064FCAA
:1012E000292007F029FC07F0ABFC00246F1E09E061
:1012F000BC4201D0012000E0002007F0E9FB30559E
:10130000641CE4B2AC42F3D3BDE8F04107F072BC18
:1013100008B500218DF800108DF801000F4800BFBE
:10132000435C9DF80020491C1A44C9B28DF8002086
:10133000B829F5D3D0B2C043401C8DF80000B822C4
:10134000064948F2470000F00BF80222694648F2CD
:10135000FF0000F005F8002008BD0000EDAA03081A
:101360002DE9F04116460F460446002507F01CFC07
:10137000282007F0E1FB07F063FC200A07F0DCFB04
:1013800007F05EFCE0B207F0D7FB07F059FC002441
:1013900008E0385D07F0D0FB07F052FC050003D1F0
:1013A000641CE4B2B442F4D307F024FC2846BDE840
:1013B000F08110B50021084600F034F808B1012092
:1013C00010BD1B21012000F02DF84FF4D871022030
:1013D00000F028F86C21032000F024F800210620FA
:1013E00000F020F810212B2000F01CF84FF480743E
:1013F00021462F2000F016F82146302000F012F888
:101400000221312000F00EF80421312000F00AF80A
:1014100008210A2000F006F808210E2000F002F84A
:10142000002010BD7FB5054600200190029003907A
:10143000C1F3002040EA45008DF804000A488DF809
:1014400005100C4600680090022301AA34210748C9
:1014500001F0FEFE10B1012004B070BD0248001D75
:1014600020F815400020F7E7200100203C0500206F
:10147000014600201D2911D2DFE801F010292B219F
:101480002D10101010271F1D1B10101010251917DC
:1014900015101010102313110F00012070470220A7
:1014A00070470320704704207047052070470620CE
:1014B00070470720704708207047092070470F20A9
:1014C00070470A2070470B2070470C2070470D2092
:1014D00070470E20704710207047000008B504F0D8
:1014E00083FE08F0CFFB002007F0FEFB054800213B
:1014F00000904FF4F0734FF44872084604F008FE71
:1015000008BD000063BC0008FEE7000010B500F055
:1015100091F80D4801F072F930B154220B490CA03A
:1015200008F0ECFC00F097F90221074800F03AFDC2
:10153000002808D05B2205490EA008F0DFFCBDE8BA
:10154000104000F088B910BD70020020DAAA03082C
:101550005B4552524F525D5B25732C25645D3A20EA
:1015600043414E205374617274204661696C0D0AC8
:10157000000000005B4552524F525D5B25732C25E5
:10158000645D3A2043414E5F49545F52585F46497B
:10159000464F305F4D53475F50454E44494E4720BC
:1015A000456E61626C65204661696C0D0A00000041
:1015B000014800F068BE00007002002008B50EA0CF
:1015C0000021006800900D4840F222220123816032
:1015D0000260C1600421016101466A46084800F0CA
:1015E000F3FC002806D04822064907A008F086FC34
:1015F00000F031F908BD000001020304405A012047
:1016000070020020CBAA03085B4552524F525D5B2B
:1016100025732C25645D3A2043414E2073656E642A
:1016200020746573742064617461206661696C2143
:101630000D0A000000B58BB000200121039004903A
:10164000CDE90601CDE908100590009001900290C7
:101650006946094800F01CFD30B12222074908A064
:1016600008F04CFC00F0F7F8252204490FA008F020
:1016700045FC0BB000BD00007002002098AA0308D2
:101680005B4552524F525D5B25732C25645D3A20B9
:1016900043414E2046696C74657220436F6E6669E3
:1016A00067204661696C210D0A0000005B494E46C7
:1016B0004F5D5B25732C25645D3A2043414E2046E7
:1016C000696C74657220436F6E6669672053756339
:1016D00063657373210D0A0070B5044601F0EEFCDA
:1016E0000546FFF713FFFFF769FF084E09E0601C8E
:1016F00007D024B101F0E2FC401BA04201D9032035
:1017000070BD30780128F2D1002070BDD8000020D3
:10171000014801F031B9000094090020014801F0AE
:101720002BB90000D8050020014801F025B90000C0
:1017300010020020014801F01FB90000BC06002083
:10174000014801F019B900001C07002001681823A6
:10175000CAB2103AB2FBF3F2054B6FF30901032A48
:101760009B5CC36500D9091D816508467047000070
:1017700018BC000810B5014600208B698A6A4FF03A
:10178000C07453B1B3F5005F15D072B1012A0CD00B
:10179000022A0AD0032A09D104E01AB1012A06D08C
:1017A000022A03D1C96AC90100D5012010BDC96A46
:1017B000A142FAD010BD002AF7D0012AF2D0022AA5
:1017C000F3D0032AF3D010BD30B50468256825F4A2
:1017D00080252560046863608368402B036803D01C
:1017E00099600068C26030BD9A600068C16030BD19
:1017F0000A4810B50068016821F00101016000226B
:1018000011460C2002F050FA0C2002F040FABDE81C
:10181000104002220249034803F026BF9409002029
:1018200001010020540900200A4601464FF47A7352
:10183000014803F0C0BF0000540900207047704702
:1018400010B54FF4005001F03FFBBDE810404FF4DD
:10185000004001F039BB704770B5B3F5804F05D03B
:101860006FF0704140F82210002070BD50F8224007
:10187000084B8E891C40D1E9003543EA05138D6879
:1018800089692D0245EA06452B430B43234340F863
:101890002230E9E70000F0CFF0B50C6850F82430B2
:1018A000114A1340D1E90125D1E903672A433E4398
:1018B00032434E6932438E693243CE6932430E6AF7
:1018C00032434E6A32438E6A3243CE6A3243CE6B23
:1018D000096B32430A431A43082D01D142F04002FA
:1018E00040F824200020F0BD8000F0FF30B500EB70
:1018F000820250688D8900F04043D1E9000440EA3B
:1019000004108C68240244EA054420430C8A074DE5
:1019100005EB045420430C7D6D0105EB04648969DB
:101920002043084318435060002030BD0000F0FF02
:101930002DE9F1475E4E00244FF00A0AB07985B0D8
:10194000401CC0B2B0FBFAF20AFB1201594DA0468E
:10195000B07109B10A2879D248F24E19012205A9BD
:101960004846FFF7A5FC9DF814004FF0000701065C
:101970000AD500F00F00062806D28DF8007001226B
:1019800069464846FFF7ECFC9DF8140001075DD05E
:1019900000F00F01062959D2FF2088408DF8000081
:1019A000C04395F8149040F0C0002875288828811D
:1019B000688968824FF00108297D08FA04F0014225
:1019C00029D03D48042203A930F81400FFF770FC29
:1019D00095F824009DF80D10C0079DF80C0000EB51
:1019E00001200DD005EB440148819DF80E009DF8C3
:1019F0000F1000EB0120C0F5487025F814000AE034
:101A000025F814009DF80E009DF80F1000EB012042
:101A100005EB44014881641CE4B2052CCCD3274972
:101A20002A884FF001080B8828469A4203D8428939
:101A300049888A4209D99DF8141001F00F01012943
:101A40000BD94188018081896981B7719DF81400A3
:101A500000F08F0080280AD021E001890180418AAE
:101A6000418180218DF8141085F81490EEE7287DCF
:101A700001060DD520F0800028750D482988083012
:101A800001806989418005F0A7FC05F031FD06E081
:101A90004FF6FF712980698100F0E0002875B07968
:101AA000F02801D986F806A006B04046BDE8F087C8
:101AB00098000020845A0120B6AB0308745A012014
:101AC0001FB50024344D029403942878012832D1A4
:101AD00001222C7002A9104604F0D4F978B32F49E2
:101AE0002C70FF20087001264B1C324661212C48C7
:101AF000009604F067F9294B03229B1C61212848BA
:101B0000009604F05FF92548801C0078FF2801D07A
:101B100009F076FC2148401C007808B109F042FC2D
:101B200008201E4B00901433102261211C4804F041
:101B300049F909F0E1FB012008F070FFC5E7FFE774
:101B40009DF808304FF4D872164917A008F0D6F95E
:101B50009DF808201DA103A808F0F8F99DF80800D9
:101B600005F034FE1821CDE900101E235A2240F260
:101B7000A31140F2352005F005FC9DF80800FFF7A1
:101B800077FC064608221349102004F07BF9304602
:101B900009F000FECFE70000010000200400002053
:101BA0003C050020FFBB00085B494E464F5D5B25AE
:101BB000732C25645D3A20B0B4BCFCBCFCD6B520C7
:101BC0003D20307825780D0A00000000252378207C
:101BD000000000009C01002078B50024009490F8DB
:101BE0003C20012A19D0012280F83C200A680723F2
:101BF0000568092A13D9EE680A3A02EB42029340BB
:101C00009E43EE600B788A680A3B03EB43039A40DD
:101C10000368DD682A43DA6010E0022078BD2E698F
:101C200002EB420293409E432E610B788A6803EBDD
:101C300043039A4003681D692A431A614A681F23B7
:101C4000072A13D205686E6B521E02EB8202934084
:101C50009E436E630B790A885B1E92B203EB83038B
:101C60009A4003685D6B2A435A6327E005680D2A92
:101C700012D22E6BD21F02EB820293409E432E6340
:101C80000B790A88DB1F92B203EB83039A40036847
:101C90001D6B2A431A6311E0EE6A0D3A02EB8202D1
:101CA00093409E43EE620B790A880D3B92B203EBA0
:101CB00083039A400368DD6A2A43DA62164B05689B
:101CC000144A9D4206D10D68122D03D1556845F482
:101CD0008005556005689D4218D10B68102B01D016
:101CE000112B13D1536843F4000353600968102982
:101CF0000CD10A490A4A0968B1FBF2F101EB8101F2
:101D0000490000E0491E00910029FBD180F83C40C9
:101D1000002078BD00230140002001403400002055
:101D200040420F0070477047704770B504004FF095
:101D3000000503D0206C002610B107E0012070BD23
:101D4000204600F01DF8666484F83C60206CC006F4
:101D500010D4206C20F4885040F00200206420460B
:101D6000FEF756FE6664206C20F0020040F0010091
:101D7000206400E0012584F83C60284670BD000026
:101D800070B586B0064614216846FEF7C3FA1E49B0
:101D90003068884236D11D480025016841F48061D1
:101DA0000160006800F480600590184814380168EC
:101DB00041F0200101600068694600F020000590B4
:101DC0004FF4707000900320CDE90105104801F038
:101DD00087F8114C0F4820608005C4E90105001404
:101DE000C4E90350400060618000A0614011C4E973
:101DF00007052046656200F08FFE08B1FFF72BFD56
:101E0000B463A66306B070BD0022014044380240AE
:101E1000001402401064024010020020F8B50E4683
:101E200000210446009190F83C00012807D00120D1
:101E300084F83C0020688368DB0702D011E00220B0
:101E4000F8BD836843F0010383603748374B00686F
:101E5000B0FBF3F000EB400000E0401E00900028D3
:101E6000FBD120688368DB075CD0236C40F20165FE
:101E7000AB4343F4807323644068400505D5206C70
:101E800020F4005040F480502064206CC00404D53D
:101E9000606C20F00600606400E0616484F83C102F
:101EA000A16B2448224DC863A16B23480864A16B31
:101EB0002248C86421686FF02200086020684168E9
:101EC00041F0806141602068816841F480718160E7
:101ED0002168134632464C31A06B00F087FE6868DB
:101EE0001749C006206806D088421BD1816811F0CE
:101EF000405F13D016E08842F8D0124A904203D1D6
:101F0000D1F80423D206F1D00F4A90420AD1D1F879
:101F1000041301F01F011029E8D303E0816841F0A8
:101F2000804181600020F8BD3400002040420F0055
:101F30000023014083090008070A0008F10900088E
:101F400000200140002101400022014010B504465C
:101F5000002094F83C1001290CD0012184F83C1099
:101F600021688A6822F001028A6021688A68D207A3
:101F700002D013E0022010BD886820F480708860D1
:101F8000A06B00F06EFC21684A6822F080624A6013
:101F9000216C21F4885141F001012164002184F871
:101FA0003C1010BD90F82020012A07D0022A05D04D
:101FB000416A41F480214162012070470068426912
:101FC0000A43426100207047F0B590F82050046841
:101FD000A468012D05D0022D03D0416A41F480216F
:101FE00053E014F0406F01D1E5004BD5C4F3016418
:101FF000022C03D9416A41F4000146E00125A540C5
:102000001D608D684FF4C0739DB1CE6835434E6836
:1020100045EAC605066803EB0417F5514FF4C2758F
:10202000076805EB04150E697E51097D012905D06D
:1020300009E00E88CD6845EA4655EBE701684E5940
:1020400046F480764E511179D2F805504FF4C67699
:1020500041EA0525016806EB04168D511178D2F886
:1020600001204FF4C47541EA0221026805EB041512
:102070005151006803EB0411425842F001024250F2
:102080000020F0BD416A41F4001141620120F0BD21
:1020900010B590F82020012A07D0022A05D0416A05
:1020A00041F480214162012010BD3B48D0F800225C
:1020B00042F00102C0F80022D0F8002222F47C5243
:1020C000C0F80022D0F800224B6A42EA0322C0F88E
:1020D00000220A7D02F01F0301229A40D0F81C3230
:1020E0009343C0F81C32CB69B3B9D0F80C32934398
:1020F000C0F80C328C894B6864F31F434C6900EBC9
:10210000C404C4F840320C890B6864F31F434C6963
:1021100000EBC404C4F84432CB69012B16D1D0F8CB
:102120000C321343C0F80C320C884B6864F31F4325
:102130004C6900EBC404C4F840320C89CB6864F3EA
:102140001F434C6900EBC404C4F844328B69002B74
:10215000D0F804320ED01343C0F804320B69002BC0
:10216000D0F8143208D01343C0F81432096A012998
:1021700004D008E09343EFE79343F5E7D0F81C124F
:102180001143C0F81C12D0F8001221F00101C0F870
:102190000012002010BD000000640040704730B500
:1021A00090F82040012C05D0022C03D0416A41F464
:1021B00080215DE00468002955D02469A40754D02B
:1021C0004FF4D874056804EB01142D5915F004057B
:1021D000956005682D594ED0ED08556005682C595D
:1021E00004F00204D4604FF4DA74056804EB0114BF
:1021F0002D5905F00F05156105682D59C5F3072503
:10220000956105682C59240C54614FF4DC72046804
:1022100002EB0112A4581C700468A458240A5C70D4
:102220000468A458240C9C700468A258120EDA703A
:102230004FF4DE72046802EB0112A4581C710468AA
:10224000A458240A5C710468A458240C9C71046886
:10225000A258120EDA71006881B1016941F02001C3
:102260000161002030BDE468A8E7416A41F4001133
:102270004162012030BD6D0D1560AFE7C16841F0CE
:102280002001C160EDE72DE9F05F054600680024FC
:102290004669D0F804908768D0F80CB0D0F810A048
:1022A000D0F81880F10748D0F90714D001218160D7
:1022B000B80703D5284600F0CEFA0CE0780702D51F
:1022C0004FF4006407E0380702D54FF4805402E071
:1022D000284600F0BFFAF80516D529684FF480703B
:1022E0008860B80503D5284600F0B7FA0CE07805F9
:1022F00002D544F4005407E0380502D544F4804484
:1023000002E0284600F0A8FAF80316D529684FF431
:1023100080308860B80303D5284600F0A0FA0CE0AE
:10232000780302D544F4004407E0380302D544F4AE
:10233000803402E0284600F091FA300707D55FEAC2
:10234000CB6004D52968102044F40074C86070077D
:102350004FF0080707D55FEA0B7004D52868C760FF
:10236000284600F075F9B00706D52868C0688007D0
:1023700002D0284600F06EF9700607D55FEACA6001
:1023800004D52968102044F480640861B00607D59C
:102390005FEA0A7004D528680761284600F02AFA27
:1023A000F00606D528680069800702D0284600F0AC
:1023B00022FAB00308D55FEAC96005D52968102064
:1023C0004860284600F018FAF00307D55FEA097064
:1023D00004D528684760284600F042FA300446D504
:1023E0005FEA497040D5F00504D55FEAC87001D0B6
:1023F00044F00104B00504D55FEA887001D544F0CB
:102400000204700504D55FEA487001D544F0040465
:10241000300529D518F0700F26D008F0700040283C
:1024200015D006DC102809D020280AD0302816D173
:102430000AE050280ED0602811D10EE044F00804C4
:102440000DE044F010040AE044F0200407E044F0FA
:10245000400404E044F0800401E044F480742868FF
:10246000816921F070018161296804204860002C95
:1024700005D0686A204368622846FFF78FFEBDE8F2
:10248000F09F70B5040003D094F8200010B104E070
:10249000012070BD204600F09DF82068016821F001
:1024A0000201016000F00AFE0546052604E000F086
:1024B00005FE401B0A2811D8206840688007F6D422
:1024C0002068016841F00101016000F0F7FD054658
:1024D0000BE000F0F3FD401B0A2806D9606A40F4C7
:1024E0000030606284F82060D2E720684068C0074E
:1024F000EFD0207E0128206801683DD021F08001C6
:102500000160607E01282068016838D021F0400118
:102510000160A07E01282068016833D021F02001ED
:102520000160E07E0128206801682ED041F0100192
:102530000160207F01282068016829D021F008016E
:102540000160607F01282068016824D021F0040127
:102550000160D4E902010843D4E90412114308439D
:102560006168491E08432168C8610020606201203B
:1025700084F82000002070BD41F08001C0E741F0E8
:102580004001C5E741F02001CAE721F01001CFE783
:1025900041F00801D4E741F00401D9E710B5006823
:1025A000094988420ED10948016821F00071016093
:1025B0004FF44071064800F0B9FBBDE8104014200C
:1025C00001F054BB10BD00000064004040380240E0
:1025D0000004024010B586B0044614216846FDF799
:1025E00099FE18492068884229D1174800210268BD
:1025F00042F000720260006800F00070059012481E
:102600001038026842F002020260006800F0020026
:1026100005904FF4407000900220CDE901010320A5
:102620000390092004906946084800F059FC0022F4
:102630000521142001F038FB142001F028FB06B01E
:1026400010BD000000640040403802400004024019
:10265000704700001CB504462C221D491DA007F040
:102660004DFC2A48844231D16B46294A0021FFF7AC
:1026700096FD00282AD13222154926A007F03EFCFB
:1026800023483322124903682BA007F037FC9DF83A
:10269000003034220E4932A007F030FC9DF80130A2
:1026A00035220B4937A007F029FC9DF8023036226D
:1026B00007493DA007F022FC9DF80330372204496A
:1026C00042A007F01BFC4A49012008701CBD000015
:1026D000A9AA03085B494E464F5D5B25732C256410
:1026E0005D3A202D2D3E48414C5F43414E5F52786C
:1026F0004669666F304D736750656E64696E6743F7
:10270000616C6C6261636B28290D0A007002002005
:10271000585A01205B494E464F5D5B25732C25645A
:102720005D3A202D2D2D3E44617461205265636514
:1027300069657665210D0A005B494E464F5D5B2554
:10274000732C25645D3A2052784D6573736167651B
:102750002E5374644964206973202523780D0A0080
:102760005B494E464F5D5B25732C25645D3A2064C2
:102770006174615B305D2069732030782530327878
:102780000D0A00005B494E464F5D5B25732C2564A6
:102790005D3A20646174615B315D2069732030783B
:1027A000253032780D0A00005B494E464F5D5B25AF
:1027B000732C25645D3A20646174615B325D20692D
:1027C00073203078253032780D0A00005B494E4680
:1027D0004F5D5B25732C25645D3A20646174615BF9
:1027E000335D206973203078253032780D0A00007F
:1027F000D8000020704770477047000070B504464D
:1028000090F82000012804D0606A40F40020606243
:1028100018E0022084F820002068016821F00101FE
:10282000016000F04BFC05460EE000BF00F046FCE6
:10283000401B0A2808D9606A40F400306062052015
:1028400084F82000012070BD20684068C007EDD1E9
:10285000606270BD7047704770477047704770473F
:1028600070472DE9F0410446876D00F027FC0646CD
:1028700094F835000025022806D08020606584F891
:1028800034500120BDE8F0812068016821F0160174
:1028900001602068416921F080014161206C08B924
:1028A000A06C20B12068016821F008010160206857
:1028B000016821F0010101600BE000F0FFFB801BCB
:1028C000052806D92020606504F8345F0320607075
:1028D000D8E720680068C007EFD194F85C103F206B
:1028E0008840B86004F8345F012060700020C9E7B8
:1028F00090F83510022903D08021416501207047EE
:10290000052180F835100068016821F0010101609F
:102910000020704770B504002BD094F835000228D1
:1029200026D02068016821F001010160206800259F
:10293000056020684560206885602068C560206863
:1029400005612168212048612046FEF7FFFEE5630E
:1029500025646564A564E564256594F85C203F21E1
:1029600091408160656584F8355084F834500020CA
:1029700070BD012070BD00002DE9F84304464FF002
:102980000009CDF8009063484FF41651A56D00681A
:10299000B0FBF1F72E6894F85C10082000FA01F102
:1029A00031420FD021680A6852070BD50A6822F01D
:1029B00004020A6094F85C108840A860606D40F0E2
:1029C0000100606594F85C104FF0010808FA01F00E
:1029D000304208D021684969090604D5A860606DB5
:1029E00040F00200606594F85C100420884030429A
:1029F00008D021680968890704D5A860606D40F097
:102A00000400606594F85C1010208840304218D0B3
:102A100021680968090714D5A8602068016849037E
:102A200004D50068000308D5A16C07E00168C9055A
:102A300003D4016821F008010160216C09B120462E
:102A4000884794F85C1020208840304231D02168BB
:102A50000968C9062DD5A86094F8350005282068B6
:102A6000016806D0490347D5006800031DD4616C96
:102A70001CE021F0160101602068416921F080010D
:102A80004161206C08B9A06C20B12068016821F078
:102A90000801016094F85C103F208840A86084F829
:102AA000349084F83580216D1FE0E16B09B1204638
:102AB0008847606D00282BD0606DC00714D00520BA
:102AC00084F835002068016821F001010160009858
:102AD000401C0090B84203D820680068C007F6D1B7
:102AE00084F8349084F83580E16C002910D001B06E
:102AF0002046BDE8F04308470168C905D5D4016800
:102B000021F01001016084F8349084F83580CCE71E
:102B1000BDE8F883340000202DE9F041044600F0C0
:102B2000CDFA06465CB1002584F83450022084F8C2
:102B300035002068016821F0010101600DE00120ED
:102B4000BDE8F08100F0BAFA801B052805D92020E5
:102B50006065032084F83500F2E720680068C0074C
:102B6000F0D12268116820480140D4E901031843DC
:102B7000D4E903363343184363691843A369184300
:102B8000E3691843236A18430843616A042903D19F
:102B9000D4E90B1319430843106020684069666A42
:102BA00020F0070130460E43012704280CD1A06A0B
:102BB0000643E06A40B12046FEF7DCFD20B140202C
:102BC000606584F83570BAE7206846612046FEF7F4
:102BD000BDFD94F85C203F2191408160656584F8DB
:102BE00035700020ACE700003F8010F02DE9F04187
:102BF0000446866D90F83400002501280DD0012090
:102C000084F8340094F835700020012F07D084F840
:102C1000340002252846BDE8F0810220FBE70227A8
:102C200084F8357060652046FEF7CEFD94F85C10A0
:102C30003F208840B0602068016841F016010160C3
:102C4000206C20B12068016841F008010160206813
:102C5000016841F001010160DCE7000070B5044645
:102C600000F02CFA0546601C02D0044800780444A9
:102C700000F024FA401BA042FAD370BD28000020C7
:102C80002DE9F04186B014216846FDF743FB214849
:102C9000016800293AD14FF00108C0F800801E48B1
:102CA0000024016841F0010101600068022500F084
:102CB000010005904FF48050CDE9000502AA0326DB
:102CC0000C2782E8D0006946144800F009F94CF25C
:102CD0003370CDE9000502AA694682E8D0001048A9
:102CE00000F0FEF802AA694682E8D000CDE900852E
:102CF0000C4800F0F5F84FF68070CDE9000502AA07
:102D0000694682E8D000084800F0EAF806B0BDE85D
:102D1000F0810000200000203838024000180240F6
:102D2000000C024000140240001002402DE9F04F58
:102D30000022DFF838B101264FF00F0906FA02F43D
:102D400001EA0403A3427DD122F003075F44D7F8D0
:102D5000088895074FEA157C09FA0CFA0AEA080573
:102D6000DFF80C81404502D14FF0000832E0DFF877
:102D70000481404502D14FF001082BE0DFF8F880D4
:102D8000404502D14FF0020824E0DFF8F0804045D2
:102D900002D14FF003081DE0DFF8E480404502D186
:102DA0004FF0040816E0DFF8DC80404502D14FF018
:102DB00005080FE0DFF8D080404502D14FF006084B
:102DC00008E0DFF8C880404502D14FF0070801E075
:102DD0004FF0080808FA0CF8A84522D12C4DD5F878
:102DE00000C02CEA030CC5F800C005F1040CDCF8A7
:102DF00000509D43CCF800500CF10405D5F800C0FC
:102E00002CEA030CC5F800C02D1DD5F800C02CEA33
:102E1000030CC5F800C0D7F8085825EA0A05C7F81A
:102E20000858056857000323BB409D430560D5083B
:102E300000EB8505D5F820C057074FEAD76809FA97
:102E400008F700E00CE02CEA070CC5F820C0C568C4
:102E50009D43C5604568A543456084689C43846084
:102E6000521C102AFFF46AAFBDE8F08F0030014019
:102E7000000002400004024000080240000C024032
:102E8000001002400014024000180240001C0240E2
:102E9000003C014010B5B0F5004F0CD04FF400518C
:102EA000884207D1064800F0F7F8002802D105490A
:102EB0000120087010BDBDE8104005F0C1BF000042
:102EC000000C024001000020044910B50A680242CB
:102ED00002D00860FFF7DEFF10BD0000143C014087
:102EE0002DE9F84F00224FF0010803254FF00F0E97
:102EF0000B6808FA02F42340A3426ED14E68012EFB
:102F000005D0022E03D0112E01D0122E12D18668C8
:102F10004FEA420C05FA0CF7BE43CF6807FA0CF7EC
:102F2000374387604668A6430C79C4F30014944085
:102F300034434460C668570005FA07FC8C6826EAEB
:102F40000C06BC403443C4604C68022C01D0122CE7
:102F500013D1D40800EB8404A346D4F8209054077E
:102F60004FEAD46A0EFA0AF629EA06090E6906FA49
:102F70000AF646EA0906CBF8206006680C7926EACC
:102F80000C0604F00304BC40344304604C68E400C5
:102F900065D5364C266846F480462660246822F0C3
:102FA000030604F480440094314C3444A446D4F81D
:102FB00008489607370F0EFA07F6B4432D4EB04275
:102FC00001D1002624E02C4EB04201D101261FE0A1
:102FD0002A4EB04202D102261AE040E0284EB0420A
:102FE00001D1032614E0274EB04201D104260FE0A0
:102FF000254EB04201D105260AE0244EB04201D14F
:10300000062605E0224EB04201D1072600E0082640
:10301000BE402643CCF808681E4E34684F689C4377
:10302000FF0300D51C4334601A4C241D26684F68EA
:103030009E43BF0300D51E432660164E08363468F3
:103040004F689C43FF0200D51C433460114E0C3680
:1030500034684F689C43BF0200D51C433460521C47
:10306000102AFFF445AFBDE8F88F00004438024055
:10307000003001400000024000040240000802400D
:10308000000C0240001002400014024000180240F0
:10309000001C0240003C01400069084000D00120B3
:1030A0007047426931EA020200D109048161704728
:1030B0000AB1816170470904FBE70000014880689C
:1030C000704700002800002070B5040025D094F857
:1030D0003D00002520B984F83C50204600F0E2FA7B
:1030E000242084F83D002068016821F0010101607E
:1030F0002068016841F4004101602068016821F402
:103100000041016000F088FF4D4A6168914201D89A
:103110004C4900E04C49884201D2012070BD4B4926
:103120002368B0FBF1F15E6826F03F060E435E6057
:103130006368934206D94FF4967359434FF47A73F8
:10314000B1FBF3F12368491C1E6A26F03F063143A8
:1031500019626168914210D84900401EB0FBF1F23B
:10316000521CC2F30B02042A01D2042022E0B0FB5D
:10317000F1F0401CC0F30B001CE0A268F2B301EBBD
:10318000C10303EB0116431EB3FBF6F35B1C43F4D0
:1031900080431B0549D092B301EBC10202EB011140
:1031A000401EB0FBF1F0401CC0F30B0040F4804027
:1031B00040F400402168CA694CF6FF739A431043FB
:1031C000C861D4E9071001432068026822F0C002F8
:1031D00011430160D4E9030101432068826848F289
:1031E000FF339A4311438160D4E905010843216804
:1031F000CA6822F0FF021043C86001E00EE016E04A
:103200002068016841F0010101602564202084F8F4
:103210003D00256384F83E50002070BD01EB41065F
:10322000431EB3FBF6F35B1CB3E70120C2E701EBDF
:103230004101401EB0FBF1F0401CC0F30B00B7E7AA
:10324000A086010080841E0000093D0040420F005E
:103250002DE9F84F1F4690468A460446DDF828902F
:10326000FFF72CFF054694F83D0020287FD1192355
:10327000012240492046009502F0CCFC002876D17E
:1032800094F83C00012872D0012084F83C002068AA
:103290000168C90703D1016841F00101016020689C
:1032A000016821F400610160212084F83D001020B4
:1032B00084F83E0000262664C4F824806785608D6B
:1032C00020852D48E0622B464A465146204602F0B2
:1032D0005BFB90B9206841698069009036E02A461E
:1032E0004946204602F048FD50B1206C042804D124
:1032F0002068016841F4007101600120BDE8F88F89
:10330000606A216800780861606A401C6062618DB3
:10331000491E6185218D491E89B221852268536924
:10332000DB435B070BD451B100781061606A401C2D
:103330006062608D401E6085208D401E20852A467B
:103340004946204602F040FC0028CED1208D0028BE
:10335000C5D154F83D0B016841F400710160202093
:1033600004F81E09E67766770020C7E7FFE702202A
:10337000C4E70000020010000000FFFF2DE9FF4F2E
:1033800083B09A46DDE9119793460446DDF8408004
:10339000FFF794FE054694F83D00202870D11923CC
:1033A000012271492046009502F034FC0028F5D135
:1033B00094F83C00012863D0012084F83C00206888
:1033C0000168C90703D1016841F00101016020686B
:1033D000016821F400610160222084F83D00402052
:1033E00084F83E0000262664C4F82480A4F82A90BD
:1033F000608D20855D48E062CDE9007553465A46F0
:103400002046049902F00EFB00287CD1208DD0B11B
:10341000012821D00228206824D0416980690090C9
:10342000208D032869D801282BD0514902283B461A
:103430004FF00002009559D08846204602F0EAFB82
:10344000002860D13CE020684169816900910168F1
:1034500041F40071016077E02068016821F4806127
:103460000160F0E7016821F4806101602068016873
:1034700041F400610160206841698069009063E067
:103480006FE02A463946204602F043FC98BB20688C
:103490000069616A08704EE02068016841F40071BB
:1034A000016020680069616A0870606A401C60629F
:1034B000218D491E2185618D491E6185216838E075
:1034C0002068016821F48061016020680069616AF8
:1034D0000870606A401C6062208D401E2085608DEF
:1034E000401E60853B46002241460095204602F082
:1034F00091FB00B9D0E706E0FFE72A4639462046AF
:1035000002F007FC18B1012007B0BDE8F08F206879
:103510000069616A0870606A401C6062218D491E02
:103520002185618D491E618521684A69D243520710
:103530000AD409690170606A401C6062208D401ED7
:103540002085608D401E6085208D00287FF468AF47
:10355000202084F83D0084F83E6084F83C60002020
:10356000D2E70220D0E70000020010000000FFFFB9
:10357000040001002DE9FF4F83B09A46DDE9119761
:1035800093460446DDF84080FFF798FD054694F821
:103590003D0020287FD11923012240492046009573
:1035A00002F038FB002876D194F83C00012872D054
:1035B000012084F83C0020680168C90703D1016834
:1035C00041F0010101602068016821F4006101609F
:1035D000212084F83D00402084F83E000026266427
:1035E000C4F82480A4F82A90608D20852C48E062DD
:1035F000CDE9007553465A462046049902F090FAE8
:1036000070B930E02A463946204602F0B5FB58B181
:10361000206C042804D12068016841F40071016025
:10362000012007B0BDE8F08F606A2168007808616A
:10363000606A401C6062218D491E89B22185628DBD
:10364000521E628522685369DB435B070BD469B164
:1036500000781061606A401C6062208D401E2085E9
:10366000608D401E6085208D0028CBD12A463946CA
:10367000204602F0A9FA0028CAD154F83D0B01688F
:1036800041F400710160202004F81E09E677667796
:103690000020C6E7FFE70220C3E700000200100099
:1036A0000000FFFF10B586B0044614216846FCF701
:1036B00031FE13492068884220D11248016841F048
:1036C000020101600068694600F002000590C02018
:1036D000009012200190012002900320039004200A
:1036E00004900948FFF7FCFB06481030016841F4DC
:1036F00000110160006800F40010059006B010BDD4
:103700000054004030380240000402402DE9FF41DF
:1037100004460068816800917749784E4FF0402751
:10372000884201D1324600E03A46926801924068F0
:103730008846029001D1304600E038464068039048
:1037400060684FF00105B0F5007F1CD0D8B190073C
:1037500005D50398000602D5204602F0F9FB009833
:10376000C0070FD0029840067FD521682046CA685E
:10377000E16A8B1CE3620A80618E491E6186618E5C
:10378000002967D071E00098800719D502980006DB
:1037900016D5616A20468A1C626222680988D16057
:1037A000618D491E6185618D51B901684A6822F0B9
:1037B000A0024A60418E19B980F8415000F0A0F88B
:1037C0000198C00705D00398400602D5204602F0B4
:1037D0008FFB0198400622D5039880061FD52168EB
:1037E000414501D1304600E03846406820F0600194
:1037F00001D1304600E0384641602068416821F040
:10380000A00141602068C1688068019084F841503F
:10381000606C40F002006064204600F072F800988E
:10382000000767D50298800664D52068416821F0BA
:10383000A00141602168414501D1304600E0384691
:10384000406820F0600000D03E46706020688068CC
:10385000009043E001684A6822F060024A60418DAE
:1038600019B980F8415000F04BF8009840061ED579
:10387000029880061BD52068416821F060014160F4
:103880002168414501D1304600E03846406820F0CB
:10389000A00101D1304600E03846416084F8415033
:1038A000606C40F002006064204600F02AF8019845
:1038B00000071FD5039880061CD52168414501D11A
:1038C000304600E03846406820F0A00000D03E4678
:1038D00070602068416821F06001416084F84150C7
:1038E000606C40F00400606404B02046BDE8F04124
:1038F00000F007B8BDE8FF81003800400034004008
:10390000704770472DE9F047040005D094F8410056
:103910004FF0000818B109E00120BDE8F08784F8F5
:10392000408051486063204600F0A6F8022684F8E3
:1039300041602068C16940F6BF77B943C161206822
:10394000066260694FF4007902282FD0E06870B1F8
:103950002025A068202800D86D00012000F0D6F9AD
:10396000216949451FD1E16819B1A90002E010257C
:10397000EFE7E900B0FBF1F000EB80006169400087
:10398000B0FBF1F0401D0A21B0FBF1F000F00101A5
:10399000401A40080902821EFE2A09D3606C40F0DA
:1039A00010006064B8E7B0FBF5F0E5E70220002105
:1039B00022690843024320680262D4E901010843F6
:1039C000A269E168114308432168CA69BA431043F8
:1039D00040F40060C861206A01283AD1234860633E
:1039E00023482168234A4FF04023814201D11146E8
:1039F00000E01946C96921EA070101D1154600E036
:103A00001D46E9612168814201D1114600E0194655
:103A10000E622568854201D1114600E01946C96948
:103A20008EB2616849451BD0D1B100212789B4F815
:103A30000CC047EA0C07B4F818C04CEA010C47EA7E
:103A40000C07B9B2314341F40061854200D01A46F7
:103A5000D161C4F84480012084F8410000205CE773
:103A60004FF48071E2E70000B15F00080D370008F5
:103A700000380040003400402DE9F04186B0064691
:103A800014216846FCF746FC2E493068884256D11E
:103A90002D480025016841F48041016000682A49F1
:103AA00000F4804010390590086840F00400086078
:103AB000086800F004000590086840F00200086003
:103AC0000868022400F00200059048208DE83100CB
:103AD0000527DFF87880CDE9035769464046FFF7B0
:103AE000FFF904208DE831000620CDE90350694636
:103AF0004046FFF7F5F94FF440508DE83100CDE92D
:103B0000035769461248FFF7EBF9134C1148C4E913
:103B100000054020C4E90205000120614000606109
:103B20008000A0614011E0614002C4E90805204620
:103B3000FEF7F2FF08B1FDF78EFEB463A66306B090
:103B4000BDE8F081003800404038024000080240E3
:103B50000004024070600240D805002070477047A2
:103B600010B50021034801F0EDFBBDE8104002480C
:103B700001F0DCB9D4080020140800200248816854
:103B80000278114481607047280000200B4810B56E
:103B9000016841F400710160016841F480610160D5
:103BA000016841F480710160032000F09DF800205D
:103BB00000F006F800F03EF8002010BD003C024086
:103BC00010B5014688B00022192000F06DF81920C8
:103BD00000F05DF813480024016841F00101016024
:103BE000006805A900F001000690684600F0F4F9AD
:103BF00000F022FA0C494000B0FBF1F10C480B4AEE
:103C0000491E026040F2E732C0E90324C0E9011412
:103C100001F0FEF810B1012008B010BD044801F019
:103C200085F9F9E74438024040420F0000000140A6
:103C3000F40900200C4882B0016841F48041016021
:103C4000006800F4804000900748001F016841F0C0
:103C5000805101600068002200F0805000900F2128
:103C6000901E02B000F020B84438024000280DDB5E
:103C700000F01F02012191404009800000F1E02086
:103C8000C0F88011BFF34F8FBFF36F8F70470028CC
:103C900009DB00F01F02012191404009800000F182
:103CA000E020C0F800117047F0B40E4B1B680C46C2
:103CB000C3F30223C3F10705042D00D90425191D00
:103CC000072901D2002300E0DB1E012606FA05F1D8
:103CD000491E214099409E40761E16403143F0BC5B
:103CE00006F048B90CED00E0064900F0070208684C
:103CF0004FF6FF03184040EA0220034A10430860D1
:103D0000704700000CED00E00000FA0501460020BD
:103D1000012907D11049096811F4000103D00129D4
:103D200000D10E4870470C48001F01680068490226
:103D300000F03F0001D50A4900E00A49064AB1FBFC
:103D4000F0F07C321168C1F3881141431068C0F370
:103D50000270B1FBF0F07047083802400080BB00F1
:103D600040787D010024F4002DE9F8430546006801
:103D70004FF00109C1074FF0000601D1400727D5D8
:103D8000DFF80C81C8F86860FFF798F90746414CE6
:103D900005E000BFFFF792F9C01B022857D8206842
:103DA0000001F7D468688101287A41EA0070394936
:103DB00084310860C8F86890FFF780F9074604E08E
:103DC000FFF77CF9C01B022841D820680001F7D515
:103DD0002878800752D52F484030016841F0805143
:103DE000016000682C4C00F080500090206840F486
:103DF00080702060FFF762F9074604E0FFF75EF984
:103E0000C01B022823D82068C005F7D5214C703488
:103E1000206810F4407020D0A98901F440718142DB
:103E20001BD020681D4920F44070C1F800900E603E
:103E300020602068C00710D0FFF740F9064641F225
:103E4000883707E0FFF73AF9801BB84202D9032010
:103E5000BDE8F88320688007F4D5E9680D48C1F310
:103E600001220830032A0BD0016821F4F811016007
:103E70002068A989C1F30B01084320600020E7E70F
:103E80000268074B22F4F81219400A430260EFE778
:103E9000000047420038024000700040400E474298
:103EA000FFFCFF0F2DE9F0470E46050065D0DFF857
:103EB0001481D8F80000F7B200F00F00B04207D22A
:103EC00088F80070D8F8000000F00F00B04254D11C
:103ED00028683D4C810712D5400703D5206840F47F
:103EE000E05020602878000703D5206840F4604047
:103EF00020602068A96820F0F0000843206028783E
:103F0000C0072DD0304968680839012812D002282E
:103F100013D0032811D00968890700292DDA2168F8
:103F200021F0030101432160FFF7C8F8814641F207
:103F3000883A0EE009688903EFE709688901ECE730
:103F4000FFF7BCF8A0EB0901514502D90320BDE8F9
:103F5000F0872068696800F00C00B0EB810FEFD1AA
:103F6000D8F80010404601F00F01B14207D90770A0
:103F7000006800F00F00B04201D00120E7E7287888
:103F8000400705D52068E96820F4E0500843206028
:103F90002878000706D52068296920F4604040EAA7
:103FA000C100206000F058F82168084AC1F30311ED
:103FB000515CC8400649086006480068FFF700FEEB
:103FC0000020C4E7003C02400838024020BC000842
:103FD000340000202C0000200F2202600C4A1368DD
:103FE00003F003034360136803F0F0038360136876
:103FF00003F4E053C36012684FF4E05303EAD202C3
:1040000002610448006800F00F000860704700007B
:1040100008380240003C024004480549006809682D
:10402000044AC1F38221515CC8407047340000202B
:104030000838024030BC0008044805490068096897
:10404000044AC1F34231515CC8407047340000203B
:104050000838024030BC0008154810B5006810F060
:104060000C02144813D01449042A0FD0082A0ED188
:104070000F4C241F2268236802F03F025B0207D521
:104080002068C0F38810A0FB010106E0084610BDBF
:104090002168C1F38811A1FB00010023FCF7F0F8AF
:1040A0002168C1F30141491C4900B0FBF1F010BD8A
:1040B000083802400024F40040787D012DE9F84FD3
:1040C00004006ED02078DFF83C93C007A9F1040506
:1040D0004AD009F104000168C1F38101012908D027
:1040E0000068C0F3810002280AD1D9F8000040021C
:1040F00006D52868800337D560680028E1D033E012
:104100006068B0F5803F10D0B0F5A02F286810D0BF
:1041100020F480302860286820F4802028606068BF
:10412000A8B1FEF7CBFF06460DE0286840F48030CA
:10413000F4E740F480202860F7E700BFFEF7BEFFF9
:10414000801B642873D828688003F7D50CE0FEF73D
:10415000B5FF064605E000BFFEF7B0FF801B6428F0
:10416000F0D828688003F7D42078DFF89C82800795
:104170004FF0000A3ED5A348001D016811F00C0F56
:1041800008D00068C0F3810002280BD1D9F80000E4
:10419000400207D42868800716D5E068012800D1BE
:1041A00012E02BE1E068B8B10120C8F80000FEF78A
:1041B00085FF064605E000BFFEF780FF801B022852
:1041C000C0D828688007F7D52868216920F0F80052
:1041D00040EAC10028600DE0C8F800A0FEF76EFFBD
:1041E000064604E0FEF76AFF801B02281FD82868F5
:1041F0008007F7D42078000722D5824E8348616972
:10420000703671B101210160FEF758FF074604E0E6
:10421000FEF754FFC01B022809D830688007F7D585
:104220000EE0C0F800A0FEF749FF074605E082E077
:10423000FEF744FFC01B02287DD830688007F7D402
:104240002078400768D5DFF8BCB100270BF13C0BA4
:10425000DBF80000C0000BD4DBF8001041F0805107
:10426000CBF80010DBF80000012700F08050009030
:10427000674E3068C00510D4306840F480703060FC
:10428000FEF71CFF009005E0FEF718FF0099401AAA
:10429000022850D83068C005F6D55A4EA0686C3652
:1042A00001280FD00528306810D020F001003060C0
:1042B000306820F004003060A068B8B1FEF7FEFE60
:1042C00000900FE0306840F00100F4E740F0040097
:1042D0003060F7E7FEF7F2FE0099411A41F28830AC
:1042E000814266D830688007F4D50EE0FEF7E6FE1E
:1042F000009007E0FEF7E2FE0099411A41F2883093
:10430000814256D830688007F4D42FB1DBF8001012
:1043100021F08051CBF80010A069C8B33949091DBC
:104320000968C1F3810102294AD00228504607D00A
:10433000C8F8600000E03CE0FEF7C0FE04463BE049
:104340004746C8F86000FEF7B9FE064605E000BF24
:10435000FEF7B4FE801B02282BD828688001F7D412
:10436000D4E907010843A16A2A4A490802EB01413E
:10437000626A41EA8211084394F82C1040EA016114
:10438000C9F8001001203866FEF798FE044606E0E2
:1043900036E000BFFEF792FE001B022809D828680D
:1043A0008001F7D52CE000BFFEF788FE001B022835
:1043B00002D90320BDE8F88F28688001F4D41FE0FB
:1043C0000128F7D0D9F80000E26900F48001914299
:1043D00014D1226A00F03F0191420FD147F6C0711B
:1043E000626A0140914209D1A26A00F440319142CF
:1043F00004D1E16A00F07060884201D00120D9E761
:104400000020D7E70438024000004742800E4742B0
:10441000007000400000FFFF7047704750F8742F95
:10442000120E0A700268120A4A8002784368120665
:1044300042EA13224A6002790A728268120E4A72B4
:104440008268C368120242EA1362CA60C268C2F399
:1044500003520A74C268C2F30B224A82007BC0F383
:10446000460008750120487500207047F0B5426E7F
:10447000920F0A70426EC2F383624A70426EC2F3B8
:1044800001628A70426E120CCA70B0F86420120A7F
:104490000A7190F864204A71826E120DCA80826E91
:1044A000C2F303420A72B0F86820C2F3C0324A7203
:1044B000B0F86820C2F380328A72B0F86820C2F384
:1044C0004032CA72B0F86820C2F300320A73002684
:1044D0004E73426C4FF40075012462B1012A3AD048
:1044E000026847499163816B41F08051816380F894
:1044F00034400120F0BDB0F86820C36E9205120D63
:1045000042EA93720A61C26EC2F3C2620A75C26E57
:10451000C2F302624A75C26EC2F342528A75C26E1B
:10452000C2F38242CA75C26EC2F3C2320A760A6907
:10453000521C42650B7E03F007039B1C9A404265A8
:104540000B7A03F00F0704FA07F383655B0A5A43FB
:10455000C0E917250EE090F86820C36E9206920A13
:1045600042EA13420A610A69521C92024265C0E99A
:104570001652056630F86C2FC2F3803201F8192FFD
:104580000288C2F3C6124A70027802F07F028A7073
:104590004268D20FCA704268C2F341720A7142681F
:1045A000C2F382624A714268C2F383528A714268DE
:1045B000C2F34052CA710E724268C2F300424A729C
:1045C0008288C2F3C0328A728288C2F38032CA7291
:1045D0008288C2F340320A738288C2F300324A737F
:1045E0008288C2F381228A738288C2F30122CA734D
:1045F0000079C0F3460008744C740020F0BD000040
:10460000FF054000426C0A60826C4A60C26C8A609E
:10461000026DCA60426D0A61826D4A61C26D8A6133
:10462000006EC8610020704770B50446B0F85000B5
:1046300000250104206804F004FE18B1A16B0143B9
:10464000A16304E00021206804F08CFC0546C5F35A
:10465000432070BDF8B5056B04460068416B090442
:104660001BD5290719D5D4E90A56002E14D00027E6
:10467000206804F09BFC05F8010B010A05F8011BFA
:10468000010C05F8021B000E361F7F1C05F8010CFB
:10469000082FEDD3C4E90A56F8BD416B4FF0000670
:1046A000C9054FF0010744D5390281632068C16B09
:1046B0004CF23A329143C1632068C16A21F0010192
:1046C000C16228071DD515F0220F09D0206804F01B
:1046D000E9FD28B1A16B0143A1632046FFF79DFED0
:1046E000216840F23A50886384F834702663A80742
:1046F00003D0204600F09AF9F8BD204600F097F963
:10470000F8BD2806FCD5A80609D5206804F0CAFD26
:1047100028B1A16B0143A1632046FFF77EFEA807E5
:10472000EED12068C16A21F00801C16284F83470BA
:10473000E3E7416B490424D5290722D5D4E908567B
:10474000002EDDD05FF0000715F8010B009015F882
:10475000011B361F40EA0120009015F8021B40EAB9
:104760000140009015F8011C40EA01600090694684
:10477000206804F087FC7F1C082FE5D3C4E90856A5
:10478000F8BD416B40F23A221142F9D0416B8907E2
:1047900003D5A16B41F00201A163416B090703D569
:1047A000A16B41F00801A163416B890603D5A16BA0
:1047B00041F02001A163416BC90603D5A16B41F013
:1047C0001001A163416B890503D5A16B41F008017C
:1047D000A16340F23A7181632068C16B40F23A32C2
:1047E0009143C163206804F05DFDA16B0843A063A1
:1047F000280706D584F8347026632046FFF70DFE9F
:10480000F8BD2806FCD515F0300F0CD0E16B11482F
:104810000865E06BFEF76CF80028F1D0E06BBDE8AE
:10482000F84004F099BEA8070CD0216C0A4808652E
:10483000206CFEF75DF80028E2D0206CBDE8F8405F
:1048400004F068BEA66384F8347026632046FFF740
:10485000E3FDF8BD599500081595000870B50400F2
:104860000ED094F83400002518B92577204600F0C2
:104870003BF8032084F83400204600F00BF808B120
:10488000012070BDA5632563012084F83400002059
:1048900070BD0000FEB50025044676200095CDE9E8
:1048A000015029460B460A46206804F065FB08B112
:1048B0000120FEBD0B4E46F8A05F206804F06EFBA1
:1048C00001253560204604F0E1FE20B9204604F0C1
:1048D00065FE0028EDD084F83450A16B0143A1633C
:1048E000E6E70000008025422DE9F04F87B005463D
:1048F00014216846FBF70EFD4649286888427DD1A1
:1049000045480068444940F400600860086800F4C5
:10491000006005904048143800683F4940F00400AA
:1049200014390860086800F004000590086840F039
:10493000080008600868022400F0080005904FF4A1
:10494000F850CDE9000402AA002003264FF00C081D
:1049500082E8410169463148FEF7C2FA02AA002006
:1049600082E841010427CDE9007469462C48FEF72E
:10497000B7FA2D4C2B484FF00068C4E9000800201E
:104980004FF48069A060C4E90309B8024FF4804B7A
:10499000C4E9050BC4E9097640014FF0200AC4E9D7
:1049A00007A0860107012046C4E90B67FEF7B4F8AB
:1049B00008B1FCF750FF2C64A5631B4C1948603408
:1049C0004830C4E900084020A0600020C4E9030981
:1049D000C4E907A00420606204F12802032082E8F1
:1049E000C1004FF48051C4E9051B2046FEF794F83E
:1049F00008B1FCF730FFEC63002200E007E005217E
:104A00003120A563FFF750F93120FFF740F907B0D7
:104A1000BDE8F08F002C01404438024000080240FD
:104A2000000C024058640240BC06002070477047EA
:104A300070B5040005D00025A56294F8510010B1AE
:104A400006E0012070BD84F85050204600F030F898
:104A5000022084F851002068016821F040010160C3
:104A6000D4E901010843D4E9031211430843616901
:104A70000843218B01F400710843E1690843216A6E
:104A80000843A16A084321680860A069042101EA7B
:104A90001040616A0843216848602068C16921F4B8
:104AA0000061C1616565012084F85100002070BD7E
:104AB000F0B587B0044614216846FBF72BFC1C496F
:104AC0002068884232D11B480024016841F480519B
:104AD0000160006800F480500590164814380168A1
:104AE00041F002010160016801F0020105910168D5
:104AF00041F0010101600068022500F0010005900D
:104B00003020CDE9000502AA0326052782E8D0005F
:104B100069460948FEF7E4F92020CDE9000502AA1C
:104B2000694682E8D0000548FEF7DAF907B0F0BD23
:104B300000300140443802400004024000000240BE
:104B40002DE9F84F044690F8500000270A9E1D46B4
:104B500092468B464FF0010901280ED0012084F8BF
:104B60005000FEF7ABFA804694F8510061680128C6
:104B70000CD0B1F5827F07D102E00220BDE8F88FAA
:104B8000A16809B9042801D00227C2E0BBF1000FD7
:104B900027D0BAF1000F24D01DB394F85100042897
:104BA00002D0052084F8510000206065C4F838A0C8
:104BB000E587A587C4F830B0E586A58620646064E3
:104BC00020680168490603D4016841F04001016092
:104BD000E068B0F5006F606805D0E8B3012D46D0FD
:104BE0007FE0012795E008B1012D39D1206B2168C4
:104BF0000088C860206B801C2063E08E401EE08629
:104C00002EE02068816889070FD5E18E69B1B9F17E
:104C1000010F0AD1216B0988C160206B801C2063C1
:104C2000E08E401EE0864FF0000920688168C907C9
:104C30000CD0E18F51B1C068A16B0880A06B801CC3
:104C4000A063E08F401EE0874FF00109FEF736FABF
:104C5000A0EB0800B04200E009E001D3701C50D185
:104C6000E08E0028CDD1E08F0028CAD13FE0206B34
:104C7000216800780873206B401C2063E08E401E82
:104C8000E0862EE02068816889070FD5E18E69B142
:104C9000B9F1010F0AD1216B09780173206B401C17
:104CA0002063E08E401EE0864FF000092068816896
:104CB000C9070CD0E18F51B1C068A16B0870A06B1F
:104CC000401CA063E08F401EE0874FF00109FEF713
:104CD000F5F9A0EB0800B04202D3701C01D010E03F
:104CE0007EB1E08E0028CDD1E08F0028CAD14246A7
:104CF0003146204604F024FD28B1012720206065BC
:104D000007E0032705E0A06818B92068C16880683B
:104D10000090012084F85100002084F850003846AB
:104D20002CE770B515460E46040003D094F84900F0
:104D300010B107E0012070BD002084F84800204633
:104D400000F01AF804F108012068FCF7A5FD3146CF
:104D5000A2682068FCF7CAFDD4E901022946236B4A
:104D6000FCF77AFDA168206850F8212042F001028A
:104D700040F82120002070BDFDF782BF70477047CA
:104D800070B590F83C20012A32D0012480F83C40D4
:104D9000022280F83D2003685A689D6822F0700660
:104DA0000A6832435A60134B02689A4214D0B2F137
:104DB000804F11D0104B9A420ED0104B9A420BD01C
:104DC0000F4B9A4208D00F4B9A4205D00E4B9A4295
:104DD00002D00E4B9A4204D1496825F08003194352
:104DE000916080F83D40002180F83C10084670BD7D
:104DF000022070BD00000140000400400008004097
:104E0000000C004000040140004001400018004038
:104E100010B5040003D094F83D0010B107E0012064
:104E200010BD002084F83C00204600F00DF8022060
:104E300084F83D00211D206804F0BAFD012084F8AB
:104E40003D00002010BD000008B501682948B1F1FF
:104E5000804F11D0284A914216D1016841F00401D7
:104E600001600068002200F00400009005211E206F
:104E7000FEF71AFF1E202CE0016841F001010160DD
:104E8000006800F0010032E01C4A91420ED1016836
:104E900041F0080101600068002200F00800009065
:104EA00005213220FEF700FF322012E0144A914221
:104EB00013D11048001D016841F480310160006881
:104EC000002200F48030009005211820FEF7ECFE4F
:104ED0001820BDE80840FEF7DABE0A4A914207D121
:104EE000016841F040010160006800F0400000905E
:104EF00008BD00004038024000080040000C00409F
:104F00000040014000180040022180F83D10016877
:104F10008A6802F00702062A03D00A6842F00102FA
:104F20000A60012180F83D10002070470168CA68BE
:104F300042F00102CA600068816801F00701062999
:104F400003D0016841F00101016000207047022197
:104F500080F83D1001680A6A41F211131A4207D124
:104F60000A6A9B101A4203D10A6822F001020A6001
:104F7000012180F83D10002070470168CA6822F0C6
:104F80000102CA600068016A41F21112114207D1A0
:104F9000016A9210114203D1016821F00101016000
:104FA0000020704770B5044690F83C00012817D0E7
:104FB000012584F83C50022084F83D002068826876
:104FC00022F0770222F47F4282600868502830D0B5
:104FD0000DDC20284DD005DC98B310283BD148E0EB
:104FE000022070BD302844D0402834D139E06028F8
:104FF00028D0702806D0B0F5805F2CD0B0F5005FC7
:1050000029D10AE0CB68D1E90121206804F041FDF3
:105010002068816841F0770109E0CB68D1E901217E
:10502000206804F036FD2068816841F48041816089
:1050300011E0CA684968206804F000FE5021206829
:1050400007E016E0CA684968206804F008FE60219D
:10505000206804F028FD84F83D50002084F83C00CE
:1050600070BDCA684968206804F0E8FD40212068E6
:10507000EFE7226801461046EBE7704770B504463B
:10508000006801694FF00005C943890715D4C1685C
:10509000C943890711D4E91E0161012020772068E6
:1050A00080698007204602D0FFF7E7FF04E000F0A8
:1050B000C3F8204600F045F9257720680169C94307
:1050C000490717D4C168C943490713D46FF00401D5
:1050D0000161022020772068806910F4407F20461B
:1050E00002D0FFF7CAFF04E000F0A6F8204600F067
:1050F00028F9257720680169C943090716D4C168D2
:10510000C943090712D46FF0080101610420207718
:105110002068C0698007204602D0FFF7AEFF04E098
:1051200000F08AF8204600F00CF925772068016924
:10513000C943C90617D4C168C943C90613D46FF05F
:1051400010010161082020772068C06910F4407FB9
:10515000204602D0FFF791FF04E000F06DF82046F2
:1051600000F0EFF8257720680169C943C90708D125
:10517000C168C943C90704D1891E0161204600F0F6
:105180001BF920680169C943090609D4C168C943EC
:10519000090605D46FF0800101612046FFF7EEFD9E
:1051A00020680169C943490609D4C168C943490651
:1051B00005D46FF040010161204600F07DF92068C0
:1051C0000169C94389060BD4C168C943890607D45C
:1051D0006FF0200101612046BDE87040FFF7CFBDB0
:1051E00070BD000010B586B0044614216846FBF778
:1051F00091F80E492068884216D10D4800210268B6
:1052000042F002020260006800F0020005904FF4D4
:10521000804000900220CDE901010920CDE9031072
:1052200069460448FDF75CFE06B010BD001800405A
:105230003038024000040240704770B5044690F8D0
:105240003C000D4601280DD0012684F83C60022068
:1052500084F83D0042B1042A18D0082A2AD00C2A2A
:105260004DD139E0022070BD206804F025FC206893
:10527000816941F0080181612068816921F00401A0
:105280008161206881692A69114311E0206804F076
:1052900043FC2068816941F4006181612068816973
:1052A00021F480618161206881692A6941EA0221D3
:1052B000816124E0206804F065FC2068C16941F048
:1052C0000801C1612068C16921F00401C161206841
:1052D000C1692A69114311E0206804F087FC206845
:1052E000C16941F40061C1612068C16921F4806134
:1052F000C1612068C1692A6941EA0221C16184F85B
:105300003D60002084F83C0070BD10B5040003D05F
:1053100094F83D0010B107E0012010BD002084F892
:105320003C00204600F00CF8022084F83D00211DCE
:10533000206804F03DFB012084F83D00002010BDF2
:105340007047704710B50268044631B1042908D08F
:10535000082925D00C2908D126E0D06840F00200A9
:1053600002E0D06840F00400D0600122206804F020
:1053700083FB0F492068884202D00E49884203D13E
:10538000416C41F4004141642068816801F00701EB
:10539000062903D0016841F001010160002010BD21
:1053A000D06840F00800DFE7D06840F01000DBE78D
:1053B00000000140000401402DE9F041006834493B
:1053C000884203D1BDE8F041FEF7D8BB314988429D
:1053D00008D131480168002902D00168491E0160E6
:1053E000BDE8F0812D49884248D12D4D2E4F2F4CDC
:1053F00028784FF4805110F003022A484FF40056E9
:105400000BD0012A0ED0022A1FD0032A27D0002059
:1054100028702878401C2870E2E70122FDF748FE3A
:10542000002203E00022FDF743FE01223146384608
:10543000FDF73EFE002210212046FDF739FE002236
:1054400040212046FDF734FEE3E70022FDF730FE61
:10545000002231463846FDF72BFE0122EBE7002201
:10546000FDF726FE002231463846FDF721FE0022D8
:1054700010212046FDF71CFE0122E1E70C4988427D
:10548000AED1BDE8F04140210A48FDF70ABE000058
:105490000000014000080040EC000020000C00402B
:1054A00000000020000C0240001C024000100240DE
:1054B00000400140001802407047704770B504007A
:1054C00004D094F83900002510B106E0012070BD29
:1054D00084F83850204600F053F8242084F839002E
:1054E0002068C16821F40051C160204604F03EFCF0
:1054F0002068016921F4904101612068416921F02F
:105500002A0141612068C16841F40051C160E5632E
:10551000202084F8390084F83A00002070BD000093
:1055200010B504460068114988420BD11048016843
:1055300021F010010160BDE810404FF4C0610D483A
:10554000FDF7F4BB0C4988420FD10948001F0168E0
:1055500021F4802101604FF440610848FDF7E6FB2B
:10556000606BBDE81040FDF7D5B910BD00100140DB
:10557000443802400000024000480040000402405D
:10558000F0B587B0064614216846FAF7C3FE2F4FE0
:10559000306800252E49022203230724B8421CD17B
:1055A0002B481430066846F010060660006800F0CC
:1055B00010000590086840F001000860086869461E
:1055C00000F00100059058028DE82500CDE9033474
:1055D0002048FDF785FC07B0F0BD1F4FB842FAD157
:1055E0001B481030076847F480270760006800F404
:1055F00080200590086840F002000860086869464D
:1056000000F0020005904FF440608DE82500CDE9E0
:1056100003341248FDF764FC124C114820604FF02F
:105620000060C4E901054014C4E903506561C0018C
:10563000A561C4E9075020466562FDF76DFA08B11F
:10564000FCF709F97463A663C5E700000010014088
:105650003038024000000240004800400004024090
:105660002860024094090020F8B5044690F83A00FA
:1056700020283CD1C1B3BAB394F83800012836D001
:10568000012084F83800A162A2850025E56322206C
:1056900084F83A00636B1748D863636B1648186444
:1056A000636B1648D864606B134605650846666BE5
:1056B000216802463046091DFDF798FA2068016806
:1056C0004168009184F83850C16841F48071C1602C
:1056D0002068416941F0010141612068416941F060
:1056E000400141610020F8BDFFE70120FBE70220F7
:1056F000F9E70000F79C0008339D0008AD9C000806
:1057000010B50068114988421FD11148441E017824
:105710004F2902D140784B280ED02F220D490EA0E0
:1057200004F0ECFB0020A4F80100BDE810400222C8
:1057300007491348FFF798BF01202070044B2C2223
:10574000044910A004F0DAFBECE710BD004800406B
:105750000101002089C303085B4552524F525D5B33
:1057600025732C25645D3A20525334383520666108
:10577000696C65205265637620446174610D0A008E
:10578000540900205B494E464F5D5B25732C256410
:105790005D3A2052533438352073756363657373F3
:1057A0002052656376204461746120A3BA25730D8D
:1057B0000A00000070472DE9F843044690F83900CC
:1057C0001F4616460D46202850D1B5B1AEB194F80B
:1057D000380001284AD0012084F838004FF0000832
:1057E000C4F83C80212084F83900FDF767FCA684CA
:1057F0008146E68484F8388026E00120BDE8F883FD
:10580000E08C401EE084A0684B46B0F5805F4FF00E
:1058100000024FF080012046009703D004F03AFBCD
:10582000E8B90DE004F036FBC8B928882168C0F358
:1058300008004860206908B16D1C05E0AD1C03E05C
:10584000216815F8010B4860E08C0028D8D14B4640
:10585000002240212046009704F01CFB08B10320E1
:10586000CCE7202084F839000020C7E70220C5E7F4
:10587000FEE700002DE9FE43094E0A9D1C4617462F
:105880008846814630680094CDE9015001233A46AC
:1058900041464846FDF772FD0028F3D1BDE8FE837E
:1058A000CC0000202DE9F0411D4617460E468046EB
:1058B000069C08E03A46781C87B215F8013B314651
:1058C000404600F005F8641EA4B2F3D2BDE8F081B2
:1058D0002DE9FF4383B00A4C1746884681460125CF
:1058E00006AE20680096CDE9015001233A464146B4
:1058F0004846FDF73FFE0028F3D107B0BDE8F0832E
:10590000CC0000202DE9FF471D46174689468246F8
:10591000DFF8408001260C9C16E03A467B1CDFB283
:1059200015F8013B8DF80C30D8F800305046494648
:105930000DF10C0CCDF800C0CDE901630123FDF79A
:1059400019FE0520FDF78AF9641EE4B2E5D2BDE830
:10595000FF870000DC00002001684A69D24352053D
:105960000FD46FF480624A61002140F8301F20227A
:1059700042738173026942F00402026101730120E3
:105980007047002070470000F8B50446C06A1E4604
:105990000D461746082807D0012805D010F5803F8E
:1059A00002D0206B122804D12068016841F4807174
:1059B0000160134600224FF001112046009600F0CE
:1059C00029F940B120680068C00502D54FF4007085
:1059D00020640320F8BD2069B0F5804F0ED006206A
:1059E000216800EAD51040F0F000086133463A46DD
:1059F0000B49204600F042F978B902E005F0FE00BC
:105A000000E0E8B221680861054933463A46891F3B
:105A1000204600F033F90028DCD00120F8BD00005A
:105A2000080001002DE9F84F0446006889460B9DE7
:105A300001689846174641F480610160206801685A
:105A400041F48071016000954FF0011B002259461E
:105A500020460A9B00F0DEF84FF4007A40B120683F
:105A60000068C00501D5C4F840A00320BDE8F88F48
:105A7000216809F0FE0008612B46284920460A9A51
:105A800000F0FCF8F0BB20684169806900902A466C
:105A900020460A9900F070F940B1206C04283AD1F0
:105AA0002068016841F40071016034E0FEB2B8F191
:105AB000010F09D02168380A08612A4620460A9950
:105AC00000F05AF90028E8D1206806612A462046ED
:105AD0000A9900F051F90028DFD12068016841F4EB
